:20000000004000205DD9000001C9011001C9011001C9011001C9011001C9011001C9011028
:1C00200001C9011001C9011001C9011001C9011001C9011001C901103FC9011089
:20003C002DE9F04FADF12C0D01F074F9B348B14D4FF00009C846A4380790A868AE4A4946C1
:20005C004FF0FF3300F0D8FB0028F6D0484605900DF11A0105AA06A80EF0CCFB002840F0AC
:20007C008980BDF81800012710287ED128789DF81A10884279D1059C20884FF6FF718142AB
:20009C0073D02678913E5DD01F3E6ED1607816282CD020797E281DD07F280FD000904846E9
:2000BC004E4601904A46029640F2CB410392B0A304963A46AAA00AF01DF834E020890090F1
:2000DC004E4601964A46029240F2C6410396B2A30492EEE7207A00904E46019640F2C1419A
:2000FC00029603220396B3A30496E3E720794E46009040F2A941019602220296BCA30396B0
:20011C0097A0CDF8109009F0F5FF6E6A8EB94FF6FD70CA49CA4A00904B46102006F0DEFC21
:20013C006E6AC3B22BB1217904F1080000F068FB1BE046F0010638466E6209F02FF84F4655
:20015C002C6112E060780E280FD1CDF8009048464E464C46019040F28C413A460296C7A3FB
:20017C0003947FA0049609F0C5FF059810B10FB10FF073FFE86800F047FB00287FF45DAF9E
:20019C00E86800F045FB014601F10904097A0890002900F08581491E00F0B280491E00F063
:2001BC009580491E00F0A282491E64D0491E43D0491E03D00A3900F094829AE2686A400865
:2001DC00C0F097822F69002F00F09382A87807F10806401CA870C14900967A883B7910204E
:2001FC0006F07CFC5FFA80FABAF1160F14D06F6ABAF1040F10D037F001076F6208D14FF659
:20021C00FD708E498E4A00900123102006F066FC504608F0C3FF6CE2286900790090A87812
:20023C004F464E464C46019002220297B9A3039640F21551049419E1C77A00F10904002F0C
:20025C000CBFC0A0C2A000904E464F464FF443714846019001220297BFA3039640A00497F4
:20027C0009F048FF484600909B4922884B46102006F034FC3DE200F10904407A0D2814BFB0
:20029C00C2A0C5A06778002F0CBFC6A1CAA14E460122CEA300904F460191484602904FF48E
:2002BC00637103972EA0049609F024FF27780D3F09D07F1E40F01D8201200146641C2246B0
:2002DC0005F076F915E201214846F7E7278841F2101022463F1A06D0103F40F00A822079DC
:2002FC006188641DEBE710795188521D07F09AFBFFE1C046C00700200F0000C0E80800209D
:20031C0027880FF2D02CB8A2BDA1B7F5895719D0103F40F0EE81B4F8050040B1401E04D026
:20033C00401E08BFCDF824C002E0099200E009912079012840F0DD81099ED0A0D3A740F2C9
:20035C0065418AE0B4F8050000287BD0401E04D0401E08BFCDF828C075E00A9273E0C046FF
:20037C0070726F6A6563745F7A65726F2E6300C052656365766965642047415454204D65B1
:20039C0073736167652E204F70636F64653A2030782530327800C0464D54552053697A65CE
:2003BC00206368616E67653A20256420627974657300C046466C6F7720636F6E74726F6CB2
:2003DC002076696F6C617465642E204F70636F6465206F66206F6666656E64696E672041BB
:2003FC005454206D73673A2030782530327800C04F7574676F696E67205246204649464FC9
:20041C002066756C6C2E2052652D7363686564756C65207472616E736D697373696F6E2004
:20043C006F66206D73672077697468206F70636F64652030782530327800C04689CF0000C9
:20045C0087FA00000A912779A7B17F1E40F05181C9A740F20741C4A00A9E00900197029617
:20047C004C4603944B460493A4A30122AA4809F041FE3EE1BAA74FF47F71ECE74843492001
:20049C00436F6D6D616E6420436F6D706C657465204576656E74207265636569766564009F
:2004BC00278841F210103F1A00F0B380203F40F020812779A7B17F1E40F01B8160790090A8
:2004DC00A0790190E0794F464E460290ACA3039740F237410496C8E745E80000DDFE00104E
:2004FC00C448494628220BF0D1FAC248641D272221460AF025F9BF4E97A760A000904C4675
:20051C0001974A4602964FF486610394ABA30492ABE7C0465265747279696E67206D657309
:20053C00736167652077697468206F70636F6465203078253032782E20417474656D707495
:20055C0020256400446973706C6179696E6700C053656E64696E6700426F6E644D67722071
:20057C005265717565737465642070617373636F64652E2057652061726520257320706130
:20059C007373636F6465202530366400427574746F6E203100C046C0427574746F6E203050
:2005BC0000C046C01B5B33336D72656C65617365641B5B306D00C0461B5B33326D70726523
:2005DC00737365641B5B306D00C046C0257320257300C046496E6469636174696F6E73208C
:2005FC00656E61626C6564004E6F74696669636174696F6E7320656E61626C656400C046C9
:20061C004E6F74692F496E642064697361626C656400A178079A601D0BF0DEFF2779661D50
:20063C000FF2B41B0FF2B41A002F33D07F1E60D144A0009046A701976D4F40F2C7310122FD
:20065C005EA302974F4603973348049709F052FDA869627907210DF0A5FD377807B1D34624
:20067C0034A000904E46CDF804B04F4602974C46039640F2CF31049431E0C0464461746139
:20069C00205365727669636500C046C053747265616D00C0564C2BA0009024A701974FF4B8
:2006BC006E71012245A302944F4603971A48CDF8108009F01FFDA869327806210DF072FD55
:2006DC00377807B1D34615A00090CDF804B04F46CDF808804E4603974FF47071049640A30F
:2006FC00C3E60820494603F073FB02E0407A05F093FF08980DF0F8FE3CE5C0464343434433
:20071C00204368616E6765206D73673A2025732025733A20257300C07C0300001B5B33313B
:20073C006D4C4544301B5B306D00C0464C45443000C046C01B5B33326D4C4544311B5B3053
:20075C006D00C0464C45442053657276696365004C45443100C046C0537472696E6700C041
:20077C00425554544F4E3000427574746F6E205365727669636500C0425554544F4E310017
:20079C0056616C7565204368616E6765206D73673A2044617461205365727669636520533B
:2007BC00747265616D3A20253032783A253032783A253032782E2E2E00C046C056616C7551
:2007DC0065204368616E6765206D73673A2025732025733A202573006F6666006F6E00C057
:2007FC005475726E696E6720257320257300C04644080020E8080020DFF800F0F99B011098
:20081C00DFF800F089840110DFF800F04FBF0110DFF800F0F1BF01102DE9F84FDFF8488667
:20083C00DFF84816DFF8486688F800000822002008600D23DFF83C0640F23131027043809E
:20085C008180DFF834060660B77EDFF830060770FF2FF17E417008BFFF29327F8270737F79
:20087C00C370B57F0571F67F467115D1FF2A08BFFF2B11D1FF2D08BFFF2E0DD1DFF8001686
:20089C000A7802704B7843708A788270CB78C3700A79027149794171DFF8E81502780A7036
:2008BC00FF2543784B7082788A70C378CB700279DFF8D4350A714079DFF8D0254871DFF82D
:2008DC00D0150D704D708D70CD700D714D710021DFF8C0051180466BDFF8BC157078087060
:2008FC003278DFF8B8151A70B0780870B2681079DFF8AC25411E1170F078DFF8A815DFF866
:20091C00A8250870F068106008B90EF02DFF3069DFF89845206008B90EF026FF2068DFF8B3
:20093C00907501688847226852F8041F38468847DFF88005DFF88015386279627069DFF82D
:20095C007C15086008B90EF00FFFB069DFF87015086008B90EF008FFF069DFF868150860FD
:20097C0008B90EF001FFDFF860B5DFF860659BF804000FF00FFA306008B900F0BEB99BF82A
:20099C000500DFF84C750FF005FA386008B93068B0E19BF80600DFF83C450FF0FBF92060BA
:2009BC0020B930680FF006FA3868A3E19BF80700DFF824950FF0EEF9C9F8000038B930682D
:2009DC000FF0F8F938680FF0F5F9206892E1DFF8B8140A789BF80000DFF800A5921C50430E
:2009FC0080B20FF0D7F9CAF8080058B930680FF0E1F938680FF0DEF920680FF0DBF9D9F8EC
:200A1C00000077E1DFF880040078002800F08F81BBF80210DFF8C8B4484380B20FF0BAF9E0
:200A3C00CBF8040078B930680FF0C4F938680FF0C1F920680FF0BEF9D9F800000FF0BAF934
:200A5C00DAF8080056E1DFF8400400780FF0A2F9DFF89014086080B930680FF0ABF9386845
:200A7C000FF0A8F9D9F800000FF0A4F9DAF808000FF0A0F9DBF804003CE1DFF80C04007888
:200A9C0040000FF087F9DFF860140860A0B930680FF090F938680FF08DF9D9F800000FF05A
:200ABC0089F9DAF808000FF085F9DBF804000FF081F9DFF830041CE1DFF8CC030078182192
:200ADC0048430FF067F9DFF824241060E0B930680FF070F938680FF06DF920680FF06AF9F9
:200AFC00D9F800000FF066F9DAF808000FF062F9DBF804000FF05EF9DFF8E80300680FF021
:200B1C0059F9DFF8E403F4E0DFF87C03007840010FF040F9DFF8D813086008BB30680FF00A
:200B3C0049F938680FF046F920680FF043F9D9F800000FF03FF9DAF808000FF03BF9DBF8CE
:200B5C0004000FF037F9DFF89C0300680FF032F9DFF8980300680FF02DF9DFF88C03C8E031
:200B7C00C948007800010FF015F9DFF88813086010BB30680FF01EF938680FF01BF9206834
:200B9C000FF018F9D9F800000FF014F9DAF808000FF010F9DBF804000FF00CF9D14800680E
:200BBC000FF008F9D04800680FF004F9CF4800680FF000F9CE489CE0B348007800010FF021
:200BDC00E9F8CD49086030BB30680FF0F3F838680FF0F0F820680FF0EDF8D9F800000FF06A
:200BFC00E9F8DAF808000FF0E5F8DBF804000FF0E1F8BC4800680FF0DDF8BB4800680FF0E9
:200C1C00D9F8BA4800680FF0D5F8B94800680FF0D1F8B8486DE09C480078302148430FF0FC
:200C3C00B9F8B64A002810602AD130680FF0C2F838680FF0BFF820680FF0BCF8D9F80000A1
:200C5C000FF0B8F8DAF808000FF0B4F8DBF804000FF0B0F8A34800680FF0ACF8A24800687E
:200C7C000FF0A8F8A14800680FF0A4F8A04800680FF0A0F89F4800680FF09CF89E4838E006
:200C9C009F48814A0078117848430FF083F89D4A0028106036D130680FF08CF838680FF040
:200CBC0089F820680FF086F8D9F800000FF082F8DAF808000FF07EF8DBF804000FF07AF8B1
:200CDC00884800680FF076F8874800680FF072F8864800680FF06EF8854800680FF06AF882
:200CFC00844800680FF066F8834800680FF062F8824800680FF05EF800200EF035FD4FF4A1
:200D1C008041AAE04FF0000ADFF87C9109E00FF019F80021418081600180022303710AF16E
:200D3C00010A99F800105FFA8AF08842EFD332680120107131680D733068457331688D734E
:200D5C003068C57331680D7400213068457400203268D172A0223168487103213068C2800C
:200D7C0001720720326850720021306881722821306801224182C27600203168487700221C
:200D9C00306880F85E20012132681177012031684B4E81F85D0001223868027139680D73E5
:200DBC003868457339688D733868C57339680D7400213868457400203A68D17200223968E2
:200DDC004871386882724FF420703968C88008818A7401213B68D9742268157321684D73FA
:200DFC00226895732168CD7322681574002221684D7401212368DA7200232268117121684C
:200E1C004B712168C88008818B7205202268937421683D4AC874106880473168054608680E
:200E3C008047316851F8042F0020904719481D4BC16818780A88354902430A802846344A76
:200E5C00136898470C21334800F066F8104800F067F800F069F84FF4005198F80000BDE865
:200E7C00F44F08F0C3BC00BF6E4F0020044F0020B63F0050604E0020084F00202C4E002069
:200E9C00E81200503C4E00207B4F00200C4F0020344E0020D01701006D4F00206B4F00209D
:200EBC00724F00206C4F0020F04E0020F44E00207C4B0020B1FD0000D1FD0000F84E0020D1
:200EDC00FC4E00204C240020D81B0020104F0020144F0020184F00201C4F00205825002038
:200EFC00684E0020004F002084250020804E0020844E0020884E00208C4E0020904E0020FA
:200F1C00B21C002088250020E4150020544F0020E8150020F84D0020DFF800F0E57101106E
:200F3C00DFF800F01D6E0110DFF800F04D7101102DE9F0410E462A4990461C4606AF8C46CF
:200F5C0072680878BB8851783F881278002502EB012242F62321521A2AD0521E052A19D916
:200F7C00921F0DD0263A35D1072F31D8C7F10700984298BF83B20CEB070000F1080121E004
:200F9C00B84225DBC01B9842D8BF83B22380DCF804100BE0F0680EF039FE80B2B84217DB99
:200FBC00C01B9842D8BF83B22380F168C9190AE0082F0DD8C7F10800984298BF83B20CEB93
:200FDC0007010F31238040461A4609F0B9FB03E0072501E025800A252846BDE8F081C04629
:040FFC00C00F002002
:20100000B41200001810000015AB0110FDB301106DC00110FDAE011099B5011000000000F7
:08102000000000002D0000009B
:20102800B01200003C100000B1C00110A9BF011067C0011069B80110000000000000000035
:041048003000000074
:20104C00B012000060100000BDC00110CDB30110D9BD01106DB3011000000000000000005B
:04106C00310000004F
:20107000000000001C1C002004000000000000000000000020000000E8C9011030000000F2
:2010900028100000241C00200400000000000000000000000C000000D8CA011018000000CD
:2010B0004C1000002C1C002004000000000000000000000024000000F0CA01101800000051
:2010D00000000000341C00200400000000000000000000001000000018CA01102C0000005D
:2010F00000100000441C0020040000000000000000000000200000006CCA011024000000C1
:20111000FFFFFFFF4C1C00200400000000000000000000002800000090CA01102400000080
:20113000FFFFFFFF541C00200400000000000000000000001400000008CB011018000000FF
:20115000FFFFFFFF5C1C002004000000000000000000000058000000B4C9011034000000CD
:20117000FFFFFFFF641C00200400000000000000000000001000000020CB0110180000009B
:20119000FFFFFFFF6C1C00200400000000000000000000001C000000B4CA011024000000C8
:2011B000FFFFFFFF741C00200400000000000000000000003800000044CA011028000000F0
:2011D000FFFFFFFF7C1C00200400000000000000000000005400000078C901103C00000065
:0811F00002000000701701006D
:0411F80001000000F2
:0411FC0000000E00E1
:0412000000000F00DB
:0412040032000000B4
:0412080001000000E1
:04120C00701B002033
:0412100000020000D8
:0412140000000000D6
:0412180001C90110F7
:04121C0000000000CE
:0412200000000000CA
:0412240008000000BE
:0412280000002200A0
:04122C00C0190020C5
:0412300000000000BA
:0412340000000000B6
:0412380008000000AA
:04123C00301B002043
:0412400000000000AA
:0412440000000000A6
:04124800080000009A
:04124C00000000009E
:04125000000000009A
:041254000000000096
:041258000000000092
:04125C00010000008D
:04126000581A0020F8
:041264000600000080
:041268000100000081
:04126C00F018002056
:04127000000000007A
:041274000000000076
:041278000002000070
:04127C00000000006E
:02128000290043
:02128200010069
:02128400250043
:02128600300036
:02128800310033
:02128A002D0035
:02128C0001005F
:01128E00015E
:08129000030000003417010007
:0812980000000000000000004E
:0412A0000000010049
:0412A4000000030043
:0412A80013C401105A
:0412AC000BFB000038
:0412B000B812000070
:0412B400B81200006C
:0412B8000000000032
:0412BC00E41B00200F
:0412C000AFFC00007F
:0412C4002000000006
:0412C8007C1601008F
:0412CC0068150100A0
:0412D00029C101101F
:0412D400CFE4000063
:0412D80043E80000E7
:0412DC00A1C7011095
:0412E000A3C701108F
:0412E4000000000006
:0412E800B715010035
:0412EC00501201009B
:0412F000681201007F
:0412F40038120100AB
:0212F8000200F2
:0212FA000900E9
:0212FC000100EF
:0212FE000000EE
:0113000001EB
:041304003DFC0000AC
:0413080061E400009C
:04130C0091F200005A
:04131000A9E7000049
:0413140099E4000058
:0413180045D80000B4
:04131C00E5B1000037
:04132000D5FE0000F6
:0413240019CD0000DF
:0413280015C70110D4
:04132C0025C70110C0
:201330002DE9F04F914C04F108012046ADF1940D0CF044F80FF2741A00200746009040F2D2
:20135000DF110197012202975CA303975046049708F0D6FE04F1480528463946E7610FF02D
:20137000FBF904F1600004F16C01E56009F062F8A06170B90097384601904FF4F87102900C
:20139000032203905DA30490504608F0B9FE0FF0DFF904F1540004F1780109F04BF8606121
:2013B00078B90097384601904FF4FB710290032203905BA30490504608F0A2FE0FF0C8F9CD
:2013D00060696B490EF09DFD70B10097384601904FF4FE7102900322039059A304905046FF
:2013F00008F08EFE0FF0B4F905A83946242208230FF0AAF9604E4FF47A7832250D20DFF830
:20141000749132680B9005AB04F1E000B8FBF2F18AB26A4349460FF093F90E2031680B9002
:2014300005AB04F58270B8FBF1F189B24D432A4649460FF085F90125ADF83C7040F2053047
:201450000DF18E028DF88E50294602F03FFA40F2063002210FAA02F039FA621C4FF4427015
:20147000294602F033FA04F1940240F20730142102F02CFA04F1BD00394620220AF00CFB19
:2014900004F1940604F1BD083846325C401CC0B231180B78092B18BF082B01D11F2A6DDBAC
:2014B0008018C0B22028F0DB6DE0C04670726F6A6563745F7A65726F2E6300C0496E6974B1
:2014D00069616C697A696E67207468652075736572207461736B2C206861726477617265F8
:2014F0002C20424C4520737461636B20616E642073657276696365732E00C0464572726FE4
:201510007220696E697469616C697A696E6720626F617264204C45442070696E7300C04621
:201530004572726F7220696E697469616C697A696E6720627574746F6E2070696E7300C010
:201550004572726F72207265676973746572696E6720627574746F6E2063616C6C62616310
:201570006B2066756E6374696F6E00C0C007002029A9000035B80000A8170100491C521E6F
:20159000404609F0E3F8CDF800803E460197504640F22E2102962A460396C6A3049608F0CD
:2015B000AFFDC24F10200622A023394605F09CFA10200722A023394605F096FA10200822BF
:2015D000A023394605F090FA10200922A023394605F08AFA10202A461E23394605F084FA51
:2015F0008DF88F500EAF8DF8905028468DF892004FF481620E9604238DF89160AC4D0097D9
:201610001020294605F070FA0DF18F004FF48062012300902946102005F066FA24A840F264
:201630000242012300902946102005F05DFA0DF191000090294640F203420123102005F069
:2016500053FA0DF19200294640F2064201230090102005F049FAC34910204FF0FF3205F0F7
:2016700043FAC14910204FF0FF3205F03DFA1027DFF8F892BE48BF4A0097132349460190B3
:20169000384605F031FA04F1A80032461523BA490090384605F028FABB46B948B74FCDF85A
:2016B00000B005234946019007F10C02584605F01BFAB0463546052000908CA30195D82190
:2016D00002950122039585A0CDF8108008F018FDAC4E94F800A0307880000EF0FEFCAA4DE4
:2016F0000146E96039B34FF6FF700CF0E9FE307880000EF0F2FC01462961E1B14FF6FF709C
:201710000CF0DEFEA149584605F11402009007230191494605F0E8F9474607200090FE2139
:2017300001970122029771A3039779A0049708F0E7FC85F800A03078277880000EF0CDFC5D
:20175000934E0FF2E0190146F160D9B14FF6FF700CF0B6FE584600908E490191834906F1BE
:201770004C02062305F0C0F90620009040460190EB210290012203905CA30490484608F0FA
:20179000BFFC37707D4904F13000474688600FF2A41800900122019743460297E7210397AB
:2017B0004EA0049708F0ACFC04F13800A8603D46009040F20F1101950122029543460395E5
:2017D00053A0049508F09CFC04F14000B060FC210090012201953E46029643460396484666
:2017F000049608F08DFC0DF13E00282239460AF053F969490DF16600282208F0A7FF012153
:201810000DF13E02384606F013F901200DF13E02014606F00DF9384601210DF13E0203F087
:20183000CDFE01200DF13E02014603F0C7FE384628210DF1660203F0ADFB012014210DF153
:201850003E0203F0A7FB554D69782878A1B904F1200129620DF0F8F905F154070096024668
:2018700005F14400019005F11C0302974C490393AB78584605F038F94A4904F1280258467D
:2018900005F032F920780DF0DFF947490246584605F02AF920780DF0D7F944490246584645
:2018B00005F022F925B0BDE8F08FC046D9E600002D4900004E616D6520696E20616476659C
:2018D0007274446174612061727261793A201B5B33336D25731B5B306D00C0466C65645F71
:2018F000736572766963652E6300C0465265676973746572656420736572766963652C20E5
:201910002564206174747269627574657300C046627574746F6E5F736572766963652E6344
:2019300000C046C0646174615F736572766963652E6300C052656769737465726564206305
:20195000616C6C6261636B7320746F206170706C69636174696F6E2E205374727563742090
:20197000257000C095F100001DF40000E5ED00001C17010064100020B5B50000E817002048
:2019900048140100694F002078160020C413010030150020F013010099130100800C0020BA
:2019B0007BDB000051F6000051880110318101102DE9F04FD44C04F118012046ADF1340D05
:2019D0000BF0FCFC00264FF6FF7066700121208204F1A4000CF010FE022104F1C8000CF011
:2019F0000BFE042104F1EC000CF006FE4FF0040A04F1440810224046314684F802A00AF0F3
:201A10004BF804F154091022484631460AF044F804F11C073E6004F10A052E70E67126726D
:201A300007206072CDF80080DFF8F882022210200346414605F058F8102003224146CDF8FD
:201A50000090034605F050F81020524641460097134605F049F84FF0080B4FF0030905F158
:201A70002A00079005F17900089005F11E00099005F15A000A9024350B9517E06078A28FFE
:201A9000E18FB4F84050B4F8423006280ED1ADF80A20ADF80C10ADF80E50B948ADF81030E6
:201AB0000EF02FFB012002A909F0F6FCA069B34A31464FF0FF33FEF7A5FE071CF6D005962D
:201AD00006A80DF11A0105AA0CF09AFE002840F0BD81BDF818102078102940F0B3819DF8AF
:201AF0001A10884240F0AE81059D29884FF6FF728A4200F09C812B78A23B00F07F812E3BC8
:201B100040F0A081A978B046002900F03B81891E00F00A81491E012940F2D980891E00F0A3
:201B30009C80491E6FD0491E5CD0083900F05681891E40F0598194F83A30A888052BADF88C
:201B5000080047D001208DF812008D480EF0D9FA94F83A0001281ED004281CD003280DD0FB
:201B700002280BD00598C188ADF80A100189ADF80C104189ADF80E10818927E0A08FE58F1F
:201B9000ADF80A00B4F84030ADF80C50B4F84210ADF80E301AE0A08FE9888842D8BF081C69
:201BB000ADF80A002989E08F8842D8BF081CADF80C006989B4F840008842D8BF081CADF807
:201BD0000E00A989B4F84200884200DC0846ADF8100001E08DF81260A849102002AA04F085
:201BF00083FF01E1A6480EF08CFA6B78002B40F0FB80E88860822889A0826889E082604826
:201C10000EF09EF8F0E0AA88B449102004F06CFF07984146062209F03FFF6682A682E68295
:201C3000A879207356480EF06CFA95480EF069FA4FF001084FF6FF702379208253B9A87939
:201C5000082812BF84F801A00520607040460EF09FF8C9E084F80190C6E06B787BBB291D8B
:201C700007980A680260898881800623637068892082E8896082288AA082688AE082E87865
:201C9000E07294F83A00012818BF02280BD1994910201F2204F028FF4FF47A7180B24143C4
:201CB00037480CF0D9FA688900909149CDF804A0EA7810202D1D2B4604F016FF97E0687855
:201CD000312840F08880E67084F801A08FE06B78002B40F08080A878E3896178032815D0CE
:201CF000E078257923B9012814BF2671E67006E0054304D0804819460CF0AEFA6178072943
:201D1000E2D10620607072E0800C0020062907D0E578002D08BF84F8019068D00220F1E776
:201D30000720EFE713F600006B78002B53D1EB78617893B902291DD007291BD0062902D19E
:201D50002079012816D1032914D06B480DF0F8FF80B901200EF01CF80CE00CF075FF024603
:201D7000A07962490090089843460190102004F0BBFE68706D78002D2DD135E007000080E4
:201D9000480D00206B7833BB5C485749009002221020034604F0A8FE59484A465249009086
:201DB0001020034604F0A0FEED1C099829680160A98801238180207863700CF045FF024623
:201DD00001230A9D6079494900901020019504F08BFEC0B258B184F801B008E0AA8841499E
:201DF0001020052304F080FEB8F1010F2AD1256A45B32D6835B36078A84723E0687913286B
:201E100020D12889012808D1607B022805D11C480EF077F90CF026FD14E036491020052278
:201E300004F062FE81B216480CF016FA0AE06888C00B07D3334852462B4900901346102082
:201E500004F052FE059808B10EF00DF92579E078790830D355EA00032DD0204600788DB9F7
:201E7000E179257A8DF808100B9A8DF8095013680DF10A052B609288AA8005E005160110D1
:201E90006C0D00208DF80890617A8DF81010A17A8DF811100CF0D8FE1149024602AB1020EA
:201EB00004F022FE38B1256A84F801B01DB12D680DB15846A847B80803D31349304609F04A
:201ED000EBFAF808FFF4F2AD607B401E3FF4D6AD401E7FF4EBAD0CF0C5FCE7E57DD300004A
:201EF00059440110C1170110B5870000094501108D8A000055F90000240D0020C40C0020FA
:201F1000D40C00209C0C0020BA0C00202DE9F04F0F46CD4C0168E16241688068ADF11C0D3C
:201F3000E060C548A1608047C448E16A0160A168DFF810A34160E168DFF804938160CE49E1
:201F5000002FA346C1606FD03D68E8788DF80C0028798DF80D0003A80EF0EEFBA86808B1D5
:201F7000C6490160E86808B1C5490160C54C287820706878BE686070A878B268A07031785F
:201F9000A2607368E1702E696360EA6926627968E2620868E06068696062A8697B68A06270
:201FB000286A9E68206395F8240084F834001EB900200DF0DFFB00E066617868C06818B947
:201FD00000200DF0D7FB00E0A0617868006918B900200DF0CFFB00E0E0617868406818B9A6
:201FF00000200DF0C7FB00E0206128692062F86881680E6806B9D24ED0494FF001084E60D1
:20201000C66881F8018036B900200DF0B3FB4D462E68F86801E04D462E6000685446FB68DE
:20203000A0615868E06107E000200DF0A3FB4D462E684FF001085446361DC749366804F1EB
:20205000080350205246B04710B1286880688047DBF808008047C24E002781463B46BF483E
:202070007770694660610422337038460CF012FC0098B0F5801F0CD020B90CF0EDFE06F03A
:202090007DF908E00BF0C8FC0DF0BCFD0420708001E00CF0E1FE3846BA4EE0602B68B7601D
:2020B000986980477060AF4880F800803946418014200DF075FEFF211422A0620EF029F82E
:2020D000E01CFF2102220EF024F814200DF068FEA54F38603868002114220EF01AF800204C
:2020F000FEF7A0FB40460BF075FFA0480188FF2906D1022101807822001D00210EF009F860
:2021100003200EF015FB04200EF00EFB05200EF007FB06200EF000FB07200AF0C7FD944E48
:202130000820307006F124000EF0F2FA0AF07CFF06F1360A05200A2152460DF062FA38B1EC
:202150000020C0F10901401C0AF8011B0A28F8DB3078102107F050FB2B68864909200DF171
:202170000E025E68087001AB10200021B047A06ADBF80C10E2690A260A309DF80E30761EF8
:2021900000F8013BF9D1921E4846E261884704F120002B68626A059040461E69DFF8D8819B
:2021B00004F120034146B04710B1286880688047B8460CF073FF5FEA000903D008F09EFE54
:2021D0004FF0FF39002643E00298616910F8062CA0F10C07032A03D1002939D0884737E0D4
:2021F000A16A9DF810C00A223046491E11F8013F9C4506D0521E00F10100F7D14FF0FF0AE4
:2022100001E05FFA80FA2868BAF1FF0F00F108001CD038790CF0C8F8B979012904D0022904
:2022300004BF0299887001E002990870029950460DF03CF90CE0C04641490010F8440020F9
:20225000941C0020B81A0020DC150020006880472868C36904A902AA0DF10F009847002843
:20227000B2D0D8F800007700C35B6BB9761CF6B20A2EF8DB2BE0C046700701008DED0000FB
:2022900025F90000881900200A2E20DADBF808008047D8F80010002231F807A0CA53DBF8B9
:2022B0000C108847354850F8262066705146304690470646FF206070DBF808008047D8F8B1
:2022D00000107A5A16437E52DBF80C1088470CF0E5FE0746B9451AD0DBF8080007B9284FFD
:2022F000E169B94238BF0F1C804781462868016A206A8847626A28681F49059B521C6262EF
:20231000C6683846B047DBF80C1048468847E7682968A0681431AFB9D8F800000A27002602
:20233000835B33B10969A06888472968D8F8000014317F1E06F10206F2D107E0FC1B00205F
:202350005FC10000096988472968143109684FF0FF3088472DE7C04625F200009DF90000C1
:202370003C1900208C1C002098250020FC16002094110020AA250020F1E30000F014010074
:202390008EC2F5284C2500202DE9F84FD74CA178FF2904BF00200DF0EDF9A0780DF00AFC8D
:2023B000044604F1680504F190062968086810B10021E1830CE0A87B002804BFA97E002945
:2023D00006D13078002801BF207F0128608CE0832189E08B4118491C618120460EF094F9C9
:2023F00001281EBFC2480178012904D121890020491CE08361814FF6FF77A87E01280DD1E9
:20241000AA8B618920890EF07BF938B1218960894A1C93B298421BD0A88B0FE03078012893
:2024300016D17288618920890EF06AF980B1218960894A1C93B298420AD0708892B2904286
:2024500006D03818608180B20EF056F93F18E78304F5967999F8040020B120890021401C91
:20247000E183608104F12E07A87E01283ED12289A88B521C92B2904238D1608104F18601B7
:2024900020460EF035F9A88C608400212177E183E08961894118A181A88B21890EF02CF997
:2024B0008046B988288C6A8C01FB0808E88C8A4204BF3989884202BFAB8CF9888B4207D0A3
:2024D00000090090AB8CA179520800200EF00CF9A87F3870698CB980A88CF8802046E98C01
:2024F00039810EF0FDF80220A87601E0B7F80480B4F81EC022687F4ED2F80CE00CF1010036
:2025100000FB08F340F6C41000FB03F18E44C2F80CE03668DFF8E0E13678BEF80080774A69
:20253000B609032E11D1D67BF60748BF4FF000080BD408F101081FFA88F6012E12BF668AB5
:20255000B9F8066006F2DC5600E0668A5E434FF4C87AB6FBFAF6761C6661AEF80080A36110
:202570004FF0180894F806A084F820C008FB0AFADFF88CC1DCF800E023680EF1080656F899
:202590000AB0C3F810B094F806A008FB0AFACDF800A0D3F80CB0D4F814A0ABEB0A0ADDF8D2
:2025B00000B046F80BA094F806A008FB0AFA56F80A609E600EF10C06A37908FB03F30EF15E
:2025D0000C0EF65C06F0F00646F002060EF803604FF0000ADCF800E0A6790EF1020308FBC9
:2025F00006F623F806A0474BA6791B68760103F1140AD4F814B05AF806A00AEB4B0A03F18B
:20261000140B4BF806A0AD7E022D0BD1A5796D0103F1140697F800B056F805A000FB0BAAF0
:2026300046F805A0BD88D27BA779D60737D508FB07F70EF10802D659A6F5A86A0EF1080619
:2026500046F807A0A77908FB07F7D2592768511A3961BA6003F11402A1794901575807F572
:20267000F667575003F11401A27952018958C9F800106843244A156BA779296803F11C06BD
:202690007F01401AA0F51670F0512049A07903EB40100B78012B14D10121C17214E003F163
:2026B00014027F01D1592A464243A1F5E661A2F516729142DDD3082120460EF00DF8012023
:2026D00011E0916A4A78C272A179DCF8000008FB01F281182268516007200D4908702046F5
:2026F0000AF04EF80020BDE8F28F00BF684E0020784F0020084F0020A02500205C4D0020A3
:20271000804E0020844E0020D0170100734F00206F4F00202DE9F84F0C46E00788B00BD573
:202730000DF026FB28B100218160B348006800B1804784F001005CE1A0070FD50021002334
:20275000069105910491039302910191009101223C200DF0BDFF84F002004AE11D256007D9
:20277000A64EA74F40F18A80002107918B46A5488178FF2904BF00200CF0FCFF386890F88A
:20279000A0000DF017FA80463868C07A98F82691022818BF032808F5907A06D106F10D0086
:2027B0000DF092FF08B906F1070B514648460DF087FF88B33868807A002818BF012804D137
:2027D000314650460DF078FF04E05246494630460DF06EFFFF2834D005FB00F906EB09055A
:2027F00006225146E81D0DF0E9F816F80900396840F00209E81D07900622887E00F0010079
:2028100088F8260105F1010A386800F1140108F590700DF0D3F814E0514648460DF044FF3C
:2028300078B15246494630460DF042FFFF2808D006F10D01454348190DF046FF08B949F05B
:20285000020908F12C004B46017806914289120905920122B8F822100491C0880799029105
:2028700040080390CDF804B0CDF800A0002098F806100DF02DFF84F00400BAE020060FD584
:2028900000210023069105910491039302910191009101223B200DF01BFF84F08000A8E0C5
:2028B000E0044BD5F11D06F10D000DF0F9FE3868017A012918BF042931D1C17A02291EBF70
:2028D0000329817E01292AD1817E00F1140230460DF0EEFEFF2811D04543354405F10D0027
:2028F0000DF0F2FE50B9E91D05F10D000DF0D8FE38680622E91D14300DF060F83868C07AB5
:20291000022818BF03280AD106F10D000DF0DCFE28B938680622F11D0C300DF04FF83A480C
:2029300042683A4800784FF480510BF097F810B18E2008F0B5FF84F480505AE0A00505D529
:202950000DF0CDFA324901200860FEE7600504D506F04BFB84F480604BE0600405D58120DE
:2029700008F09EFF84F4804043E0A10440D5294D286810B100200CF0FDFE274E4FF0FF30DC
:2029900028600DF089FE3168244D51F8202F684690472349234B486A8A6A009001920293BC
:2029B000C86A0268086A0392ADF810000A6B1178002904BF5068002805D19068002804BF2C
:2029D000D068002806D02970506868609168A960D068E86029463568134A2E6813486B460B
:2029F000B0471349086004F047F984F4005000E0002009B0BDE8F08F204F0020AC45002093
:202A1000104F0020684E0020784E00206E4F0020FC002043044F0020F04E00206845002091
:202A30008819002071FD00002C4D002050240020EC4E00202DE9F04F09AFADF13C0D089044
:202A50000A92388809911E46ADF81800101C08BF002000F07581017800274FF0010B401C0F
:202A70004FF0FF39B846DA460A9061E1252940F056810178401C0A902D2918BFADF80680B9
:202A900004D10178ADF806B0401C0A9030291CBF4246434604D10178401C5A465B460A90BD
:202AB0002A29CDF800804D4617D1049330680A9BCDF80890C01C20F00300001D306050F8DE
:202AD000044C1978002C009403F101000A9018D5ADF806A06442009413E044460AE060007D
:202AF00000EBC4004018A0F130040A9801780094401C0A90302901DB3A29F0DBCDF8089095
:202B100004932E2929D10178401C2A290A9011D13168CDF80880C91C21F00301091D316082
:202B300051F8045C002D48BF454601782B46401C0A9011E0454643460AE0680000EBC50036
:202B50004018A0F130050A9801782B46401C0A90302901DB3A29F0DB02930AB12246049214
:202B70006C2904D04C2918BFADF8048004D10178ADF804A0401C0A900BA8CDF80C800FAB1C
:202B900007906429059300F0828069297FD0BDF818C075296DD0782969D06F2965D07029EE
:202BB0004ED063293ED0732922D00A98401E0A90099801281AD966490C68B5F1FF3F03D08E
:202BD000A84288BF6D1C05D86FF00041814294BF0D1C099D029508A80AA932466B46A047BF
:202BF00009993F18091A0398099165E0454617E03068C01C20F00300001D306050F8040C21
:202C1000BCF1010F014608B94FA0014607910DF003F80390B5F1FF3F4FD0A8424DD90395DB
:202C300028464AE03068C01C20F00300001D306010F8040C8DF82C005D46039558463CE0FA
:202C5000082035680490E81C20F00300001D306050F8041C082210230FA809F041FA401E39
:202C7000079040210170079823E0082302E0102300E00A233068C01C20F00300001D3060B8
:202C900050F8041CAA42BCBF2A1C04920DE03068C01C20F00300001D306050F8041CAA4204
:202CB000BCBF2A1C04926FF009030FA809F018FA07900599081A0390009C241ABDF80650B1
:202CD00000945DB906E008A8202109AA0CF031F97F1C009C641E0094F5D50398401EB0F1D9
:202CF000FF3F03900FD1BDF8060001281CD10098401E009018D408A8202109AA0CF019F91E
:202D100000987F1CF4E70798017809AA08A80CF010F90798401C079003987F1CDEE708A8D8
:202D300009AA0CF006F97F1C0A980178401C0A9000297FF49BAE089808B141460170384675
:202D50000FB0BDE8F08FC046286E756C6C2900C0B4170100BB482DE9F84F0025BA4CB84956
:202D7000056094F8E200002800F06581012800F02F81B64E02283CD0032840F05C8151F8EE
:202D9000250CD4F8B8100029A0F5C060C4F8D400B8BF49420028B8BF4042814226DA4FF0CB
:202DB0008057D7F8A4014568B4F8BC0030214FF47F42082300903046A847D7F8A40145680D
:202DD000B4F8C00004214FF4F802122300903046A847D7F8A401B4F8D070456820214FF45A
:202DF00040620A2330460097A847012584F8D8501CE151F8258C0DF072F82F4600B901277A
:202E10003946934F38680028FCD0B146012609F10409D9F82CA03E6009B10DF066F8CAF37B
:202E30000720C4F8BC000DF05AF8AA4600B9B2463B68002BFCD0D9F800B0BAF1000F3E6080
:202E500001D00DF052F8CBF38440C4F8C0000DF046F8AA4600B9B2463B68002BFCD0D9F805
:202E70001C90BAF1000F3E6001D00DF03EF8C9F38120C4F8D000B8F5C061C4F8B81000F00F
:202E90009C8094F8D80068B9C4F8D410D4F8C000C4F8C800D4F8BC70C4F8C470D4F8D0301D
:202EB000C4F8CC30D4F8D400D4F8BC30002854BF02226FF0010204F1C8010F6800EB4000D1
:202ED0008018421000EB927207EBA2000860D4F8C810C4F8C43000291CDD1E293CDDD4F86B
:202EF000CC0030B93429B4BF15391E21C4F8C81025E02A29BABFD4F8C8000B381E20C4F87A
:202F1000C800D4F8C4003F28B4BF401C3F20C4F8C4001FE0D4F8CC00032812D011F10B0F74
:202F3000C6BFD4F8C8000B30301CC4F8C800D4F8C4000028C4BF401E051CC4F8C4500325AB
:202F500008E011F1150FC6BFD4F8C8001530301CC4F8C800C4F8CC504FF08057D7F8A401C3
:202F7000B4F8C43030214FF47F424568374800930823A847D7F8A40104214FF40032112331
:202F9000456832480096A847B4F8C860D7F8A40104214FF4F802122345682C480096A847F0
:202FB000D7F8A40120214FF440620A23B4F8CC60456826480096A84701E084F8D85040F20B
:202FD000FF50404502D8801C40452FD2082030E051F8251C1F4F4BF2F5204843060A386854
:202FF000C0F3814001280CD11B480068006880470AF05AFF0CF07FFF3111C010484306EBF2
:20301000E03694F8E50030B91448006820F07F403618760801E084F8E5501148310C066043
:20303000012741600F4D8760287808B90B2000E0052084F8E40003F0C7FBBDE8F88FC0469C
:203050002D400C402C500C401C14002000A00C4000800C40B43F0050EC010010102009401E
:203070003C600C40611601002DE9F84FB34D696884B0019121B905B0BDE8F04F0DF008BBB9
:203090000978DFF8BC82AF4EDFF8BC92DFF8BCA201291CBF0229042946F2A81741F64C5B01
:2030B00005D0402918BF802900F096803CE10CF053FF0028FAD00198007804F01DFF00902E
:2030D000446814B900200CF055FB9AF8010000285CD000F0ADFF0CF06DFD0290016800987F
:2030F00001914F6809F042F9022825D000990A78012ADBD196490A68137A19F8031031708F
:2031100018B90DF0C1FA5844A0602069C17E01F0EF01C1762069C17E41F08001C176206960
:20313000C17E01F0F00141F00201C1762269B96888484118D1614BE001980178802911D124
:203150000820854930700A78012A03D09AF80100022801DB38690CE0D8F828003A6901780F
:20317000D1720DE07C49072030700A783869012A02D10121C17203E0D8F828104A78C2722C
:203190000298817901988AF80210C8E0009800288CD00199009A0078914205D101281CBF41
:2031B00000200CF0E7FA15E0012840F0BD80684801680A7A19F8020030700DF065FA39187A
:2031D000A0680DF05DFA18B90DF05EFA5844A0600120A8700098A2E09AF8010000287AD069
:2031F00000F026FF0CF0E6FC04462068029047689AF802000CF0DEFC03900CF0B3FE10F00F
:20321000070F3DD0A87804F077FE0190416801980091029909F0AAF8022831D001990A7811
:20323000012A2AD14A490A68137A19F80310317028B90DF029FA83440098C0F808B0009899
:203250000069C17E01F0EF01C17600980069C17E41F08001C17600980069C17E01F0F00153
:2032700041F00201C176009AB9683A4841181069C16101210198A97051E000200CF07AFA0D
:203290000398A04225D0029833490278802A12D1082030700978012903D09AF8010002288C
:2032B00003DB38690121C17210E0D8F828003A690178D1720AE007203070097838690129E6
:2032D0000EBF0122D8F828104A78C272A0798AF80200029823E00CF045FE10F0070F29D068
:2032F000A87804F009FE04462078D4F80480012820D117490868027A19F8021031700DF04A
:20331000C3F93918D8F808000DF0BAF920B90DF0BBF95844C8F808000120A870204605B0C6
:20333000BDE8F04F06F026BB05B0BDE8F04F00200CF020BA05B0BDE8F08F00BF58250020FE
:20335000D01701006F4F0020289A0110684E0020104F0020F0D8FFFF734F00202DE9F84F6A
:20337000DFF8B8A20F460446F80B80F00B81A64EDFF88882B80F80F0BC80B80880F0B080C6
:203390003809C0F0318108200CF0CEFD002840F0A28080200CF0C8FD002840F09C8068468E
:2033B00007F038F9012803D10098002800F0938091480078002840F08E8000250124E8B27A
:2033D0000CF0EEFB48B1837A3BB1847290F9090004FA00F0C0B20AF023FF6D1C032DEED398
:2033F00045464FF0030905F1AC0085F810900CF064FE8348002301680360824950F8082CC9
:2034100098461A4640F8088C05F134000CF061FE3068006B8047A968401A010BA869C1F109
:20343000FF3282422CBF08444FF0FF30A861287F20B1E868A969B1EBC02F1ED90BF0B6FFCD
:20345000414600B12146081C14D0704840F60901018041464180427B64F303024273027BA9
:2034700061F30302027341600CF05AFC418811F4406FFBD02C774146A9616548016821F0D8
:20349000020141F400710160624941F8049C41F230028A600C6050268E600C604FF4CA6294
:2034B0008A600C6041F80C4C4446046002200BF06FF8112006F000FA287818B968683830D9
:2034D0000CF013FE687F18B16C7705200BF060F8514868612C7409F045FA27F0080783E001
:2034F00005F054FA45467435286808B927F002077AE00CF0E8FDB3468146DBF85400016849
:2035100004208847D8B1207CC8B1454608352868A8B10646DBF80000E568006B8047801B20
:20353000E060000BE060A84202D240194008E06040F6C41181422CBFB0F5FA7FE1604846AB
:203550000DF09AF80AF050FE90B1A56920466FF4807100224FF00073A847464606F16C05C4
:203570002868002808BF47F0020701D009F0FAF92046646900214FF080630A46A04727F0FB
:20359000005731E00CF09FFD51460E6846B306F1280106C90A234FF0E0450B40154008BF2E
:2035B000002B1DD106F1280191E8300006F1280393E8060006F12803AA43A14383E8060012
:2035D0000DF05AF8B16869B1002D08BF002C09D030692246B6F93C10B4682B46A04701E00F
:2035F0000DF04AF827F4804727B15046394650300CF083FDBDE8F88F511E0020B81C002002
:203610001410044061CC00008C01001014250020000004600C41044049970000381D0020C5
:203630002DE9F04FDFF8A0B2804609AFFF200E461C460025ADF1240D97F8049007903F8834
:2036500030780592022805D17068008842F60211814273D0304609F039FE5EA3069018B362
:20367000401E0ED028460090019040F2262102900322039050A304904BA006F041FD0A20DC
:203690008FE065A00090CDF8048040F2212102940122039744A0CDF8109006F031FD5946FA
:2036B000142001F1040911E05DA00090CDF8048040F213210294012203973BA0CDF8109007
:2036D00006F01EFD5946282001F10209B84214DD07EB040A50450ADBF06805992246C01949
:2036F00007F034F8A9F800A00698079013E0284640F231214CA30D2504E028464FF40B710A
:2037100052A3072500900190029003900322049025A006F0F5FC0798FF280DD0DBF808004F
:2037300050B1066846B1E419A0B20090069A059B41F230114046B047284632E0B9F1FE0FCC
:203750000CBF0FF22C190FF24419304609F0BEFD00904FF4FC71CDF804800122CDF80890B7
:203770004DA3039510A0049506F0CAFC0097059A40462346314609F034F8594608310F689C
:20379000051C0DD167B1786850B1304609F09EFD00947C68059B024641F230114046A047D6
:2037B000E8B209B0BDE8F08F646174615F736572766963652E6300C04174747269627574F8
:2037D0006520776173206E6F7420666F756E642E00C046C05772697465417474724342201D
:2037F0003A20257320636F6E6E48616E646C6528256429206C656E28256429206F666673CC
:20381000657428256429206D6574686F64283078253032782900C04653747265616D00C01A
:20383000537472696E6700C0496E76616C69642076616C7565206C656E6774682077617330
:203850002072656365697665642E00C0416E20696E76616C6964206F6666736574207761AE
:2038700073207265717565737465642E00C046C02D20726573746F72696E6720626F6E64F2
:20389000656420737461746500C046C02D204F544120777269746500577269746541747498
:2038B000724342202843434344293A20706172616D3A20256420636F6E6E48616E646C651B
:2038D0003A20256420257300301500202DE9FC41A0F2013714468846022F40F232819B4E94
:2038F0009C493F1F0F2F04D9143F4CD0BF1E1CD011E0DFE817F0CF00C9000D01FA00C10002
:20391000B9002601AF00A700100010009D008F007F00740066002A2880F21381B8F1020FAA
:2039300040F00F818849238807E1B8F1010F40F00881F078012800F0048132462078117941
:20395000107189B9002800F0FC805078012800F0B580042800F0B280062800F0AF80052822
:2039700000F0AC80BDE8FC812078002840F0E9805078032800F0AF80072800F0AC80052816
:2039900040F0DF80A7E0B8F1010F40F0DA802078012840F0D68006F1EC000CF0D1F90028A6
:2039B00040F0CF803446002004F13A0107F074FD002840F0C68004F1C8000CF0A2FBBDE8AD
:2039D000FC81B8F1020F40F0BC8020880A28C0F2B880B0F5486F00F3B4808E1C17E0B8F1A3
:2039F000020F40F0AE802088B0F5FA7F80F2A9800E460CE0B8F1020F40F0A38020880628C4
:203A1000C0F29F80B0F5486F00F39B803E363080BDE8FC81B8F1020F40F093802088062842
:203A3000C0F28F80B0F5486F00F38B803C36EEE7B8F1010F40F085802078062880F28180ED
:203A5000454E0EE0B8F1010F7BD12078042878DA0A3606E0B8F1010F73D12078082870DA85
:203A700009363070BDE8FC81B8F1010F69D12078042866DA0836F4E7B8F1010F61D12078A2
:203A900004285EDCF61DECE7B8F1020F59D120880E36BCE7B8F1010F53D13079012850D088
:203AB00032462078D178D07069B9002849D05078012803D0042818BF052842D101200CF0D6
:203AD00067F9BDE8FC81207800283AD15078022818BF052835D110780BF0B6F81C490246AF
:203AF000102003F001F8BDE8FC8106F1830500211F22284607F0D0FF21464246284606F010
:203B100025FE44463078B4710BF09EF8002311E006F1640500211F22284607F0BDFF21462C
:203B30004246284606F012FE4446307874710BF08BF801230094094901950246102002F0DA
:203B5000D3FFBDE8FC81C046D9E60000800C002099450110C00C0020BA0C002009450110D0
:203B70002DE9F04F8246DAF80070DAF804600C465FEA0208ADF11C0D14BF00214FF0FF31D1
:203B9000DFF8449248460CF078F8002818BF0B2040F01681002590488D4905708B48FC6006
:203BB00052460CF096FA317B27200CF094FAB8F1010F07D0657002200AF0CCFE06200AF0E9
:203BD000C9FE01E0012060702078012840F2AB80801E012868D9801E012833D9801E01287C
:203BF00000F2DF800CF06FFA83464FF0805000F5EE77D0F8DC01A378466A009321782846C3
:203C1000062908BF0120019001200290A068228AE1686368B047814658460CF02DFDB9F145
:203C3000000F40F0C080B8F1000F02D00BF096FE02E050460AF062FD002800F0A48038682F
:203C5000806A2AE00CF03FFA83464FF0805000F5EE77D0F8DC01012306680093A168A2780C
:203C700060682478AC46042C08BF9C466346B047814658460CF000FDB9F1000F40F093800B
:203C9000B8F1000F02D00BF069FE02E050460AF035FD002877D03868406880474D49C1F8B7
:203CB000B0510D6081467EE00CF00DFA83464FF0805000F5EE76D0F8DC01E38A8769009398
:203CD000E0680190208B0290A0780390207D04900121059122782846022A08BF081CE178B2
:203CF0006268A368B847814658460CF0C5FCB9F1000F58D1B8F1000F02D00BF02FFE02E048
:203D100050460AF0FBFC00283DD03068006A80475FEA000947D13068C569A168E28A2369DD
:203D3000E078A847BEE70CF0CEF983464FF0805000F5EE76D0F8DC01E38AC7680093E06877
:203D50000190208B0290A0780390207D2946049001200590257805B9014608466268A368BF
:203D7000E178B847814658460CF086FCB9F1000F19D1B8F1000F02D00BF0F0FD02E050466B
:203D90000AF0BCFC08B914201AE03068406980475FEA000907D1306802692169E078904784
:203DB00080E74FF0FF39B8F1010F05D002200AF0EFFB06200AF0ECFB03480CF096F9484616
:203DD00007B0BDE8F08FC04648180020801800206DEF000050450240A8250020F0B50746A8
:203DF0000020ADF11C0D0E46044664A500900322019464A30294DD2103942846049406F0AD
:203E10007FF964A3B81E09D0801E00F09F80401E7ED0401E5ED0401E3CD01BE0012E0CD00F
:203E30000094019428460294F02103940322049406F066F9F1215AA394E000940194284671
:203E50000294EB2103940322049406F059F9EC2158A387E000940194284602944FF4847140
:203E700003940322049406F04BF900942046019040F2091102900322039054A3049028468A
:203E900006F03EF901208DF817009DF817000028FBD171E000940194284602944FF48171D5
:203EB00003940322049406F02BF900942046019040F203110290032203904AA3049028467A
:203ED00006F01EF901208DF816009DF816000028FBD151E00094019428460294FC21039458
:203EF0000322049406F00CF9009420460190FD2102900322039040A30490284606F000F933
:203F100001208DF815009DF815000028FBD133E00094019428460294F6210394032204948D
:203F300006F0EEF8009420460190F72102900322039036A30490284606F0E2F801208DF857
:203F500014009DF814000028FBD115E00094019428460294E32103940322049406F0D0F868
:203F7000E4212EA30094204601900290039003220490284606F0C4F807B0F0BD6D61696EC9
:203F90002E6300C03E3E3E535441434B20415353455254002A2A2A4552524F522A2A2A0018
:203FB0003E3E20494E5445524E414C204552524F522100C03E3E20494E5445524E414C2054
:203FD0004657204552524F522100C0463E3E2044454641554C54205350494E4C4F434B211E
:203FF00000C046C03E3E2057524F4E47204150492043414C4C2100C03E3E204943414C4CAA
:204010002054494D454F55542100C0463E3E204943414C4C2041424F525421003E3E204F7D
:204030005554204F46204D454D4F5259210070472DE9FE4F8A4C617811B900200BF09AFBB5
:204050000CF022FB06464FF0000806F6C4160027844DDFF8149211E038460BF0ABFD41798D
:2040700051B12A68817902F8081008F101015FFA81F831460CF0FCFA7F1CFFB299F800007D
:204090008742E9DB6178884505D000200BF072FB82200CF0E9FA6078012840F0C380002764
:2040B00001E07F1CFFB299F80000874280F2B48038460BF07FFD064670790028F1D029681F
:2040D000B0790A7890421CBF00200BF053FBB079A0E0286810F809000BF06CFD006842684F
:2040F000DAF808109068814204BF3E4609F1010900F0A680A8E0286890F800B001224FF4F4
:20411000C0710FE0636803F5AD76835C01FB03F901FB0BFE36F809C036F80E60B44538BF2A
:204130009B46521CFBB29A42ECDB4FF6FF700CF097FA064658460BF03DFD4C490068D0F8AB
:2041500004A00868D94630F8192060684FF4C07300F10E0103FB09F3C85AB2EBD00F52D2C1
:20417000720840F6C410424300920027404A0190029217E058460BF01DFD01680A78802A7F
:2041900003D1DAF81030009A5A610978402908D1029980790A6802EB4011009800F5A06040
:2041B000C8617F1C47452EDA2868C05D8345F8D001464FF4C073594363685A1803F5AD73AC
:2041D000D289595A53088B4202D2521A9045E8DA0BF0F0FC01684A68019B9168DAF8082031
:2041F0007008A1F6C41103FB00200CF049FA0028C0D01E48006830F81910491C20F81910F1
:20421000286810F807B01948026800215B4622F813105846BDE8FE8F00200BF0ABFA822043
:204230000CF022FA617828680CF016FA286800780BF0C0FC00260068D0F804A04FF00109DF
:20425000771CC145FFF645AFF6B2002E1CBFF8B200287FF450AF286890F800B065E700BF04
:20427000684E0020004F00207B4F002084250020844E00202DE9F04385B011F8017B0446F7
:20429000082F04F1FD0004F1FC0804F1760504F5A076844A844BDFF8149213D0092F21D047
:2042B0000F2F2FD0112F01BF287801286878102840F0D5800A78327648787076012184F8DD
:2042D0003D11EBE00025521C4E5D5F5D3E434E55575D3E4046556D1C082DF5DB204608F0DE
:2042F0000FF874E00024571C0D5D1E5D35430D553A5D15400555641C082CF5DB022088F891
:204310000000CBE098F80100820704D410F0110F57D01A2266E008784A7800EB0220308028
:20433000CA78887800EB022070804A79087900EB0220B080CA79887900EB0220F080087A6A
:2043500030724A7A887A02EB00227281C87A0A7B00EB0220B0818A7B487B00EB0220F08198
:204370000A7CC87B00EB022030828A7C487C00EB022070820A7DC87C00EB0220B082487D0D
:20439000897D00EB0120F082494801788A0658BF1A2212D504F5A670049071890391307ADA
:2043B000029021890191F0880090B38872883188204607F0D3FCE0B11E2298F80100410753
:2043D00010D40F2088F8150020460CF041F9002864D199F8000005B0BDE8F0434FF480410A
:2043F00005F00ABA204605B0BDE8F0430F210CF02BB97088A882B188E9820221F0882883E5
:20441000297400206882A18EA88AC91DE981618EB0EB510F02BFE88AA18E884202BF288BAA
:20443000E18EB0EB111F18D02878012804BF68780F2805D0687918B10F21A972FE2127E0B7
:20445000FC2120460CF0FCF8F0880090B38872883188A0790CF0F0F820E0102118E0491E56
:2044700020460CF0E5F8032F18D1A878042818BF0D2813D16E78142E18BF0E2E0ED12F78D5
:2044900020460CF0D1F8012F06BFAE72FD213146204605B0BDE8F0430CF0D2B805B0BDE864
:2044B000F08300BFEC4D0020742500206E4F0020144E002010B50B7884074CBF43F0020333
:2044D00003F0FD0304064CBF43F0800303F07F0304074CBF43F0080303F0F70384064CBFC3
:2044F00043F0200303F0DF0310F0AA0F0B7003D0107840F00C0003E018B9107800F0F30097
:20451000107010BD2DE9F8430D4600272878022814461E4667D1696808784978DDF820802C
:2045300000EB012080B25FEA08021CBFB0F5285F0B205BD14FF42851401A08D0401E21D03F
:20455000401E2FD0401E25D0401E31D04BE0DDF82490E8680BF0DFFD80B2A0EB08024A450B
:20457000BCBFA0EB08001FFA80F909EB0800162806DAA6F800904A46E86800EB08010DE082
:204590000D2732E0E8680088022131802070000A60702AE0062030800622E96820460BF0F5
:2045B0000DFA22E001203080E9680A7822701CE0E868B0B1082131800288227003881B0A59
:2045D00063704188A1704288120AE270818821718288120A6271C188A171C088000AE07154
:2045F00003E0308001E0378001273846BDE8F2832DE9F0470F468146387800240228904683
:204610001D466DD17868089E01784078DFF8D8A001EB002189B24FF42852891A06D0491EFE
:2046300029D0491E4ED0491E39D059E0F8680BF072FD80B2B04204D3A919162903DB0D246E
:204650004FE007244DE0FB682A46414698190BF0B5F9AD19F868ADB2C5F116020021401942
:204670000BF057FDDAF8000000281CBF0268002A37D0002123E08EBB022DE0D198F800008E
:2046900098F80110FA6800EB01201080DAF8000000281CBF0268002A23D001210FE0EEB957
:2046B000062DCCD1F868062241460BF087F9DAF8000000281CBF0268002A12D00321484693
:2046D00090470EE056B9012DB9D198F80000002813BF0128F9680870802402E00B2400E01D
:2046F00001242046BDE8F08790250020FEB57748774A0078774C784B78490D2840D8DFE828
:2047100000F0E307070707DBDB5EDB9A9AB8B8BF146041F2044572494C88AC421FBF4E8B24
:20473000AE424F8EAF4203D11D806E4810607AE0002C6D4D1C804FF4A05639D0641E3CD068
:20475000641E35D040F2FE37E41B1AD0241F012C1DD94FF47F77E41B1BD04FF44067E41B00
:204770000FD0A41E012C0CD9241F0AD0641E012C0DD940F2F937E41B012C19D9241F08D029
:204790009AE0022814BF1E80584D15604BE0584DFBE7584803681C7A012C05D141F202400F
:2047B000488048834886F0E74E804E834E86ECE700200AF0DFFF832082E08F2080E04E48C9
:2047D0008178FF2954D0146018204C4C41432068851C40F204466C5A1C80A41B012C484B36
:2047F00072D94FF47F76A41B0FD04FF44066A41B032C84BF641F012C0BD9A41E012C63D9AF
:2048100040F2FD36A41B08D103E0801C41F201444452136004F05AFC05E000200AF0AAFF99
:2048300085200BF021FF03B0BDE8F04035480078012104F0E1BF40F20442488818809042C3
:204850001CBF41F2084290423ED041F60402904211D12D4C2D482E4B00680025CDE9004530
:2048700002222C4C256855F8086FB0472A490880F7BD4888188000200AF07CFF85201FE0F4
:204890004888188002280DD940F20442801A1BD040F6FC72801A05D0083815D04FF47F7227
:2048B000801AE8D1887B801CC2B2B52AA8BF6620887300204880F7BD00200AF05BFF842007
:2048D000BDE8FE400BF0D0BEF7BD00BF6F4F0020204F00209B000100504F0020CC4C0020E9
:2048F000204A002059550110615A0110B1540110755B0110104F0020684E0020804E002059
:20491000313901106E4F002002000080EC4E002071E60000F04E0020424F00207CB5894DE6
:20493000144602460026A2F58062182A1AD8DFE812F0FE00F800F100E900E200DC00D500C6
:20495000D0001900C500BE00B700AE00A3001900190080006F00680054004C00420039002F
:204970002C0024002A2880F28580022940F08280218809F0A9FE0646E1E0012940F0DE80A3
:20499000002C00F0DB801135A6E0102940F0D680002C00F0D38028465030102221460BF014
:2049B0000DF8CCE0012940F0C980002C00F0C68029468D1D90E0262940F0C080002C00F0CD
:2049D000BD8005F160002622E8E7012940F0B680002C00F0B3806D1D7EE0602900D13CB907
:2049F000012940F0AB80002C00F0A8800D3573E005F18600214660220AF0E0FF012068730F
:204A10009DE0012940F09A8020780BF009FE96E0012940F093802078022800F38F800C3513
:204A300028702078022814BF301C01200BF0F4FD85E0072940F08280611C684606220AF0CC
:204A5000C3FE20786946324605F0B6FA04460A2C10DA0BF0DDFD38B9204603F073FB0AF030
:204A700031FB08F0E1FA6AE02A46012002F12C05285564E0022662E001295FD1A87B2178E7
:204A90000028A9735BD12078012858D1E9E7012954D12478072C51DB102C4FDC0B3537E0D4
:204AB00001294BD124780A2C48DA093530E0012944D12478022C41DA083529E000293DD1BD
:204AD0000BF0A6FD10B90BF00DF8C8E701240F351EE0012932D10A35247819E001292DD120
:204AF0002478022C2ADAED1D12E0102926D12B4603F1400051E7012920D12478022C1DDAF3
:204B10002D1D05E0012919D12478042C16DCED1C2C7014E0012911D12478022C0EDAAD1C64
:204B3000F6E702290AD120881435288007E0012904D12478022CD8BF6D1CE9DD182630469F
:204B50007CBDC046941100202DE9FE4F05467B48002400680094C00905D37948007810B90D
:204B7000202009F0E5FD012D40F0E280DFF80092D9F8DC00012840F0D8800220C9F8DC00C4
:204B90000AF08CFE012009F0D3FD5FEA000805D00120C9F8DC000AF08DFECBE00BF0A9FAE5
:204BB000A34602906748684DC0F800B0A86A016801208847012804D1584607F00DFC012076
:204BD00000906248624FC0F800B0386811200BF0A5F900B1012410200BF0A0F908B144F081
:204BF00002040F200BF09AF908B144F004040B200BF094F920B12868564E016B3088884742
:204C10000A200BF08BF920B12868534E016B308888475248012606602868816944F02000F1
:204C300088474F4806600BF073F900F001010191400814D2286A81684A4888478246BAF130
:204C5000040FF7D0BAF1010F04D1286A42684548032190474449086820F003000860584600
:204C700000F088F82B683868986B8047019801280CD0BAF1010F04D1286A42683948314655
:204C900090473949086840F0030008602F48066028684169204688470B200BF03FF920B125
:204CB00028682C4BC16A188888470A200BF036F920B12868284BC16A1888884727480660AC
:204CD0000322C9F8DC20264BC3F800B02868416B204688470128F9D13868042009F028FDC0
:204CF0000446184806603868144800688009FBD30098012802D1304607F06EFB0BF0F5F887
:204D1000082009F015FD07460298C9F8DC600BF07BFC1648008807F0CBF80AF0CBFD57EA57
:204D3000040018BF4FF0FF3804E06FF0040801E06FF001084046BDE8FE8FC046141009404F
:204D5000041500200C400940B8010010000222432C2009401A1201001612010028200860AA
:204D70008001044300400340242208405C1601001C1400202DE9F84FDFF804B20746ABF1B4
:204D90003500DFF8F0810068800880F0E28075480068006880477E490831D1F800900025F2
:204DB0004FEA29715FEA995201F101010AD2C0F13E0210F10A0F4FEAE202D8BF0822914250
:204DD000B8BF111C684BD3F87C21C2F30462162AA8BF203A1B68C3F30443162BA8BF203B65
:204DF0009A465218162A05DA12F10A0FB8BF6FF0090200E015225D4B5D4E02F01F0141F48C
:204E1000F8511980316811F0030F18BF0125C90828BF45F002050FB145F00405434693F9F0
:204E30000710411A052904DA9979A94208BF99886FD0DFF844E10F28A0F10F0829DB08EBEE
:204E50000011A1F1F0084FEA28210091072984BF07210091062988BF06215EF821600424CC
:204E7000774604EB81043C594FEA950CA41BEE0804F0FF0124BFC4F3072631446F08AE0870
:204E900024BFC4F3074631446E0828BF01EB146104E000214FEA950C6F080091009C5EF80F
:204EB00024E05FEA5C060EF0FF0424BFCEF3072634447E0824BFCEF3074634446E0828BF9D
:204ED00004EB1E64009E89B2A8EB06267143803104EB1124AAEB02010029D8BF0121342260
:204EF00009F0FF074A4391B24FF6FF727943B1FBF4F18A4238BF111C802889B2998005DA05
:204F100010F1800FB8BF6FF07F0000E07F20D8719D711A4800681F2918604FF0000008D322
:204F300040F2FF128A4206D24908401C8A42FBD301E01F219980134F0F39090940EAC10052
:204F500047EA0001CBF8FB1F0026CBF8FF6FBDE8F88F0D490D4F434608200F609B1D18709D
:204F7000BDE8F88FEC0100103C1100506E620840242208407C2500209C1300500820094084
:204F90003500094000E7A48030100940FDFDA400AC3F00502DE9F04F804C0546E068934689
:204FB0000F462E1CADF1140D16D0761E06D00095002040F2311139A305465BE0064600203C
:204FD00047A240F22D1104F1040804F1100914254FF0010A84460AE0002043A24FF49171D8
:204FF00004F1020804F1240928258446E24600920197034602900122CDF80CC023A004932E
:2050100030A305F07DF8BD422FDB484659463A4605F09CFBBAF1000FA8F8007032D0B0780D
:20503000002808BF32A103D001280CBF37A13DA13088002700903D46012201913EA3029700
:2050500040F24111039511A0049505F059F806200090534F207804F14C0349462A460190D0
:205070003046029704F0A8FE0CE0009700204FF4A5713CA30190029503900322049003A085
:2050900005F03EF805B0BDE8F08FC046646174615F736572766963652E6300C0536574503F
:2050B0006172616D657465723A20506172616D6574657220232564206E6F742076616C698B
:2050D000642E00C0536574506172616D65746572203A202573206C656E3A20256400C04647
:2050F00053747265616D00C0537472696E6700C01B5B33336D4E6F74692F696E6420646903
:205110007361626C65641B5B306D00C04E6F74696669636174696F6E20656E61626C65646F
:2051300000C046C0496E6469636174696F6E20656E61626C656400C0547279696E672074DB
:205150006F2073656E64206E6F74692F696E643A20636F6E6E48616E646C652025782C2065
:20517000257300C04C656E677468206F75747369646520626F756E64733A204C656E3A20CA
:205190002564204D696E4C656E3A202564204D61784C656E3A2025642E00C046301500204F
:2051B000017100002DE9F0410446804DA178A869ADF1180D891F00F0F280C91E00F0DD80E4
:2051D000491E5FD0491E48D0C91E3CD0481E40F0E980287A697AB8B96878002831D0A08891
:2051F0000BF00EFA071C00F0DD80A07A40080FD3787968B1E168890A0AD2B91D01AA04F0B1
:20521000DBFE0A2804D10321A0880BF0F5F9C9E0287B022802D1A07A0009F4D3A08879791C
:2052300004F1080201F098FBA869002800F0BA804368002B00F0B68000210A46A088984704
:20525000B0E00521E0E7002800F0AC804368002B00F0A88062780221F0E70AF091FD00280B
:2052700000F0A080A86950B1076847B1206900906189227B637BE01C3C46A04792E0608957
:205290000121C2E767784FF00008002F66D1A179490863D3EF69002F60D101A841460E22EE
:2052B0000AF037FFA0880BF0ABF9071C7AD0606940B97879B91D06228DF80A0001A80AF097
:2052D0007DFB19E06669307C062206F111018DF80A0001A80AF072FB07F10C00B91D062200
:2052F0000AF06CFBB81D062206F111010AF066FB307C40F002007871A079C00839BF38798B
:2053100000F0FD00387940F002003871A079000939BF387900F0DF00387940F020003871C0
:20533000A1799DF81120C1F3800010438DF81100080905D39DF8110040F008008DF8110003
:2053500001A8214600F022FD28B92878022104F053FA404627E0A8694FF0150810B34368D1
:2053700003B3A088627801219847B8F1000F19D0A86943680321424660E7E078211D00225C
:2053900004F01AFE0A280DDA410001EB800004F10C0225300421C0B203F004FA02E0A08841
:2053B00007F0E4FF012006B0BDE8F081941100202DE9F04F044672488E46016894461F467C
:2053D000BEF1000FADF13C0D4DD0BCF1000F4AD09EF8002001209040014244D0BCF8000073
:2053F000B0F5C15F32D1DCF81400DCF81860654BDCF81C50DFF890A10B904FF003080DF1C6
:2054100028090C9618680D95C0F3036B59F8046FCEB10021351F05200B4655F8042FB2F115
:20543000FF3F10D0924506D0401E01F1040103F10103F2D107E0052B05DA705820F470201F
:2054500040EA0B407050B8F10108DFD1C4F804E0C4F808C00AF037FE4C4D8046287820B182
:2054700040460BF009F9002087E002F01BFC4849086840F00200086007A80AF059FC00264A
:2054900005F1D00007AA4349099608F049FD424905F5827007AA08F043FD07A80AF020FCF7
:2054B000FF20192107AB3D4A089005F1340008F0BDFC3B4A05F150001A2107AB08F0B6FC75
:2054D0003849324605F18800134607F0D7FE3649324605F1AC00134607F0D0FE334A05F1F6
:2054F00020000421334609F061FD0E2004F05AFB05F174000AF022FB05F16C000AF01EFB1A
:205510002E740523EB60072085F898012E77AE616E772849AE60264A69612B781670581C3A
:20553000287040460BF0A8F8B1461FB968460AF019FB6F4638682060388A608201206074A9
:205550007B6813B940F6C4130646E3601A48A06126746061F86800B1A061B86800B160618E
:205570004946582204F1200006F096FA04F13800494609F0EDFB6C6020460FB0BDE8F08FC5
:20559000D4210840541300500200F844B81C002000200940F5F800003194000061CC00008D
:2055B0008DC500009DF30000DDF60000A9D50000A225002049970000C79F00002DE9F0472E
:2055D0007C4C2369E5680F4691460FF2D40A011CADF1180D11D0491E07D000220746154646
:2055F00040F2471133A328464DE043A040F24311A61D04F102081D4605E041A04FF49C71FC
:20561000261D04F1010800900197002002900122039032A30490504604F072FD022F2CDA10
:205630005FB3404649463A4605F090F83780A878002808BF34A103D001280CBF39A13FA11A
:205650002888002700903E460122019140A3029740F2571103965046049604F051FD072052
:205670000090554F207804F114034146324601902846029704F0A0FB0FE0012200204FF4A7
:20569000B0713EA315460097019204460295032203905046049404F033FD06B0BDE8F087B6
:2056B000627574746F6E5F736572766963652E6300C046C0536574506172616D65746572CA
:2056D0003A20506172616D6574657220232564206E6F742076616C69642E00C053657450E8
:2056F0006172616D65746572203A202573206C656E3A20256400C046425554544F4E3100E2
:20571000425554544F4E30001B5B33336D4E6F74692F696E642064697361626C65641B5B52
:20573000306D00C04E6F74696669636174696F6E20656E61626C656400C046C0496E6469E0
:20575000636174696F6E20656E61626C656400C0547279696E6720746F2073656E64206E38
:205770006F74692F696E643A20636F6E6E48616E646C652025782C20257300C04C656E6728
:205790007468206F75747369646520626F756E64733A204C656E3A202564204D696E4C6504
:2057B0006E3A202564204D61784C656E3A2025642E00C04678160020A16F00002DE9FE4FEB
:2057D0000E468246307AC10693461F464FF000090CD558460AF00CFF030000F0E8800A229B
:2057F0003146504698475FEA00094DD130780C9D0D9CDDF8388002281AD170680178407898
:2058100001EB002189B24FF42052891A012910D9891E3AD0491E14D0FD397AD0491E00F0F2
:205830008180491E6DD0491E73D0491E00F09580ABE0002C2AD1F06801782980027841684E
:2058500087E0002C22D101202880F1680A783A7000217089401C80B20AF0C6FE298860B13C
:205870000278921C51182980418979704289120ABA7041680278F81C6CE0091D29800422A2
:205890000021781C0AF045FC93E0002C66D1F0680688042129803E70320A7A700DF10201A9
:2058B00030460AF0A1FE040021D0D4F80C80BDF802204FF6FF766B4631460AF091FE40B941
:2058D000237862683C4802210AF086FE08B9ADF8006098F8000002280BD1D8F804100222CA
:2058F000381D0AF06BF82888801C288001E0ADF80060BDF80000B870BDF80010090AF970EE
:2059100057E0002C2AD1F068016850460AF0D8F902E01CBBF0680088022129803870000AE0
:20593000787046E0F0680AF0F6FB80B2A042B8BF4FF007093DDB844208BF002205D008EB9D
:2059500004028242B4BF4246021B2A8092B2F068011938460AF032F82BE014B14FF00B0930
:2059700027E0F0680721298002783A7043787B704188B9704288120AFA7001793971C2886D
:205990007A71C088000AB87113E058460AF020FE5FEA00090BD00F980290CDF804800094A5
:2059B0002B463A4631465046C847814601E04FF00E094846BDE8FE8F261401002DE9F04F7C
:2059D00009AF3D7981461C468A460846ADF1240D3F88069207F01AFD0026FF214BA3DFF8BB
:2059F000C8810790089108B3401E0ED030460090019040F2EB110290032203903CA30490A5
:205A100037A004F07DFB0A2066E051A00090CDF804904FF4F37102940122039730A0049586
:205A300004F06EFB404600F1040B0FE04AA00090CDF804904FF4EC7102940122039728A0F6
:205A5000049504F05DFB404600F1020B05901FBB07EB0408B8F1020F18DAB8F1000F03D128
:205A7000182D10D0122D0ED0DAF80C0006992246C01904F06BFEB8F1000F1BD0ABF80080F3
:205A90000798089016E040F2FF1101E04FF4FB71304633A30D2604E0304640F2F11139A30E
:205AB00007260090019002900390032204900CA004F026FB0898FF280DD00598806850B1BF
:205AD000056845B1E419A0B20090079A069B41F210114846A847304609B0BDE8F08FC04608
:205AF0006C65645F736572766963652E6300C04641747472696275746520776173206E6F5E
:205B10007420666F756E642E00C046C05772697465417474724342203A20257320636F6E34
:205B30006E48616E646C6528256429206C656E28256429206F666673657428256429206D7A
:205B50006574686F64283078253032782900C0464C45443100C046C04C45443000C046C08C
:205B7000496E76616C69642076616C7565206C656E67746820776173207265636569766501
:205B9000642E00C0416E20696E76616C6964206F6666736574207761732072657175657326
:205BB0007465642E00C046C0E81700202DE9F04F754F1E46ADF1340D01914FEA960902922B
:205BD0003D680090710809F1020221F0010105EB8200091D0390901805EB800004905018B7
:205BF00005EB80038018059305EB8000079026F0030000F1080802EB080005EB8003401811
:205C10000893801805EB80000990C6F39C008000083002EB4000411805EB800305EB810BB6
:205C30000A938918831805EB8104404405EB8303C6F3990105EB80008900069038680B93EC
:205C50000A010021803205F027FF4849DFF820A109682846AAF1880290470746B94518BF15
:205C70006FF001007ED128465546394605F1680290470198314609F079FC002818BF012008
:205C900070D10298314609F071FC002818BF022068D103980199A84704980299A847009800
:205CB00081680598A847334B0399059A20469946C847012802D1BD0066590EB1032051E0C7
:205CD00020460021424605F0E7FE0499059A2046C847012801D166590EB1042042E0274BE9
:205CF000254D079803991E462A46B047089804992A46B047079909980A46B0470A980999AC
:205D1000079AB0471E4D0B9807992A46B04720460021282205F0C0FE1A4B0A990B9A20462F
:205D30009946C847203520462A460146C847089958460A46B04706980021424605F0ACFE78
:205D5000FDB25846002D0CBF0122FAB20021635C455CAB4218BF052004D1491C521EC9B290
:205D7000F5D100200DB0BDE8F08FC0468C4F0020B9DB0010C9DE0010EC1A0020F9E00010E1
:205D90000C130100C9E60010884F00202DE9FF478146714CDFF8BCA1E069884600284CD1AD
:205DB000B9F1000F00F09480B8F1000F00F09080484609F067F805460A2D23DAD8F81470A5
:205DD0002574002F37D0680010216A4600EB85002330C0B209F015FC90B950460778FF21DE
:205DF0001022684609F027FD50B93FB999F80600494600F001000AF0E7FB01E00120A0748C
:205E1000E0691AE004F1E6070A2600253846FF21062209F010FD68B9761E07F10E0705F174
:205E30000105F3D1607C002804BF0A2020744FD094F836502574E06900E0257C0A2D47DA17
:205E5000002835D168000E214A4600EB85002030C0B202F0A7FC207C07F0EAFB6846FF21D0
:205E700010220AF056F9207C10216A467030C0B202F098FC217C0E220801A0EB41000019C7
:205E90004946E63009F09AFDD8F814206AB15046007840B9107C02F11101002300F00100F2
:205EB0000AF08EFB01E00120A074C4F81C804CE08268002A3ED10269002A2FD142690ABB8D
:205ED000C2683AB9A07B08B108F0BCFD09F08AFB01203BE06800102100EB85002430C0B287
:205EF00002F060FCE769217CFA68480000EB8100103225300421C0B202F054FCE169002067
:205F1000C86022E06800102100EB85002330C0B202F048FCE1690020486116E068001C2195
:205F300000EB85002230C0B202F03CFCE169002008610AE068001C2100EB85002130C0B25E
:205F500002F030FCE1690020886000200090BDE8FF87C0465A4F0020941100202DE9F04FFD
:205F70006C4CA068ADF13C0D002800F0858004F1B80B4FF00D0A4FF00A094FF0010878E04D
:205F90000AF01AFB2178CA0002EB41125A44B2E8E01004ABA3E8E010E0CAE0C364CA4F1C07
:205FB00007F01F0183E8640004F10C05627821708A4208BF84F802800AF05EFBBDF836307B
:205FD000A6212FA2284609F043FC284609F024FE049F4619B8B209F079FA4AA20CCA02F05E
:205FF00063FB4AA20CCA02F05FFB07F0FFFB009025A2A91B3B0C3046A63109F029FC2846F9
:2060100009F00AFEBDF834704019BF1E04D07F1E14BF21A229A200E031A206990091059B8B
:206030002F1A07F1A60109F013FC284609F0F4FD4219A0682946521B09F0F6FF09980090AA
:206050000A9E01960B9F02970C9B0393089B079AA621284609F0FCFB284609F0DDFD42196C
:2060700002F801AB02F8019BA0682946521B09F0DBFFA078002883D00FB0BDE8F08FC046A1
:2060900023253036752000C05B2025642E25303375205D2000C046C01B5B33323B316D495E
:2060B0004E464F3A201B5B33303B316D2825733A256429201B5B306D00C046C01B5B333162
:2060D0003B316D4552524F523A201B5B33303B316D2825733A256429201B5B306D00C0465C
:2060F0001B5B33333B316D5741524E494E473A201B5B33303B316D2825733A256429201BD2
:206110005B306D00000000000000F03E0000000000408F40080200202DE9F0430546880FE5
:20613000ADF1140DC0F0BF80604C201D006840688768C668406800B18047002F08BF002E47
:2061500008D009F019FD07B1B84706B1B047584808F018FF574809F0E3FD574A40F60A0CCF
:20617000A2F800C000205080117B60F3030111735060517B4FF0010969F303015173AB6862
:206190006E7C58801988A1F60201C9B141F21E07C91B15D041F6E677C91B012920D8597EE6
:2061B000012E60F38201597606D0198B21F47C7141F43471198313E0198B60F30911F9E725
:2061D000597C012E60F38201597405D0198A21F47C7141F4347102E0198A60F30911198227
:2061F000D5F8088068746146464600E03E46776817B13B889942F9D17260737B60F303039F
:206210007373E76E3FB1FB681B88CF1F9F421AD0891F994217D02F8CB7B1686205F1200116
:20623000488095F82C3060F3030385F82C3095F82D3069F3030385F82D305160517B60F375
:206250000301517300E0A0601C4801688768C568009110226946406B019720F0784040F0F0
:20627000805003901648029504F070FA09F084FC14486061607F68B9134800680168484608
:20629000884701280CD0707B69F3030070730F4F676105E007F0CAFC0028FBD009F021FF19
:2062B000404609F03DFD05B0BDE8F083B81C00200100070601010E04142500204C1300502A
:2062D000180000216D330000E001001081CE000061480178002900D170472DE9F843491E0A
:2062F000032984B004D9891F012940F2B180A9E05A4CDFF86C912068DFF8688103685A4EBE
:2063100003F10805062205F1080102A809F056FB0622A91C684609F051FB2878C1091D27C3
:2063300000F00F02032AC0F3801537D16079C0F3800081421ED12169062202A809F096F82E
:2063500000287AD0694628460AF0BAF9002874D0314668460AF0B0F9FF286ED04743D8F8FE
:206370000000807AF519002818BF02280AD0012818BF032861D1F25D691C48460AF018F938
:2063900010285AD06B46EA1D294648460AF00CF906226946E81D09F011FB4EE000F00F00C9
:2063B000052855D16079C0F38000814245D12169062202A809F05AF800283ED0694628469B
:2063D0000AF07EF9002838D0314668460AF074F9FF2832D04743D8F80000807AF5190028CD
:2063F00018BF01280AD0022818BF032825D1F25D691C48460AF0DCF810281ED040F20240C7
:2064100007F0ACFD6B46EA1D294648460AF0CCF806226946E81D09F0D1FA1448144A41F2CC
:206430000441418041834186124801801249134811600121007803F0DFF921680A68002039
:20645000107105E0002009F095F986200AF00CF905B0BDE8F08300BF6F4F0020F44B0020B1
:20647000CC470020104F0020AC450020204A0020204F0020504F0020595501106E4F0020D5
:206490002DE9F04F0746ADF1140D0393002F02920E9801910F9C049000F0B680081C00F081
:2064B000B380101C00F0B080181C00F0AD800498002800F0A980002C00F0AB80206A002826
:2064D00000F0A280564D666A281D0068002E00F09B80A16A0AF064F840B2002808BF6FF0A0
:2064F000020700F08D8084F82C002078618800EB80000918143188B2216A88474749086000
:2065100030B9284640680AF047F84FF0FF3777E08B46628823786088DBF8001025789E18F3
:2065300000EB010A701800F1040805EB450002EB4306851876186D18C01805F10C0980183A
:20655000401800F11005204607F0E4F82078C01C8010CAF800002078C01C8010C8F800000A
:2065700020780836C01C801030602078C01C8010C9F800002078C01C8010286022783946CF
:206590000AF1040004F0E2F82278019908F1040004F0DCF822780299301D04F0D7F8237845
:2065B000204641463246FFF701FB071C12D100955046414632464B4609F0EAFF47B222783E
:2065D000039809F1040104F0C1F822780498291D04F0BCF821786288DBF8000001EB81017C
:2065F0005218002105F058FA616ADBF8000088470B48406809F0D0FFF8B2992808BF002730
:2066100084F82C70384606E01CB16FF0010084F82C006FF0010005B0BDE8F08F884F0020E9
:20663000E41A002010B5401EADF1280D30D0401E28D0801E22D0401E1CD0401E0DD0401E6D
:2066500007D0401E5BD1002040F2733131A304464CE040F2673131A317E040F2153006A9CE
:2066700001F0DEFC06A806F0F9FE002440F2623131A33BE040F26F3139A306E040F26B316A
:206690003DA302E04FF4567140A3002420462DE04FF4417008A901F0C3FC9DF821308DF8E4
:2066B000193000248DF81C408DF81B409DF822208DF81A209DF825108DF81F109DF82000D3
:2066D0008DF818009DF824309DF823208DF81E303C498DF81D2006AB586848601A680A602D
:2066F00008A806F0BBFE40F253312BA30090019402940122039403A0049403F001FD0AB04C
:2067100010BDC04670726F6A6563745F7A65726F2E6300C04572726F7200C046436F6E6E91
:20673000656374656420616E64206164766572746973696E6700C046436F6E6E65637465FC
:20675000642E205065657220616464726573733A201B5B33326D25731B5B306D00C046C0D2
:20677000436F6E6E656374696F6E2074696D6564206F757400C046C0446973636F6E6E6555
:2067900063746564202F2049646C65004164766572746973696E6700474150206973207375
