:2000000000400020B575000001C9011001C9011001C9011001C9011001C9011001C9011034
:1C00200001C9011001C9011001C9011001C9011001C9011001C901103FC9011089
:20003C002DE9F04F0F46BA4C0168E16241688068ADF1140DE060B748A1608047B648E16AA8
:20005C000160A168DFF8E8A24160E168DFF8DC928160B249002FA346C16066D03D68A8688A
:20007C0008B1AF490160E86808B1AE490160AE4C2878207068786070A878BE68A070317818
:20009C00B268E1707368A2602E696360EA6926627968E2620868E06068696062A8697B686B
:2000BC00A062286A9E68206395F8240084F834001EB9002008F0B6FE00E066617868C06854
:2000DC0018B9002008F0AEFE00E0A0617868006918B9002008F0A6FE00E0E061786840680F
:2000FC0018B9002008F09EFE00E0206128692062F86881680E6806B9C14EC0494FF001080D
:20011C004E60C66881F8018036B9002008F08AFE4D462E68F86801E04D462E6000685446D1
:20013C00FB68A0615868E06107E0002008F07AFE4D462E684FF001085446361DB1493668D1
:20015C00621C04F114035020B04710B1286880688047DBF808008047AC4E002781463B4687
:20017C00A94877706946206104223370384608F051F80098B0F5801F0CD020B908F076FADA
:20019C0003F0DEFA08E007F04BFA09F02DF90427778002E008F06AFA04270020A34E2A6807
:2001BC00A0600346B360906980477060984880F80080002141800A2009F0FEF8FF210A2218
:2001DC00A06209F0C8FAE01CFF21022209F0C3FA0A2009F0F1F88F4E3060306800210A22F2
:2001FC0009F0B9FA002000F027F9404607F06EFC89480188FF2906D1022101807822001D6C
:20021C00002109F0A8FA032000F012F983482B6807705F68002103AA102001ABB847A06A99
:20023C00DBF80C10E2690527401D9DF80C307F1E00F8013BF9D1921E4846E261884704F12E
:20025C0020002B68626A049040461F69DFF8D08104F120034146B84710B12868806880479B
:20027C00B04608F025FB5FEA000903D005F04EFA4FF0FF39002637E00298216910F8062CE0
:20029C00A0F10C07032A02D171B388472CE0A16A9DF80EC005223046491E11F8013F9C4503
:2002BC0006D0521E00F10100F7D14FF0FF0A01E05FFA80FA2868BAF1FF0F00F1080011D003
:2002DC00387907F095FDB979012904D0022904BF0299887001E0029908700299504608F0FA
:2002FC0087FC01E0006880472868C3690DF10E0102AA0DF10D0098470028BDD0D8F800006B
:20031C007700C35BB3B9761CF6B2052EF8DB34E0BC09002041490010F8440020909A000067
:20033C00DF960000E5960000180C0020E80E0020480D0020052E20DADBF808008047D8F843
:20035C000010002231F807A0CA53DBF80C108847344850F8262026705146304690470646D4
:20037C00FF202070DBF808008047D8F800107A5A16437E52DBF80C10884708F099FA07469D
:20039C00B9451AD0DBF8080007B9274FE169B94238BF0F1C804781462868016A206A8847FF
:2003BC00626A28681E49049B521C6262C6683846B047DBF80C1048468847A7682968606935
:2003DC0014318FB9D8F8000005270026835B33B10969606988472968D8F8000014317F1E43
:2003FC0006F10206F2D103E0096988472968143109684FF0FF30884733E7C0464C0E0020DD
:20041C007B730000D189000059900000DC0E0020CC0B00205C180020580A00206C180020D4
:20043C00457E000004A900008EC2F5281C180020DFF800F0598801102DE9F84FDFF8E4821C
:20045C00B949BA4E88F800000822002008600D23B74840F23131027043808180B5480660E8
:20047C00B47EB5480470FF2CF17E417008BFFF29327F8270737FC370B57F0571F67F4671E5
:20049C0014D1FF2A08BFFF2B10D1FF2D08BFFF2E0CD1AA490A7802704B7843708A78827012
:2004BC00CB78C3700A79027149794171A4490278DFF89092DFF890A20A70FF2643784B70C2
:2004DC0082788A70C378CB700279A04B0A714079487189F8006089F8016089F8026089F81C
:2004FC00036089F8046089F80560002098490880DAF83440974960780870227896491A70B0
:20051C00A0780870A2681079944A411E1170E0789349944A0870E068106008B908F082FC65
:20053C0060699149086008B908F07CFCA0698F49086008B908F076FCE0698D49086008B9A7
:20055C0008F070FC8B4C8C4D207908F035FF286000283ED06079894F08F02EFF386008B9B9
:20057C00286833E0A079DFF818B208F025FFCBF8000020B9286808F02FFF386826E0E07995
:20059C0008F01AFF7F49086040B9286808F024FF386808F021FFDBF8000017E06B490A78A2
:2005BC002078921C504380B208F006FF76498860296898B9084608F00FFF386808F00CFF97
:2005DC00DBF8000008F008FF6E48006808F004FF002008F027FC4FF480419CE001200871BF
:2005FC002968624C0E732868467329688E732868C67329680E7400212868467400202A684B
:20061C00D172A0222968487103212868C280017207202A685072002128688172282128680E
:20063C0001224182C2760020296848770022286880F85E2001212A6811770120296881F801
:20065C005D0001223868027139680E733868467339688E733868C67339680E740021386811
:20067C00467400203A68D172002239684871386882724FF420703968C88008818A7401212A
:20069C003B68D974DBF800201673DBF800104E73DBF800209673DBF80010CE73DBF800201B
:2006BC0016740022DBF800104E740121DBF80030DA720023DBF800201171DBF800104B7125
:2006DC00DBF80010C88008818B720520DBF800209374DBF800102D4AC874106880472168D0
:2006FC00064608688047216851F8042F00209047DAF80C101A4B0A881878254902430A80AD
:20071C003046244A13689847484600F045F800F047F84FF4005198F80000BDE8F44F03F096
:20073C0059BE00BF6E4F0020044F0020B63F0050604E0020084F00202C4E0020E812005009
:20075C003C4E0020344E002014AA00007B4F00200C4F00206D4F00206B4F0020724F002077
:20077C006C4F0020F04E0020F84E0020FC4E00201C170020340E0020104F0020144F00209D
:20079C00184F00201C4F002028180020C4090020544F0020C8090020DFF800F01D6E0110C7
:2007BC00DFF800F04D7101102DE9F04F09AFADF13C0D08900A92388809911E46ADF81800E4
:2007DC00101C08BF002000F07581017800274FF0010B401C4FF0FF39B846DA460A9061E14C
:2007FC00252940F056810178401C0A902D2918BFADF8068004D10178ADF806B0401C0A9022
:20081C0030291CBF4246434604D10178401C5A465B460A902A29CDF800804D4617D1049348
:20083C0030680A9BCDF80890C01C20F00300001D306050F8044C1978002C009403F1010088
:20085C000A9018D5ADF806A06442009413E044460AE0600000EBC4004018A0F130040A983B
:20087C0001780094401C0A90302901DB3A29F0DBCDF8089004932E2929D10178401C2A2989
:20089C000A9011D13168CDF80880C91C21F00301091D316051F8045C002D48BF4546017848
:2008BC002B46401C0A9011E0454643460AE0680000EBC5004018A0F130050A9801782B4604
:2008DC00401C0A90302901DB3A29F0DB02930AB1224604926C2904D04C2918BFADF8048077
:2008FC0004D10178ADF804A0401C0A900BA8CDF80C800FAB07906429059300F08280692951
:20091C007FD0BDF818C075296DD0782969D06F2965D070294ED063293ED0732922D00A98DC
:20093C00401E0A90099801281AD966490C68B5F1FF3F03D0A84288BF6D1C05D86FF00041D5
:20095C00814294BF0D1C099D029508A80AA932466B46A04709993F18091A0398099165E0F6
:20097C00454617E03068C01C20F00300001D306050F8040CBCF1010F014608B94FA0014652
:20099C00079108F06DFC0390B5F1FF3F4FD0A8424DD9039528464AE03068C01C20F00300E5
:2009BC00001D306010F8040C8DF82C005D46039558463CE0082035680490E81C20F0030040
:2009DC00001D306050F8041C082210230FA805F0D5FC401E079040210170079823E0082378
:2009FC0002E0102300E00A233068C01C20F00300001D306050F8041CAA42BCBF2A1C0492DA
:200A1C000DE03068C01C20F00300001D306050F8041CAA42BCBF2A1C04926FF009030FA8CC
:200A3C0005F0ACFC07900599081A0390009C241ABDF8065000945DB906E008A8202109AAFA
:200A5C0007F095FE7F1C009C641E0094F5D50398401EB0F1FF3F03900FD1BDF806000128AA
:200A7C001CD10098401E009018D408A8202109AA07F07DFE00987F1CF4E70798017809AA0C
:200A9C0008A807F074FE0798401C079003987F1CDEE708A809AA07F06AFE7F1C0A9801781C
:200ABC00401C0A9000297FF49BAE089808B14146017038460FB0BDE8F08FC046286E756C10
:200ADC006C2900C00CAA0000BB482DE9F84F0025BA4CB849056094F8E200002800F0658192
:200AFC00012800F02F81B64E02283CD0032840F05C8151F8250CD4F8B8100029A0F5C060B3
:200B1C00C4F8D400B8BF49420028B8BF4042814226DA4FF08057D7F8A4014568B4F8BC00A4
:200B3C0030214FF47F42082300903046A847D7F8A4014568B4F8C00004214FF4F802122300
:200B5C0000903046A847D7F8A401B4F8D070456820214FF440620A2330460097A847012502
:200B7C0084F8D8501CE151F8258C08F0D0FC2F4600B901273946934F38680028FCD0B146B8
:200B9C00012609F10409D9F82CA03E6009B108F0C4FCCAF30720C4F8BC0008F0B8FCAA4666
:200BBC0000B9B2463B68002BFCD0D9F800B0BAF1000F3E6001D008F0B0FCCBF38440C4F842
:200BDC00C00008F0A4FCAA4600B9B2463B68002BFCD0D9F81C90BAF1000F3E6001D008F0C8
:200BFC009CFCC9F38120C4F8D000B8F5C061C4F8B81000F09C8094F8D80068B9C4F8D410D5
:200C1C00D4F8C000C4F8C800D4F8BC70C4F8C470D4F8D030C4F8CC30D4F8D400D4F8BC30E4
:200C3C00002854BF02226FF0010204F1C8010F6800EB40008018421000EB927207EBA2000A
:200C5C000860D4F8C810C4F8C43000291CDD1E293CDDD4F8CC0030B93429B4BF15391E215C
:200C7C00C4F8C81025E02A29BABFD4F8C8000B381E20C4F8C800D4F8C4003F28B4BF401C94
:200C9C003F20C4F8C4001FE0D4F8CC00032812D011F10B0FC6BFD4F8C8000B30301CC4F83D
:200CBC00C800D4F8C4000028C4BF401E051CC4F8C450032508E011F1150FC6BFD4F8C80077
:200CDC001530301CC4F8C800C4F8CC504FF08057D7F8A401B4F8C43030214FF47F424568DF
:200CFC00374800930823A847D7F8A40104214FF400321123456832480096A847B4F8C860EA
:200D1C00D7F8A40104214FF4F802122345682C480096A847D7F8A40120214FF440620A233F
:200D3C00B4F8CC60456826480096A84701E084F8D85040F2FF50404502D8801C40452FD298
:200D5C00082030E051F8251C1F4F4BF2F5204843060A3868C0F3814001280CD11B48006875
:200D7C000068804706F0FEFD08F0DDFB3111C010484306EBE03694F8E50030B914480068A5
:200D9C0020F07F403618760801E084F8E5501148310C0660012741600F4D8760287808B9A1
:200DBC000B2000E0052084F8E40001F0C5FDBDE8F88FC0462D400C402C500C40A808002051
:200DDC0000A00C4000800C40B43F0050EC010010102009403C600C40D5A800002DE9F04FCC
:200DFC00754F1E46ADF1340D01914FEA960902923D680090710809F1020221F0010105EB23
:200E1C008200091D0390901805EB80000490501805EB80038018059305EB8000079026F0A7
:200E3C00030000F1080802EB080005EB800340180893801805EB80000990C6F39C008000C1
:200E5C00083002EB4000411805EB800305EB810B0A938918831805EB8104404405EB830381
:200E7C00C6F3990105EB80008900069038680B930A010021803205F083F84849DFF820A1BF
:200E9C0009682846AAF1880290470746B94518BF6FF001007ED128465546394605F16802A2
:200EBC0090470198314607F003FF002818BF012070D10298314607F0FBFE002818BF0220B3
:200EDC0068D103980199A84704980299A847009881680598A847334B0399059A2046994668
:200EFC00C847012802D1BD0066590EB1032051E020460021424605F043F80499059A20465B
:200F1C00C847012801D166590EB1042042E0274B254D079803991E462A46B04708980499C0
:200F3C002A46B047079909980A46B0470A980999079AB0471E4D0B9807992A46B04720464F
:200F5C000021282205F01CF81A4B0A990B9A20469946C847203520462A460146C8470899DE
:200F7C0058460A46B04706980021424605F008F8FDB25846002D0CBF0122FAB20021635C40
:200F9C00455CAB4218BF052004D1491C521EC9B2F5D100200DB0BDE8F08FC0468C4F0020BE
:200FBC00B9DB0010C9DE00107C0D0020F9E0001084A60000C9E60010884F00200168064A8F
:200FDC0003201060054801220270C868407810B9034808F0AABB7047884702406A180020BD
:040FFC00F40A0020D3
:20100000B41200001810000015AB0110FDB301106DC00110FDAE011099B5011000000000F7
:08102000000000002D0000009B
:20102800B01200003C100000B1C00110A9BF011067C0011069B80110000000000000000035
:041048003000000074
:20104C00B012000060100000BDC00110CDB30110D9BD01106DB3011000000000000000005B
:04106C00310000004F
:20107000000000006C0E002004000000000000000000000020000000E8C9011030000000B0
:2010900028100000740E00200400000000000000000000000C000000D8CA0110180000008B
:2010B0004C1000007C0E002004000000000000000000000024000000F0CA0110180000000F
:2010D00000000000840E00200400000000000000000000001000000018CA01102C0000001B
:2010F00000100000940E0020040000000000000000000000200000006CCA0110240000007F
:20111000FFFFFFFF9C0E00200400000000000000000000002800000090CA0110240000003E
:20113000FFFFFFFFA40E00200400000000000000000000001400000008CB011018000000BD
:20115000FFFFFFFFAC0E002004000000000000000000000058000000B4C90110340000008B
:20117000FFFFFFFFB40E00200400000000000000000000001000000020CB01101800000059
:20119000FFFFFFFFBC0E00200400000000000000000000001C000000B4CA01102400000086
:2011B000FFFFFFFFC40E00200400000000000000000000003800000044CA011028000000AE
:2011D000FFFFFFFFCC0E00200400000000000000000000005400000078C901103C00000023
:0811F0000100000000AA00004C
:0411F80001000000F2
:0411FC0000000E00E1
:0412000000000F00DB
:0412040032000000B4
:0412080001000000E1
:04120C00DC0D0020D5
:0412100000020000D8
:0412140000000000D6
:0412180001C90110F7
:04121C0000000000CE
:0412200000000000CA
:0412240008000000BE
:0412280000002200A0
:04122C00500C002042
:0412300000000000BA
:0412340000000000B6
:0412380008000000AA
:04123C009C0D0020E5
:0412400000000000AA
:0412440000000000A6
:04124800080000009A
:04124C00000000009E
:04125000000000009A
:041254000000000096
:041258000000000092
:04125C00010000008D
:04126000E80C002076
:041264000600000080
:041268000100000081
:04126C00800B0020D3
:04127000000000007A
:041274000000000076
:041278000002000070
:04127C00000000006E
:02128000290043
:02128200010069
:02128400250043
:02128600300036
:02128800310033
:02128A002D0035
:02128C0001005F
:01128E00015E
:0812900003000000A0A900000A
:0812980000000000000000004E
:0412A0000000010049
:0412A4000000030043
:0412A80013C401105A
:0412AC00B1910000FC
:0412B000B812000070
:0412B400B81200006C
:0412B8000000000032
:0412BC00400E0020C0
:0412C0000393000094
:0412C4002000000006
:0412C80018A9000061
:0412CC00BCA70000BB
:0412D00029C101101F
:0412D4000B8B000080
:0412D800278D00005E
:0412DC00A1C7011095
:0412E000A3C701108F
:0412E4000000000006
:0412E800D1A9000088
:0412EC00C8A5000091
:0412F000E0A5000075
:0412F400B0A50000A1
:0212F8000200F2
:0212FA000900E9
:0212FC000100EF
:0212FE000000EE
:0113000001EB
:0413040091920000C2
:04130800B57E0000AE
:04130C003D8A000016
:0413100095810000C3
:04131400ED7E00006A
:041318009D740000C0
:04131C006D59000007
:04132000F99400003C
:04132400556D000003
:0413280015C70110D4
:04132C0025C70110C0
:201330002DE9F84FDFF8B8A20F460446F80B80F00B81A64EDFF88882B80F80F0BC80B80869
:2013500080F0B0803809C0F03181082008F004F9002840F0A280802008F0FEF8002840F0BD
:201370009C80684603F046FE012803D10098002800F0938091480078002840F08E800025C0
:201390000124E8B207F054FF48B1837A3BB1847290F9090004FA00F0C0B206F087FC6D1C68
:2013B000032DEED345464FF0030905F1AC0085F8109008F0AAF98348002301680360824977
:2013D00050F8082C98461A4640F8088C05F1340008F0A5F93068006B8047A968401A010B76
:2013F000A869C1F1FF3282422CBF08444FF0FF30A861287F20B1E868A969B1EBC02F1ED91B
:2014100007F0BCFB414600B12146081C14D0704840F60901018041464180427B64F303028D
:201430004273027B61F303020273416007F0A2FF418811F4406FFBD02C774146A96165483A
:20145000016821F0020141F400710160624941F8049C41F230028A600C6050268E600C60E9
:201470004FF4CA628A600C6041F80C4C44460460022006F09DFD112003F012F8287818B9C7
:201490006868383008F057F9687F18B16C77052006F08EFD514868612C7405F081FA27F0FA
:2014B000080783E002F060FB45467435286808B927F002077AE008F02CF9B3468146DBF8AE
:2014D0005400016804208847D8B1207CC8B1454608352868A8B10646DBF80000E568006B26
:2014F0008047801BE060000BE060A84202D240194008E06040F6C41181422CBFB0F5FA7F79
:20151000E160484608F0B8FA06F0B4FB90B1A56920466FF4807100224FF00073A847464645
:2015300006F16C052868002808BF47F0020701D005F036FA2046646900214FF080630A46B8
:20155000A04727F0005731E008F0E3F851460E6846B306F1280106C90A234FF0E0450B4071
:20157000154008BF002B1DD106F1280191E8300006F1280393E8060006F12803AA43A143C7
:2015900083E8060008F078FAB16869B1002D08BF002C09D030692246B6F93C10B4682B46AB
:2015B000A04701E008F068FA27F4804727B150463946503008F0C7F8BDE8F88FA1100020F6
:2015D000080F002014100440F96C00008C010010E4170020000004600C41044031430000D6
:2015F000880F00202DE9F04F8246DAF80070DAF804600C465FEA0208ADF11C0D14BF00212F
:201610004FF0FF31DFF84492484607F060FE002818BF0B2040F01681002590488D49057082
:201630008B48FC60524608F07AF8317B272008F078F8B8F1010F07D06570022006F068FE2B
:20165000062006F065FE01E0012060702078012840F2AB80801E012868D9801E012833D930
:20167000801E012800F2DF8008F053F883464FF0805000F5EE77D0F8DC01A378466A0093CA
:2016900021782846062908BF0120019001200290A068228AE1686368B0478146584608F0BC
:2016B000EBF9B9F1000F40F0C080B8F1000F02D007F0BEFC02E0504606F0FCFC002800F054
:2016D000A4803868806A2AE008F023F883464FF0805000F5EE77D0F8DC0101230668009333
:2016F000A168A27860682478AC46042C08BF9C466346B0478146584608F0BEF9B9F1000F1B
:2017100040F09380B8F1000F02D007F091FC02E0504606F0CFFC002877D0386840688047B1
:201730004D49C1F8B0510D6081467EE007F0F1FF83464FF0805000F5EE76D0F8DC01E38A8D
:2017500087690093E0680190208B0290A0780390207D04900121059122782846022A08BF51
:20177000081CE1786268A368B8478146584608F083F9B9F1000F58D1B8F1000F02D007F0CC
:2017900057FC02E0504606F095FC00283DD03068006A80475FEA000947D13068C569A168B0
:2017B000E28A2369E078A847BEE707F0B2FF83464FF0805000F5EE76D0F8DC01E38AC7681B
:2017D0000093E0680190208B0290A0780390207D2946049001200590257805B9014608465F
:2017F0006268A368E178B8478146584608F044F9B9F1000F19D1B8F1000F02D007F018FCDA
:2018100002E0504606F056FC08B914201AE03068406980475FEA000907D13068026921694A
:20183000E078904780E74FF0FF39B8F1010F05D0022006F0BDFB062006F0BAFB034807F01A
:201850007AFF484607B0BDE8F08FC046D80A0020100B0020D90F0000504502406A180020F2
:201870002DE9FE4F05467B48002400680094C00905D37948007810B9202006F035FC012D8F
:2018900040F0E280DFF80092D9F8DC00012840F0D8800220C9F8DC0007F05EFB012006F0B9
:2018B00023FC5FEA000805D00120C9F8DC0007F05FFBCBE007F043FFA34602906748684D01
:2018D000C0F800B0A86A016801208847012804D1584604F033FE012000906248624FC0F8A0
:2018F00000B03868112007F031FE00B10124102007F02CFE08B144F002040F2007F026FECD
:2019100008B144F004040B2007F020FE20B12868564E016B308888470A2007F017FE20B183
:201930002868534E016B308888475248012606602868816944F0200088474F48066007F0BB
:20195000FFFD00F001010191400814D2286A81684A4888478246BAF1040FF7D0BAF1010FE5
:2019700004D1286A42684548032190474449086820F003000860584600F088F82B68386805
:20199000986B8047019801280CD0BAF1010F04D1286A42683948314690473949086840F012
:2019B000030008602F48066028684169204688470B2007F0CBFD20B128682C4BC16A1888D3
:2019D00088470A2007F0C2FD20B12868284BC16A18888847274806600322C9F8DC20264BB2
:2019F000C3F800B02868416B204688470128F9D13868042006F078FB04461848066038682B
:201A1000144800688009FBD30098012802D1304604F094FD07F087FD082006F065FB0746C6
:201A30000298C9F8DC6008F023F81648008804F0CBFB07F09DFA57EA040018BF4FF0FF382C
:201A500004E06FF0040801E06FF001084046BDE8FE8FC04614100940900900200C40094065
:201A7000B8010010000222432C20094092A500008EA500002820086080010443004003402C
:201A900024220840D0A80000A80800202DE9F84FDFF804B20746ABF13500DFF8F0810068A8
:201AB000800880F0E28075480068006880477E490831D1F8009000254FEA29715FEA9952E3
:201AD00001F101010AD2C0F13E0210F10A0F4FEAE202D8BF08229142B8BF111C684BD3F848
:201AF0007C21C2F30462162AA8BF203A1B68C3F30443162BA8BF203B9A465218162A05DA31
:201B100012F10A0FB8BF6FF0090200E015225D4B5D4E02F01F0141F4F8511980316811F08B
:201B3000030F18BF0125C90828BF45F002050FB145F00405434693F90710411A052904DA01
:201B50009979A94208BF99886FD0DFF844E10F28A0F10F0829DB08EB0011A1F1F0084FEAAB
:201B700028210091072984BF07210091062988BF06215EF821600424774604EB81043C59ED
:201B90004FEA950CA41BEE0804F0FF0124BFC4F3072631446F08AE0824BFC4F307463144ED
:201BB0006E0828BF01EB146104E000214FEA950C6F080091009C5EF824E05FEA5C060EF0D1
:201BD000FF0424BFCEF3072634447E0824BFCEF3074634446E0828BF04EB1E64009E89B213
:201BF000A8EB06267143803104EB1124AAEB02010029D8BF0121342209F0FF074A4391B2EE
:201C10004FF6FF727943B1FBF4F18A4238BF111C802889B2998005DA10F1800FB8BF6FF080
:201C30007F0000E07F20D8719D711A4800681F2918604FF0000008D340F2FF128A4206D2B4
:201C50004908401C8A42FBD301E01F219980134F0F39090940EAC10047EA0001CBF8FB1F3D
:201C70000026CBF8FF6FBDE8F88F0D490D4F434608200F609B1D1870BDE8F88FEC01001096
:201C90003C1100506E62084024220840501800209C130050082009403500094000E7A48070
:201CB00030100940FDFDA400AC3F00502DE9F04F044672488E46016894461F46BEF1000F1F
:201CD000ADF13C0D4DD0BCF1000F4AD09EF8002001209040014244D0BCF80000B0F5C15FA3
:201CF00032D1DCF81400DCF81860654BDCF81C50DFF890A10B904FF003080DF128090C96EF
:201D100018680D95C0F3036B59F8046FCEB10021351F05200B4655F8042FB2F1FF3F10D001
:201D3000924506D0401E01F1040103F10103F2D107E0052B05DA705820F4702040EA0B40FF
:201D50007050B8F10108DFD1C4F804E0C4F808C007F0DFFC4C4D8046287820B1404607F00E
:201D70008BFE002087E001F0A9FA4849086840F00200086007A807F005FB002605F1D00082
:201D900007AA4349099605F04DFE424905F5827007AA05F047FE07A807F0C4FAFF201921F8
:201DB00007AB3D4A089005F1340005F085FD3B4A05F150001A2107AB05F07EFD3849324680
:201DD00005F18800134605F04BF93649324605F1AC00134605F044F9334A05F12000042107
:201DF000334606F0F3FC0E2002F014FC05F1740007F0F6F905F16C0007F0F2F92E740523E7
:201E1000EB60072085F898012E77AE616E772849AE60264A69612B781670581C287040461D
:201E300007F02AFEB1461FB9684607F0E3F96F4638682060388A6082012060747B6813B906
:201E500040F6C4130646E3601A48A06126746061F86800B1A061B86800B16061494658226B
:201E700004F1200004F092F804F13800494606F0C1FB6C6020460FB0BDE8F08FD4210840FF
:201E9000541300500200F844080F002000200940B18F0000A1410000F96C00005967000056
:201EB0006D8B0000B58D00004D72000064180020314300008B5A00002DE9F047784C04F11E
:201ED00008012046ADF1280D05F01AF904F11C050021284607F0C8FD4FF080400021E560E2
:201EF00004F04AFE4FF0010A0227606000258DF821A05146ADF816500DF121028DF822701E
:201F100040F2023001F098FB40F2033039460DF1160201F091FB40F20530192104F1280292
:201F300001F08AFB04F114024FF44170082101F083FB40F2063051460DF1220201F07CFBFB
:201F5000584E10200622A023314600F0C3FD10200722A023314600F0BDFD10200822A0232F
:201F7000314600F0B7FD10200922A023314600F0B1FD4D4E707878B904F11000306105F0C4
:201F9000C9FF0246284600900190029047490390B378102000F09EFD6068294632A30A469B
:201FB00006F0C1FB1436A84607F05AFDA06841464FF040424FF0FF3307F04EFD051CF3D0F2
:201FD000CDF8108005A808A904AA06F00FF918B9049808B107F069FBE80FE5D3E06807F023
:201FF00037FD0028E0D1E068054607F02DFD854208BF454602D0856805F0A6FF002DEDD0B4
:20201000288801282BD16168A8788946401E12D0401E0DD0401E09D0401E05D04846394631
:20203000424607F068FA1AE013A302E014A300E015A308460FE0316806A80160B1888180AF
:2020500006A805F085F8034651464246484606F06AFB60680FA33946424606F064FB2846BB
:2020700005F072FFBAE7C046424C452042726F6164636173746572004572726F7200C046D6
:2020900057616974696E67004164766572746973696E6700496E697469616C697A65640067
:2020B000080200209180000030050020618A00002DE9F04F754C04F10C012046ADF12C0D40
:2020D00005F01EF80026667005F00CFE70494FF0010B4FF0040803204FF47A72A0710968C7
:2020F00084F802B00720E671B2FBF1F1207289B204F10900079100F10B0900F1110A0670AB
:2021100000F13601089100F117010991E068634A31464FF0FF3307F09FFC071CF6D030467D
:20213000029006A902AA03A806F060F800287AD1BDF80C00102872D120789DF818108842DB
:202150006DD1029D2878D02869D1A978081C46D0801E22D0401E01283ED86D78002D56D1FF
:20217000032917D0658995B1E3788BB14C4807F0FCFA10B14A4807F063FC07984543484890
:20219000294607F059FC464807F052FC00E0E670032000E0022060703BE06B78002B36D146
:2021B000EB7853B96078022814D03D4807F0DDFA80B9584607F0FEF80CE005F0ABFE0246D1
:2021D000607935490090089833460190102000F081FC68706D78D5B9012E1AD01FE06B787B
:2021F000ABB9ED1C286849460860AB888B8084F801B005F08FFE02465B46099D2079264957
:2022100000901020019500F065FCC0B208B184F8018025691DB1296809B1607888470298F7
:2022300008B107F042FA7808FFF470AFE07800283FF46CAFA079E7798DF80E0052468DF819
:202250000F70116804AD29609188A980637A8DF81730207A8DF8160005F05CFE0D4902462F
:202270000DF10E03102000F035FC00283FF44EAF206984F8018000283FF448AF016800292C
:202290003FF444AF4046884740E7C04630050020FCA90000594401100945011001000080FE
:2022B000900500202DE9F0430546880FADF1140DC0F0BF80604C201D006840688768C6686A
:2022D000406800B18047002F08BF002E08D006F09BFF07B1B84706B1B047584806F062FAEB
:2022F000574807F047F8574A40F60A0CA2F800C000205080117B60F3030111735060517BDF
:202310004FF0010969F303015173AB686E7C58801988A1F60201C9B141F21E07C91B15D095
:2023300041F6E677C91B012920D8597E012E60F38201597606D0198B21F47C7141F43471F2
:20235000198313E0198B60F30911F9E7597C012E60F38201597405D0198A21F47C7141F497
:20237000347102E0198A60F309111982D5F8088068746146464600E03E46776817B13B88E9
:202390009942F9D17260737B60F303037373E76E3FB1FB681B88CF1F9F421AD0891F994202
:2023B00017D02F8CB7B1686205F12001488095F82C3060F3030385F82C3095F82D3069F3F9
:2023D000030385F82D305160517B60F30301517300E0A0601C4801688768C56800911022E9
:2023F0006946406B019720F0784040F0805003901648029502F0E8FE06F006FF144860619B
:20241000607F68B91348006801684846884701280CD0707B69F3030070730F4F676105E0E6
:2024300005F0AAF90028FBD007F081F9404606F0A1FF05B0BDE8F083080F00200100070662
:2024500001010E04E41700204C1300501800002131130000E0010010BD6E00002DE9F04FA0
:20247000ADF1240D079000F029FF5F48007806F05FFA5E4D0024012806D90C3804D0401E13
:202490000ED0401E09D006E006F04EFD022804BF01210C1C06D0696805E005211F2401E0E3
:2024B000032107246960524A1068C0F38150012806D152F80C0C0127020E07FA02F0044388
:2024D00006F050FF05F1440AFF2253464018401E471C28607F1E03F8012BFBD1079A12685D
:2024F000002602F0FF03FE2B1DD0DDF81CC0964633460EF0FF07FF2F0ED0B84205D3B942B9
:2025100003D80122BA40144201D0022069E016430EF0FF020AF802305CF804EF5B1C0EF0D9
:20253000FF07FE2FE7D1092002F074F807980121A86005F1280006F05DF800274FF0010B75
:20255000B9462846804600F198050BFA07F0044216D1064204BF07F0FF0141F4C04104D075
:202570001AF80700079951F82010224801F084FAF8B24FF0FF3106F0D1FAC5F8009001E038
:2025900004202860D8F800007F1C2D1D8742DCD904A806F0C7FE184C184A2078102104ABA7
:2025B000059008F10C0005F087F9684606F0EAFECDF80C906A4660681149029008F164004E
:2025D00005F030FA0F4951F80D0C20F4F85040F4005041F80D0C0C4FC1F8FFBF4846C7F8C1
:2025F00000B009B0BDE8F08F6B18002094070020B43F0050007FC767B4A90000998D00006D
:20261000497700000D300940080009402DE9F04F0746ADF1140D0393002F02920E98019121
:202630000F9C049000F0B680081C00F0B380101C00F0B080181C00F0AD800498002800F08D
:20265000A980002C00F0AB80206A002800F0A280564D666A281D0068002E00F09B80A16AD2
:2026700007F0E2F940B2002808BF6FF0020700F08D8084F82C002078618800EB800009187D
:20269000143188B2216A88474749086030B92846406807F0C5F94FF0FF3777E08B4662881E
:2026B00023786088DBF8001025789E1800EB010A701800F1040805EB450002EB43068518CE
:2026D00076186D18C01805F10C098018401800F11005204604F04AFE2078C01C8010CAF896
:2026F00000002078C01C8010C8F8000020780836C01C801030602078C01C8010C9F800006F
:202710002078C01C80102860227839460AF1040002F05AFD2278019908F1040002F054FD48
:2027300022780299301D02F04FFD2378204641463246FEF759FB071C12D1009550464146C8
:2027500032464B4607F068F947B22278039809F1040102F039FD22780498291D02F034FD14
:2027700021786288DBF8000001EB81015218002103F00CFC616ADBF8000088470B48406897
:2027900007F04EF9F8B2992808BF002784F82C70384606E01CB16FF0010084F82C006FF0E2
:2027B000010005B0BDE8F08F884F0020740D00207CB5554A554813785549002B77D05B1E16
:2027D000032B08D9083B012B54D99B1E012B6FD99B1E74D08FE04F494F4C504A0A604FF42B
:2027F000A05365884E4A0580002D3CD06D1E3FD06D1E38D040F2FE36AD1B1AD02D1F012DD4
:2028100020D94FF47F76AD1B1ED04FF44066AD1B0FD0AD1E012D0CD92D1F0AD06D1E012D74
:2028300010D940F2F936AD1B012D1CD92D1F0BD061E003800A6001213A4A1078BDE87C406F
:2028500001F0CEBD384AF5E7384805682E7A012E05D141F20240608060836086EAE7638022
:2028700063836386E6E7002006F0E2FA832046E08F2044E04A88028040F2044082421CBFB5
:2028900041F2084082423ED041F60400824211D1274C284A2568284800680023CDE90023B4
:2028B00055F8086F254B0222B0472549088073BD4A880280002006F0BBFA85201FE04A88FE
:2028D0000280022A0DD940F20440121A1BD040F6FC70121A05D0083A15D04FF47F70121A9F
:2028F000E8D1887B801CC2B2B52AA8BF662088730020488073BD002006F09AFA8420BDE82A
:20291000764007F085B873BD6F4F0020504F0020CC4C0020204F0020204A0020EB9600001E
:20293000615A01106E4F0020755B0110104F0020F04E002002000080EC4E00205D86000061
:20295000424F00202DE9F843614C5A4D5A4EDFF870815E4F94F8E4100846401E0B2864D859
:20297000DFE800F07B2C43062343062343067664042907D001220A2945F8212C14BF022015
:20299000032004E0202045F8210C0120024684F8E200002045F8390C0827C5F8FF7FC5F8E6
:2029B000F37F45F8392CBDE8F883052914BF09200620002784F8E400376075E094F8E17033
:2029D000383D0120002FC5F81B0004BF0620002102D00021F160032084F8E400032045F819
:2029F000010C3160306880085ED294F8E4103348012703290ED000684568002160220523CC
:202A100000914046A84794F8E400062814BF0A200720CFE700684568002160220523022026
:202A300000904046A8470420C4E7FEE72548264F0026012506600E203D6001F031FD02202D
:202A500005F0B6FA84F8E45084F8E360BDE8F883002038600C25786024E04FF08059D9F884
:202A7000A0010168202088472C3D0F2045F8010C41F61D56C5F80360D9F8A401466800213C
:202A90004FF4C0720723022540460095B047D9F8A401C66800214FF4C07207234046B0476D
:202AB0000120386084F8E45004F1780006F02BFEBDE8F88339400C4038600C40A401001093
:202AD00000A00C402C500C4004800C4034600C40A80800200FB42DE9F04106AF8046ADF18F
:202AF000280D06F093FD3E1D26F00306361D30F0010001D102F045F8CDF81A601420ADF804
:202B100016000025CDF80E50FF248DF818407B68CDF81E3006F078FF064606F077FD30F00E
:202B3000010015D006F0D8F94D492A468446062031F80C7F4FB14B681B689E4204D0401EE6
:202B500002F10102F4D100E0D4B2604606F0DBFA404605F013FA0146FF2905D0204603227C
:202B70000DF11A0303F054FD06F04EFF05F0EAFCA8460746CDF8008006F048FD30F00100EC
:202B900063D0002F61D041F2883001A905F078FB009C002853D106F063FF01990126451837
:202BB0007868019B41464FF0005206F055FF00282BD00DF122000DF1230102AA03F050FFD4
:202BD000B0B99DF8220003A905F072FB38B9029A06F0FEFC00281CBF029C464615D102998C
:202BF000684605F098FC78684FF0005106F008FF0198B0F1FF3FD3D00028D1D006F030FF18
:202C1000281A02D00199814217D206F093F807F10805009F06F060F901463FB13A4652F8D5
:202C30000C0C40B9286842F80C0C2F60084606F06AFA304603E00246F1E70190B0E720B9E0
:202C50002CB1204606F031FD01E001F09AFFDDF81A0000680AB0BDE8F04104B07047C0463A
:202C7000040A00202DE9FF4104466668A7680D4606F04FFD3178012903D106F0FDFE00204C
:202C90008EE00121317006F0F7FE287870706878B07068687060A868B060E868F060286997
:202CB0003061287D3075687D7075A87DB075A869B061287F3077687F7077A87F4FF0000869
:202CD00043461D4686F82851B07786F82951C6F82080336375627563B562B56386F82C5016
:202CF00086F82D50786801F095FC204602F0BAFA204602F003FB60B9386805F0FFFE78687A
:202D100001F0CEFB06F005FD357006F0B5FE2C4645E0684606F006FB0094387B224A019023
:202D3000B9686B4606F17C0004F0C6FD684606F029FB00941D4938696A46029006F1980053
:202D500004F070FEB07830B906F1CC00294605F051FC17483061707830B906F1E80029466D
:202D700005F048FC1348F060684606F05BFC01958DF800501049029406F582700A226B4640
:202D900004F06EF9B969FA6906F13C0006F096FA0A4A06F168000421234605F017FD2046DA
:202DB0000090BDE8FF81C046D12D0000CF6A0000939600008B960000E57400006594000075
:202DD0002DE9F84F8046D8F808603068D8F80450076CDFF830B14764AB6B6A6C286C17F46B
:202DF000F06F1946A0EB020934D1F8091ED2780974D3B1B196F821205846801D845C601EE7
:202E1000814294BF1C1C641E4046214605F055FBA86B001BA86361D105F19800012106F08F
:202E300092FC4046494605F05DFD57E00029F8D0404605F042FB95F82D10A86311B90028E9
:202E50004CD101E00020A86305F19800012106F07AFC43E0F80A20D24FF0000A544602E041
:202E7000AB6B5B1EAB6393B14046012105F025FB3068446814F00F04C0F804A0F0D0286B9A
:202E9000401E2863686B401E6863A86BE8B905F19800012106F057FC13E030684468002237
:202EB000202904F00F044260CCBF4FF0200A9A464046514605F001FBCAF120008145C8BF06
:202ED00081464946404605F00DFDEC77404604F027FA726A12B1404621469047B8090FD303
:202EF000A96A69B10F46404605F0FEFAA86238B996F820205946895C4046C91904F050F9DB
:202F1000BDE8F88F4CA600007CB54E4D044668680E4628B94FF00040002103F02DFE6860E2
:202F3000002127A30A4605F0FEFB204628A3801E04D0801E37D0401E22D00EE06868012ED3
:202F500005D000210A4605F0EEFB24A331E000210A4605F0E8FB26A32BE0686800210A4607
:202F700005F0E1FB68680221002227A305F0DBFB01208DF801009DF801000028FBD17CBD5C
:202F9000686800210A4605F0CEFB68680221002223A305F0C8FB01208DF800009DF8000054
:202FB0000028FBD17CBD686800210A4605F0BBFB1FA368680221002205F0B5FB7CBDC0462D
:202FD0003E3E3E535441434B20415353455254002A2A2A4552524F522A2A2A003E3E204954
:202FF0004E5445524E414C204552524F522100C03E3E20494E5445524E414C204657204507
:2030100052524F522100C0463E3E2044454641554C54205350494E4C4F434B2100C046C029
:203030003E3E204943414C4C2041424F525421003E3E204F5554204F46204D454D4F525984
:203050002100C0460802002078B50D46E80787B00BD506F0A7F928B1002181603C4800682C
:2030700000B1804785F0010070E0E80413D53948C11D0D3006F0C0FC3748426837480078C0
:203090004FF4805104F0F4FA10B18E2002F0C0FE85F480505AE0A80505D506F03EFA30495A
:2030B00001200860FEE7680504D502F056FA85F480604BE0680405D5812002F0A9FE85F48D
:2030D000804043E0A90440D5264C206810B1002005F0AEFE244E4FF0FF30206006F088FCE5
:2030F0003168224C51F8202F684690472049214B486A8A6A009001920293C86A0268086A5B
:203110000392ADF810000A6B1178002904BF5068002805D19068002804BFD068002806D09C
:203130002170506860609168A160D068E06021463468114A266811486B46B0471049086056
:2031500000F08EFB85F4005000E0002008B070BD204F0020AC450020784E00206E4F0020D5
:20317000FC002043044F0020F04E002068450020180C0020A59300002C4D002020170020D6
:20319000EC4E00202DE9FC4705466E68D5F8088037780FB1B76B1FB14FF0FF30BDE8FC87FF
:2031B00031630024F477171C74631BD006F13C0906F0AFFA82466946484604F09CFB002854
:2031D0001ED4504606F058FC9DF80000316B0870306B736B7F1E00F10100306303F10100D4
:2031F0007063E5D17078726B316B0128A1EB0201316303D1F36828469847726B144659E09D
:20321000B763D8F80010086B40F400700863D8F80010886B40F4FA608863504606F02CFC22
:2032300006F5947005F01AFD707806F5947768BB06F06FFA96F82D1069B1716B59B1B16B1C
:2032500049B1B46306F018FC06F5947005F0F6FC706BBDE8FC8706F00FFC716806F1E8059C
:20327000284606F034F80028F2D0B4632846214606F02DF80028EBD0384605F0DFFC102755
:20329000716B306BF777401A3063E1E706F041FA96F82D1061B1716B51B1B16B41B1B46373
:2032B00006F0EAFB06F19800012106F04CFA01E006F0E2FB2046BDE8FC8770472DE9FF47E1
:2032D000484C94F8E700002876D13E4E01273C48F57C84F8E770736884F8E6500068C4F83B
:2032F0001031C0F3801084F8E800684606F09AF9002504F10C0001956B468DF800503249E2
:2033100002952A4603F0ACFE304904F130006B462A4603F0A5FE2E4904F154006B4681466C
:203330002A4603F09DFEB16838468847DFF8B0802848327D08F104030078284E1868C0F3D2
:20335000815A22B1BAF1030F04D184F8E170BAF1030F17D0BAF1020F14D0BAF1010F0ED073
:20337000022004F0D5FF1C480068016804208847012804D030683221B1FBF0F10DE004F0D5
:20339000C9FB12E0022004F0C3FFBAF1030F0CBF4FF47A7142F210713068B1FBF0F1484671
:2033B00006F0AFF9484606F0AEF940460068C00802D2284604F0ACFF00200090BDE8FF87C2
:2033D00014100940C0A80000F7600000814D0000296300006B180020E00100105818002033
:2033F000B03F0050A80800202DE9F84F5FEA00091C46924600917DD0081C7BD0BAF1000FBE
:2034100078D0002C7BD0206A002873D03F4D616A281D006800296DD0A16A06F005FB40B28B
:20343000002808BF6FF002055FD084F82C002078618800EB400009180C3188B2216A8847B2
:203450003149AB46086030B9DBF8040006F0E8FA4FF0FF3549E08846668865882178D8F843
:2034700000008F192D183F1806EB41063618204603F07CFF2078C01C8010286020783F1D1E
:20349000C01C8010386020780836C01C8010306022784946281D01F097FE28463A463346EB
:2034B000014606F0A1FA45B2227800983B1D194601F08AFE22785046311D01F085FE217840
:2034D0006288D8F8000001EB41015218002102F05DFD616AD8F800008847DBF8040006F0E6
:2034F0009FFAE8B2992808BF002584F82C502846BDE8F88F1CB16FF0010084F82C006FF016
:203510000100BDE8F88FC046884F0020740D00202DE9F041FF2807461ED106F03BF810F0FD
:20353000070F16D0042004F015FC08B104200AE0012004F00FFC08B1012004E0022004F09B
:2035500009FC20B10220BDE8F04104F01FBC05F06FFC0020BDE8F08104F018FC8046012F2A
:20357000D8F80450334E04D0022F29D0042F3DD0EFE7022004F0EEFB80B1022004F006FC3A
:20359000074601207C6804F0E5FB28B1A0683118A86806F025FA88B13846DBE7042004F015
:2035B000D9FB28B1042004F0F1FB0746012026E0012004F0CFFB08B94FF000084046C9E7B9
:2035D000042004F0C7FB28B1042004F0DFFB0746022014E0012004F0BDFB28B1012004F018
:2035F000D5FB074602200AE00220E2E7012004F0B1FB88B1012004F0C9FB074604207C687F
:2036100004F0A8FB0028C7D0A0683118A86806F0E7F90028C0D1D1E7022004F09BFB30B10F
:20363000022004F0B3FB074604207C68E8E70420BFE700BF589EFFFFFEB5414E0C46174624
:20365000A0F20231082906D8DFE801F02F295F4E211A76130CC02A286EDA022C6CD13749B4
:203670003B8865E0012C67D13878042864DA093613E0012C60D1387808285DDA08360CE0E2
:20369000012C59D13878042856DAF61D05E0012C52D1387804284FDCB61D3070FEBD022C0C
:2036B0004AD138880A363080FEBD012C44D1F0783978F17058B9387800283DD070780128B1
:2036D00018BF032838D1012005F074FEFEBD387890BB707802282FD104F01CFC19490246C9
:2036F0001020FFF7F7F9FEBD06F13F0500211F22284602F04BFC39462246284601F064FDFE
:20371000747104F007FC00230FE006F1200500211F22284602F03AFC39462246284601F051
:2037300053FD347104F0F6FB012300940649019502461020FFF7CEF9FEBDC04691800000FB
:203750003005002099450110094501102DE9FE4304F038FBDFF80481814608F10200008892
:203770000027001F84B2042C5ADBFF254FF6FF7620466946042204F053FDBDF800309E4236
:2037900037D0002B35D0D80BC2032FD19D422DD0381FDDB280B2042815DBB0F5805F12DABA
:2037B00000F18852126801A90A60BDF804108D4207D0BDF80610401A001F80B20428ECDAC9
:2037D00001E0012300E00023BDF802001BBB211A001D8BB282B207F18851184604F020FD3B
:2037F000BDF80200C119091D8FB214E0BDF8020011E0BDF8020003466FF30E0363B9011D78
:203810008C4208DA002005F013FB484605F002FB0020BDE8FE83241A241FA4B2042CA7DA77
:2038300003F004FF3FB10C484FF088513A4605F0FEFE05F0DFFD484605F0ECFA424650782B
:2038500000281CBF0020011C03D1C7F58054391DA0B25180BDE8FE8304E00100DC0E002026
:2038700038B5334C334B2568186855F8183F00224FF0FF3198473048304A416B304C886823
:203890004179117006F0A8F82E4806F0A1F806F09BF82D48026800215171A02301680722A2
:2038B000CB804A72032103681972002201684A7700230268D3760021036883F85C1001221F
:2038D00001680A770123026882F85D300021006880F85E1004F0E2F81C48D0213022002352
:2038F000017042708370C370037143718371C37106F066F81649174B0020087018801B209F
:203910001549164B08804FF4A47215491A80FB20088040F64800134A13491080FB230B80EC
:20393000208006F049F811490020087032BD00BFF04E0020EC4E002014AA0000714F0020AA
:203950004E4F0020CC470020104F002048180020794F0020524F0020444F0020464F002057
:20397000484F00204A4F00204C4F00206F4F00202DE9F04391460A68D9F800401678804637
:2039900000271D463846ADF1140D531C242E0B605BD112F8016F5B1C4C2E0B600ED1AA6831
:2039B000E41C24F00304241D54F8040C414603F027F82968EF600127091A2960462E1AD193
:2039D000E41C24F00304241D54F8040CE41C029024F00304241D54F8040C00274146039094
:2039F000AA68ADF8047001A801F078F82968EF600127091A2960532E27D1E41C24F003043A
:203A1000241D54F8040CE861C9F80040288B0090A968EA69D8F800004B46FCF7CBFED8F81B
:203A30000040002754B1A968002902DD8142D8BF481ED8F800100918C8F80010D9F800404F
:203A50002968EF600127091A2960662E0AD12B8B23B9E41D24F00704083403E0E41C24F04E
:203A70000304241D1FB9E9690E700127EF60C9F8004005B0BDE8F0832DE9F84F0C46054607
:203A90005FFA84F8200824BF3148444031494FEA8803C85884EA00022A40C2F300672E4A6D
:203AB00005EA0406A843324005F4E0260243B6F5E02F01D1500E14D305F4E020074310D068
:203AD00002F4E027B7F5A02707D0B7F5803704BF22F4003242F4A02203E022F4803242F448
:203AF000C022DFF878B01E4F012000FA08FACBF800A0DFF87090CA500146386801FA08F617
:203B10000027064218BF0F1C37B9E80D04D34946C4F3805001F80800280E0DD305F0F9FD50
:203B3000210E34BF0021311C0D4A1268B24311430B4A116005F0A0FF37B1E80D04D348462F
:203B5000C4F3805100F80810CBF800A0BDE8F88F006000A000100840007F077FE02002606F
:203B7000D0200240002002402DE9F843384C143C606F656F04F17409002866D00646F06865
:203B900040F603020827531C02E040687F1EFFB260B15FB101888A4218BF8B42F5D13169EA
:203BB0004CC820314CC189C881E8890005F1280090E80C00002705F12806B84686E8800166
:203BD000A96879B138464FF0E24100EA020611EA03070EBF002E02400B40AE682869B5F9E6
:203BF0003C10B04705F095FD0646B4F986004746401C6FF31F30A4F88600484685F83F70F6
:203C100004F048FF304605F037FFB4F984106068B4F986300246994217D192F8701000290E
:203C30000CBF0068381C82F8707060B1B0F1FF3F0BD008490968AC34B0FBF1F1204605F03E
:203C500083FABDE8F88305F0ADF8BDE8F883C0461C0F002058180020F8B505F05EFC02F02E
:203C70000BFD05F06DFC054605F00C000C2854D0E80826D204F016FD2A4E376804460120B9
:203C9000014605F039F831686143884219D22649F020B0FBF7F0241A887C18B1C868A04287
:203CB00038BF041C214D2146284605F0C5FE284605F0BEFE0120FDF7D3FD284605F0C0FEBD
:203CD0002DE0280929D21A4CA4F1200620688168184888470746042FF8D01748690905D2EA
:203CF00027B101460A6822F0010203E001460A6842F001020A6098310A6842F003020A60F7
:203D100030688169202088470C4C37682068B86B804701202060206801E005F0EAFC05F0BF
:203D300002FCF8BDFCA90000C0A80000B4080020D8010010004003408C2108402C200940E1
:203D50002DE9F84F374E0446B0688047344D05F10802116809191160F168884728680028DB
:203D70005BD0A9464FF0000807463546C246A868804756461FFAA4F3834683B95FFA94F3FA
:203D90006BB93979E0B2884204DD79682046884209D20AE03879E1B2401A387108E079681A
:203DB0002046884201D3314601E07968091A7960B88878B9FB8853B9FB6843B13B8933B1BB
:203DD000B87A194600F00CFBF8687860B88808B9FB880BB13B896BB9B8F1000F04BF3868D0
:203DF000C9F8000003D03868C8F8000038683E46074601E0B8463F68E9685846884756B103
:203E1000B08828B9F08818B9B07A318900F0E8FA304605F0E7FA002FA9D1BDE8F88FC04653
:203E30001C180020BC09002033480178002900D17047F8B5491E032984B054D82F4C2068F1
:203E5000036803F10805062205F1080102A805F013F90622A91C684605F00EF9287800F0ED
:203E70000F010329C0F3801543D16179C009C1F38001884232D12169062202A804F09EFE09
:203E900060B36946284605F093FD38B31C4D2946684605F089FDFF2820D01A4A1A4F136812
:203EB0001D214843997A2E18002918BF02290AD0012918BF032911D12A5C711C384605F036
:203ED0006FFD10280AD06B46F21D3146384605F063FD06226946F01D05F0CEF821680A68B0
:203EF0000020107105E0002004F0A2FF862005F08FFD05B0F0BD00BF6F4F0020F44B0020F2
:203F1000AC450020104F0020CC4700202DE9F04707467D68BE6890468A4605F0FAFB8146D2
:203F30003068006B00F48071287800B119B1484605F0A2FD57E005F5827005F0E6FB00242F
:203F5000EC77C5F820A06C623168086B40F480700863484605F090FD05F2291004F07EFE58
:203F70004146384604F0C0FA05F22919A862A8B93846414603F014F9A878D0B9A96805F125
:203F9000CC0005F0A4F9E8B1AC621020E8773146284601F0BFFE05F2291022E005F0B9FB0F
:203FB0003268916B41F02001916305F065FDA87810B12046BDE8F087A96805F1CC0005F093
:203FD00086F910B9686ABDE8F0873846414603F0E7F81020AC623146E877284601F09AFEB9
:203FF000484604F02BFE4FF0FF30BDE8F08770472DE9F8430446994690460E1C44BF002028
:20401000011C5AD405F09BFB05468021304604F097F9071C04D097F83F1031F07F0106D187
:20403000284605F025FD02200021BDE8F8834FF0E0400A2107F1200640EA090941EA080869
:2040500096E8030008EA000019EA010608BF00281CD0284605F00CFD07F1200003C804F1B4
:20407000680604F1680508EA000809EA010986E8000395E80C0007F1200696E8030007F1D8
:2040900020059943904385E8030013E00C48B968884202D0B9682166B86004F1580080E853
:2040B0000003284605F0E4FC04F138004FF0FF3105F00DF9683494E80300BDE8F883C046D2
:2040D000B16D00002DE9FE4F894605460CAF97E803001E4601919046009005F01AFB2B4F18
:2040F0006FF0010A8346082007F5D07494F83F3033F07F033ED107F1AC0005F006FBB7F91C
:204110008400401C6FF31F30A7F88400C4F80C9084F83E80A660B7F88400009AA0870198B6
:20413000022320211343002242EA000616482561314004F118061840134686E8030004F1E0
:20415000200686E80C006363214623634FF0FF36A663802284F83F2007F16C0085F8703081
:2041700004F0A9FCF86E844201D102F019FCB4F93CA003E0401E04F14004B7D1584605F073
:204190007BFC5046BDE8FE8FFFEFFF9F080F00202DE9FE4FDFF8C08098F8990100284FD022
:2041B000002501212C4698F8992101FA04F0104203D1641C032CF6D342E098F899211020C3
:2041D000A040104218BF0D1C05F0A3FA98F899211121A1408A4388F8992105F04DFCE0B2D7
:2041F00005F026F860B3877A57B390F9099019490768012D446851F82960019710D0017AEC
:2042100002290DD100F1100191E8000C00274FF0805317EA0B0703EA0A0108BF002901D1F8
:2042300001F038FD012D04D0009600224FF0006303E000224FF00073009201984946A04794
:2042500098F8990120B108F58270002105F07BFABDE8FE8F94300440080F00202DE9F04121
:2042700016468846044605F054FA07462A488325B8F1080F32D8DFE808F0463F3C31372539
:20429000150533C00446207CD0B9E06EC0B9316804F1D00005F059FA316804F5827005F0AC
:2042B00054FA32E00446207C50B9E06E40B93168192005F036FA31681A2005F032FA24E069
:2042D000002522E0306828B1012807D1802003F0EDFC1AE0802004F081FD16E0032514E09B
:2042F00030780E49087010E0316804460C3421600BE03088608208E00120E668607406F1FC
:204310006000E06001E030682060384605F0B4FB2846BDE8F081C046080F0020A010002041
:2043300038B5274C0D46A80839D2E80846D32B4854380068006B8047A060E06E00280EBF1A
:2043500060680069606040681E4900780860022003F0DEFF112000F05DF901202074606887
:204370004168886808B9C86810B1174805F002F81649174D072000230860296815482B60A6
:204390006A686B60144B2A68636140EA02011A20296005F0C0F9192005F0BDF938BDFFF74E
:2043B000E3FB204600F17401096811B902F0F8FA38BDD03045F0020105F0C5F938BDC04649
:2043D000080F0020D021084051000706000004601410044002000040B5220000E001001029
:2043F0002DE9F843DFF8B0802A4E81460C4639F07F0018D1B9F1050F12DA284DA86880473D
:204410002349096831F81920144321F81940E9688847306841461431426A0868904734E0F9
:204430000320BDE8F883042004F0B8FA071C08BF04202BD04FF6FF7038807C8005F0E0F821
:2044500041468C78A7F10C05FF2802D0896A09184C79FF2C08D1384604F0C0FB3068806895
:2044700080470120BDE8F883484604F0D7FB33680146FF20A8721D68002220463B46A84738
:2044900018B1384604F0AAFBEBE70020BDE8F8835C180020E80E0020480D0020BC09002016
:2044B0002DE9B043044605F034F981462748221892F8F010491ECFB2002F82F8F0703FD17C
:2044D000254901EB84014A880C78904634F07F0718D1E1090FD24FF0805000F5DC75D0F846
:2044F000B8018169104688472868416B404688470228F9D11EE000EB8800D0F804110020F1
:20451000884717E04FF08055D5F8B801016A10468847D5F8B801816A40468847D5F8B8014F
:20453000016B404688470A4901200860094908688008FCD304F03F00132801DAFFF7B0FFC7
:20455000484605F099FA0020BDE8B083A8080020282008602820084064A50000294838B5C6
:20457000001D0468B4F1FF3F08BF002404F000F8032833D12448254B002501211038184AEC
:20459000056003F15C00224B0160181D00681160806C80471348006820B11348006820460A
:2045B00001F04CF9114812490560124C0A686FF35B4244EA020008600F490868C0F3013089
:2045D000012806D10A680D48104040F400320A6008600B4908680028FCD138BDFEE7C046E3
:2045F0000822044380012843000120438C210840482003400000390104000940FFFFFCFCCD
:204610000C006842181300509404604200600C40EC010010F8B5064605F07BF8264D074655
:20463000711991F8F000421C002881F8F0203ED1224C04EB8604267806F03F00132801DA79
:20465000FFF7E8FF648836F07F0018D1F0090FD24FF0805000F5DC75D0F8B8014169204633
:2046700088472868416B204688470128F9D11EE005EB8405D5F804110120884717E04FF078
:204690008055D5F8B801C16920468847D5F8B801416A20468847D5F8B801C16A2046884704
:2046B000074901200860074908688008FCD3384605F0E2F90020F8BDA808002064A50000FE
:2046D000282008602820084030B52648244908602548ADF1140DFDF7C1FE2448046824483F
:2046F00000680023D9070246206050080143D007801A4FF47A729941002300F0E3FE002944
:2047100008BFB0F1004F28BF6FF000406060194C0025032004F1240141F80C5F401E8D60D6
:20473000FAD104F154010620401E21F80C5BFBD101F012FD62681048039241680191036827
:20475000009381680291684602F09AF803F0F2F803F04AF905F01CF9284605B030BDC046D5
:20477000E00E0020192F000038A50000300E0020FCA90000BC090020A8A800002DE9F04177
:2047900014460F4605F000F91FFA80F824480068007808B904F05AFB0FB338684FF0FF35B0
:2047B00018B140280AD3810B08D17E681EB1310A04D0310E02D1B9680F2908D93DB10CB1BB
:2047D000284620700820FFF76BFE002422E04FF08055D5F8CC11BA680B68796808E04FF0C3
:2047F0008055D5F8CC01036801224FF48070014698470C49012008600B4905F5E67508685C
:204810004008FCD328684168022088470CB1002121700446404605F02FF92046BDE8F0816F
:2048300014A50000A8025042088002402DE9FF41284C2068002849D08578274F05F0A0F816
:2048500080B1032D05D00A2004F0E6FB06460B2016E0282004F0E0FB0646292004F0DCFB2F
:20487000804620E005F088F828B1062004F0D4FB0646072004E0082004F0CEFB064609207A
:2048900004F0CAFB8046012D12BF042D3878032809D12068C178022908BF002102D00329D2
:2048B00014D10121C170387805F062F82168CA7A03920C1D8B7A029301940346C9780091DC
:2048D0002A464146304605F04FF800E0012004B0BDE8F0819C4E0020594F00202DE9FF412C
:2048F000284B4768866814460D4601A81A68998802609B798180A5428371A8BF2C1CB16885
:20491000786804F0E4FC78BB4FF00008CDF80080F068318A6D1C16A22B4604F0EAFAA41CB7
:204930000246AC4213D9641BF06801A90B688018036089888180308A921D801A082804D23B
:204950003868F16804F08CFE4246641EECD1F0680BA10988801801803868F168921C04F0C0
:204970007FFE786804F0E7FE0090BDE8FF81C0461B371B5B3130721B5B25643B2564480090
:204990001B3800C0C4A900002DE9F84F1F468B46161C14BF4FF080484FF0005804F0B9FEA6
:2049B000DFF884A0002503248146BBF1FF3F06D15046C36F002B0CBFC06EC06F03E058467C
:2049D000294603F0BDFC40B390F83F4034F07F0422D05446E16F81420DD001463A4602F0D6
:2049F00015FBC8B1207C012814D004F1D000022104F0A9FE0EE043462A4602F0D7FF002E15
:204A100014BF0A480A4803F0CDFE1FB1E16E3A4602F0FCFA832400E00424484605F02CF874
:204A30002046BDE8F88FC046080F002001000204010001042DE9F0410646B768756888462D
:204A5000ADF1280D684604F0B7FA00248DF8014078680690012003F0E3FD6860686840B143
:204A700002F0AAFE3878694602F0C6FE2860286808B9264617E00421224604F0ECFD98F841
:204A90000000401E08D0401E04D0401E14BF201C07A002E008A000E009A0A86028680AA134
:204AB000122204F0DDFD30460AB0BDE8F081C0461B5B324B00C046C01B5B304B00C046C028
:204AD0001B5B314B00C046C01B631B5B324A1B5B3130721B5B31313B314800002DE9F84378
:204AF000002A8946074604D4B2F5004FB8BF95B201DB47F6FF75002F08BF002034D038886D
:204B1000002808BF002403D02A4600F08FFC84B2AC4228D0388830B1291B484613A202F07E
:204B3000C9FD001984B2B868E8B17E688EB1304604F09CFBA5EB0408401D1FFA88F188421C
:204B500007D833464146484609A202F0B3FD001984B2291B122906D3BB68484606A202F099
:204B7000A9FD001984B22046BDE8F8833A2000C0222573222C2000C06C696E652025643A1D
:204B90002000FEE72DE9F047DFF898A0DFF89080002501244FF002091126E8B204F048FB21
:204BB000071C37D0B87A012834D197F90900AAF11401113004FA00F0C2430A604A6810436F
:204BD000486097F9090004FA00F0C0B204F006F907F11000002103F0F7FC0146812909D157
:204BF000B86918B1002103F0EFFC0146812908BF87F80A9081290DD008F2991197F9090027
:204C10000A7806FA00F01043087008F58270002104F099FD6D1C032DBFD3BDE8F087C04640
:204C3000080F00201C100440F8B5244F7E681EB9BDE8F14004F094BE3078401E012801D9BB
:204C5000C01E36D104F0A0FC002832D03078FEF75FFC0446656815B9002004F0E9F844B3DC
:204C70002078A64205D101281ED0002004F0E0F81AE001281DD1124912480A681249137AAB
:204C9000C05C087004F068FE00F5C24000F1A801A86804F0A5FE28B904F05EFE00F5E85080
:204CB0004C30A8600120B8702046BDE8F24000F02BBFBDE8F240002004F0BAB82818002043
:204CD000104F0020289A01106F4F00202DE9F041904606460F1C08BF05243FD036F07F005C
:204CF00003D02248006880688047052EA8BF032407DA57F80C0C18B917F8020CFF2804D05E
:204D10000524384603F06AFF28E007F8026C154C154DA068B8F1010F13D080470246002075
:204D300047F80C0CA868002808BFAF6005D0014651F80C0C18B941F80C7C104606E001466C
:204D5000F6E78047A96847F80C1CAF60E168884730464FF40041FFF743FB00242046BDE8A3
:204D7000F081C046BC090020480D0020E80E00202DE9F04104F0CDFC244D214E804605F19C
:204D9000E000007848B93446A168022088470746102003F0A9F977B31BE004F0D1FBC00976
:204DB0001BD21B483C380068C4681648342101220023A04788B101F055FB34460020A1688E
:204DD00085F8E000022088470746102003F08CF98FB1A168032088470DE00B48006832214A
:204DF000B1FBF0F101B901213035284604F089FC284604F088FC404604F03EFEBDE8F0813C
:204E1000C0A8000000A00C4058180020A8080020E00100102DE9F0410E46071C14BF002E1E
:204E3000002040D0224C4FF0FF3104F12800804604F04DFA3078FE2811D022680021FF28B6
:204E500008D082422AD31F2828DA04EB8000D0F898501DBB491C16F82100FE28EFD10020CF
:204E700038607860B8603078FE2818D00125FF280FD01F280DDA7B6804EB800105FA00F048
:204E9000C1F898701843094978603268384602F0B9FE16F8040FFE28E9D100E0002740466D
:204EB00004F049FC3846BDE8F081C046007FC76794070020F0B520480127F84201D002F075
:204ED000E3F9204D204F214EBD4206D203CD0478A4003459401CA047F6E71D48002800D0CA
:204EF0008047164D164FBD4202D210CDA047FAE7F0BD03251BE0416808300A1C2A400BD17E
:204F10001A1C2A40AB4305D0046804300C600431043BF9D1131C05D0047801300C70013175
:204F3000013BF9D1021C2A4001D0A84304300368002BE0D17047C046FFFFFFFF00000000E3
:204F50000000000084AD0000ECAD00003CAD000015C401102DE9FC4792460D46826844688A
:204F70009168D768B2F810806068994604F0AFF90028504632D1FF2D10D0401CA8F10201A7
:204F90006B1C009016A2384603F0B3FF0646A06828B10168F019361D016000E000260A9B11
:204FB000A8EB0601F0194A46891E04F0D0FBFF2D064406D10D22701C0A21BA55461C395417
:204FD00004E00BA00188F519B61C298020683946324604F045FB606804F0ADFBBDE8FC87E1
:204FF0001B371B5B3130721B5B25643B256448001B3800002DE9F84F81460020C9F80000A3
:20501000684601F043FE204FDFF880A000264FF0FF354FF0190B34468046E0B204F008F977
:20503000B8B1837AABB1017A0126022915D079684A8A4069C968891897F89A210BFB021159
:2050500003F0ACFA51460968B0FBF1F0854288BF051C641C032CE0D300E00025B8F1000FC5
:2050700004D0012E05D0B8F1010F05D0012E04D005E00098854200D9009DC9F8005046EABC
:205090000806F0B2BDE8F88F080F0020581800202DE9FE4F214C80460CAF1E460192A0680D
:2050B0003D7800918047A146B8F1000F029005D1D9F80C1088470220BDE8FE8F1848002735
:2050D0004FF00F0B4FF0010A041F54F8080FD8B9012D0CBF134B144B1148019A008897FB42
:2050F000FBF140180AFA07F1C0B2984760B90098C4F80080606006B13770D9F80C1002987D
:2051100088470020BDE8FE8F7F1C0F2FDDDBD9F80C10029888470820BDE8FE8FBC09002038
:20513000580A00209D7B0000817600002DE9F84F0C468146E00BC00318BF84F400443BD10B
:20515000002C08BF002038D0DFF878A05546A868804783461A4801884FF000080126474614
:2051700006FA07F2224203D17F1C0F2FF8DB1DE04D46EA01FB00001DA2EBC502CD01A5EBFD
:20519000C1018D1AED189B1A5B18C158BE401FFA86F82D1811B11B185868884748464146DD
:2051B00002F0D6FF10B9002028606860DAF80C105846884788EA0404A0B2BDE8F88FC04686
:2051D000580A0020BC090020002A4AD05FEA000C8B071CD1830722D1102A08D370B4103A40
:2051F00078C978C0103AFBD270BC103238D0042A2CD3082A05D30C2A24BF08C908C008C9DF
:2052100008C008C908C092072AD0920F22E00B780370491C401C521E22D08B07F7D1C307AA
:2052300014D18307D8D0121F12D308C903801B0C4380001D121FF8D20AE008C903701B0A88
:2052500043701B0A83701B0AC370001D121FF4D2121D05D00B780370491C401C521EF9D112
:2052700060467047FEB584684668206803F046FC216820488A6B1040886340F2F271206879
:205290001D4D416494F82000295C94F8210040198079084321684863684604F02EFA317FC6
:2052B00005EB81012068B2690B6A717F05EB810189691943B37F05EB83052B6B0B4301997C
:2052D00003F00AFC2168C86A40F01000C8622168086B40F001000863A07D0027FF2802D0CB
:2052F000E07DFF2800D11FB1086B40F440400863FEBDC0460DF8FFFF40A60000B0B545682B
:2053100084682349607DA27DADF1180D40F000400090207D0027FF2A41EA000001904FF07E
:20533000020002D0E27DFF2A00D13FB1E37DA07D1943039140F0004002900420FE214DF849
:20535000201005F154006946FFF764FD2866002808BF381C1AD0617D0F2202F0C1FF286EAB
:20537000217D102202F0BCFFA17D3846FF2902D0E27DFF2A00D140B1286E112202F0B0FF56
:20539000286EE17D122202F0ABFF012006B0B0BD0000C0A02DE9F8432020EFF3118780F317
:2053B0001188214CA068012104F0D2FA4FF001094FF0000865692168A4F81C906A1A2168B1
:2053D000A4F81E80461B401A904227D387F3118840462D18361A4846294604F0B5FAB0423C
:2053F000F7D92021EFF3118781F31188E18B012903D14046294604F0A7FAB0F1FF3F06D05C
:20541000A169801B814238BF081C291801E0A069411904F095FAA4F820902560A4F81C80E8
:2054300087F31188BDE8F883780100207FB503461F480D4601881F480088144614A69842F3
:205450001CDA994216DA1C480088002808BF13A217D00095002C48BF47F6FF74174E002007
:205470001749ADF804406A46346802901846A04702980AE0184603F021FD08B9324600E0A4
:2054900042682146284602F015F900907FBDC0467B6D6F64756C652325647D007B6D6F64C6
:2054B000756C652D726F70653A25787D00C046C04EA90000D2A90000FE12000010AA00005D
:2054D000E18600008B4208BF824204D90B1C021C002100207047002B08BF002A0BD10B1CC4
:2054F000021C00210020002B08BF002A1CBFC943C04302F094BEF0B51C4615460B460246F8
:2055100000200021B4FA84F6202E04BFB5FA85F62036B3FA83F7202F04BFB2FA82F72037CC
:20553000F61BB6F1200727BF05FA07F400257F42B4403EBF25FA07F73C43B540A34208BF88
:20555000AA4201D3521BA341404149416D0845EAC4756408761EF1D5F0BD70472DE9F041D1
:20557000DFF8888004680E4617464FF0FF31404603F0ADFE4FF0FF35092E08D0217A01204E
:20559000B040084212D108433546207211E0237A0521012000FA01F2134202D0491EF9D568
:2055B00004E0227A88400D4610432072B5F1FF3F15D0A7B1062002F0ABFE2946384600F09C
:2055D00061F80746062002F0F3FC47B1217A0120A8404FF0FF3580F0FF0008402072404630
:2055F00004F0A9F82846BDE8F081C046D80A00202DE9F043224C81461D4604F108002F6805
:20561000006816468846ADF1240D1FBB0C2000F035FA071C16D0684600212422082304F0B7
:205630008BF90023069749466A46ADF810301348059304F07DF9386038B9FFF7A2FA3846FC
:2056500002F082FC6FF0030015E0C7F80480BE602F6008E080470546386804F0F1F9BE60ED
:20567000E168284688473868494604F0E5F9386804F0DEF9002009B0BDE8F0831F95000083
:20569000BC0900202DE9F04180461F4800680D46416927208847012404FA05F61B4DC5F8E3
:2056B0000064C5F87C470327C5F8807718480460C5F88477D5F80404012818BFC5F80444C2
:2056D000C5F8FC6313480460C5F800801023AB60204603F0EDFFD5F88C076FF39D00002898
:2056F000F6D0D5F88C17204611F0404F09D1C5F884770021C5F8FC16D5F80024164218BFCC
:20571000081CBDE8F081C046B00100100440024000E04842000048421F48F8B50068806999
:2057300080471E49204D0F686E68B7F57A7F13D0801B4FF47A720023A7FB0001FFF7C2FEA3
:2057500004464FF47A72002303F0A2FC3A460023FFF7B8FE301800E0841B6860114D05F1DA
:205770000800006880470E4E316872680919B1F57A7F0AD34FF47A73B1FBF3F7D2197260F2
:20579000B1FBF3F707FB03F2891A3160E96888472046FEF7D5FAF8BDE80E0020600D002096
:2057B000540E0020BC0900201C1800202DE9F843DFF87C808946054617464FF0FF3140468E
:2057D00003F085FD1B4C04EBC5046668256803F0A0FF1949097801290CD12968002909D4B7
:2057F00005DCB9F1000F09D04FF0FF3108E0B9F1000F03D004F040F9002413E02968491C09
:20581000296004F039F9286802280BDA1FB9684603F02BFF6F4638686860C0272F7270680A
:20583000FEF7F8FE404603F086FF2046BDE8F883D80A0020ACA90000FF0E0020204A2DE9E5
:20585000F04180460124A2F13000046019480768002FFCD01B49184DC0200B1F286018684F
:20587000800806D253F8040C144B000C40F0F000187000204FF080571060D7F8F0010E686E
:20589000016830468847D7F8F0014268314640469047D7F8F001816830468847D7F8A001AE
:2058B000C1680220884740202860074E3460BDE8F081C0469402224300600C40566208402A
:2058D00040100940B43F0050940460422DE9F843204D0746A868804781461F4883686FF048
:2058F0000B06002480469BB113F8020C874208D134B16BB138464FF40041FEF771FD0CE044
:205910001C460CB9A3F10C0653F80C3C002BEBD138464FF4004102F001FCACB1A86880470B
:20593000D8F80810A4F10807A14219BF54F80C1C316057F8041CC8F80810002147F8041C44
:20595000FF26BE71E9688847E968484688472046BDE8F883BC090020480D00202DE9F843E4
:205970008146EFF31188202080F311881E4D1A4C184F012605F11C000660A4F114000660A3
:20599000F86A016A14208847D9F81000810C14BF000C0420206038680268232100209047F1
:2059B0000E480F4F0660386800280CBF311C03210C4807680FB141F00401183C206820F410
:2059D000E02040EA014020602E6088F31188BDE8F883C04684010010182009408002244305
:2059F000D8A90000DCA90000000024432DE9F04106467468B56803F08CFE8046A06A58B940
:205A100028688169090907D2006B400A04D2404604F032F8BDE8F08104F5827003F075FE7B
:205A300000274046A76204F027F8A97D3846FF2902D0E97DFF2900D118B12046294600F002
:205A500069F903F066FE2A68916B21F0200191632A68116B21F48071116304F00DF804F252
:205A7000291003F0EBF8606A216A091A21622369626A30469847BDE8F0817047F8B5041DC4
:205A900014F003001CBF241A241D03F025FA1D4A054657691561102C88BF97693868002355
:205AB0001E46010821D226B9844209D93B4601261EE0196809188C42196019D81F460846BC
:205AD000DFB1D169001B042807D23868091AD161386840F00040386005E0385144F000404D
:205AF0003860091BD1613F1D07E080F0004000263F1838680028D4D10027284603F003FB45
:205B10003846F8BDBC0900207CB5040004BF002003F08EF916494C60606900B180476068B7
:205B3000017B01F00F0102290CBF806803F014FFA0601049104B0878002814BF0F48104816
:205B50000021CDE90001022261680E4C0E482568006855F8086FB0470C4910F1020F088021
:205B700004D1BDE87640002003F062B973BD00BF28180020784E00205D8600000204848095
:205B900002048080F04E0020EC4E0020424F002070B506467468B568206E03F09EF8296874
:205BB0001A488A6B10408863002020703046FFF71DFF304601F0B4FB2968C86A20F0100012
:205BD000C862296812480A6B104008636868FEF767FC04F17C0003F09AFD04F1980003F0CD
:205BF000ACFDA07818B904F1CC0003F0A2FD607818B904F1E80003F09CFD04F5827003F0C0
:205C10007AFD04F1680002F099FF70BD0DF8FFFFFEFCFFFFBCB51E4C04F16C05E16F2868CD
:205C30000029074631D158B3684601F02FF828B1009818B1082002F039F8BCBD082003F0F2
:205C5000CDF8284602F026FFE06707F1180003C80E49C4430B1F1C601A681042FBD10A68B2
:205C700010430860F869C04341F80C0CF86951F8082C104341F8080CF86802F093FDBCBDCB
:205C900004F1D000022103F05EFDBCBD14100440080F0020F8B5074603F03BFD044687B3FD
:205CB000B87A70B397F9092002F068FF012303FA02F1CDB250B1164E113203FA02F0331DF3
:205CD0001A6882431A60C64343F8046C0020B8610346BB723B7207F110063B60024686E884
:205CF0000C000A4A7B6002F5CC7003781943017092F89A0110B1401E82F89A01284601F026
:205D1000D5FF204603F0B8FEF8BDC046080F00200810044038B50C46054603F0FAFC226845
:205D3000916B21F02001916303F0A6FE286E217D012201F03FFB286E217D012201F07EFF53
:205D5000286E217D002202F0CBFA286EA17D002202F0C6FAA878012806D005F1CC004FF07E
:205D7000FF3103F0B4FA03E0216888690009FCD2286E217D102202F0B3FAA17D0020FF29A3
:205D900002D0E27DFF2A00D118B1286E112202F0A7FA38BDB0B51D4CE06F04F16C0570B308
:205DB0002869806903F0CCF80746286900233A4601F0FCFDB80806D20FB328694FF4804148
:205DD000C4F8800017E028690F4F8269396822F00202914339602969CA6957F8083C23EA1D
:205DF000020147F8081C296905F1080002F063FE00200221286104F1D00003F0A4FCFEF731
:205E1000C1FEFFF707FFB0BD14100440080F002038B50446194841780A062DD5184D287843
:205E300070B1184A117859B9032002F0B7FD010022D09120087010224A708C70287817E0D0
:205E50000C2002F0ABFDB8B101210170FF2200F108034270436004211970102341684B70B9
:205E7000012241688A70014642680748D4700078BDE8344002F0C2BE31BD00BF1C4E00208E
:205E900067180020624F00206518002070B51C4E1C4D317804462878891C8842A4BF002068
:205EB00002F0C6FF0022A968182353431944487828B90B78FF2B0DD0686881420AD1317878
:205ED000521CD2B2891C8A42EDDB002002F0B0FF002070BD0020486048610C7001204870B3
:205EF00028786A78401C28702243C0B201281CBF802C402C6A7000D16960084670BD00BF7B
:205F10007B4F0020281800202DE9F041074603F077FB16461A4AD21E9478A6F10C05FF28A3
:205F300002D0926A12185479DFF85080FF2C04D140460068806880471DE0084602F06EFE9F
:205F500001464346FF20A8721D6837B92046EC6B00223346A04740B10AE0012F08D120462A
:205F70002C6800223346A04710B90020BDE8F081304602F033FE0120BDE8F081E80E002016
:205F90004B0D0020002213460A46194671B510F0030F0BD0002A82BF00F8011BB2F1010217
:205FB00010F0030FF6D1002A08BF71BD11F0FF0141EA0121042A18D341EA0141082A0FD3F1
:205FD0000E46102A08D30C460D46B2F10F0312F00F0272C0103BFCD812F0080F18BF42C098
:205FF00012F0040F18BF40F8041B12F0020F18BF20F8021B12F0010F18BF017071BD7047F0
:206010002DE9FC410446002003F084F9184E0546B0688047804601F0D5FE0746042221464F
:20603000284603F004FB384602F0F4FE0025012702E02D1D241DADB23846411ECFB278B1EE
:2060500028466946042202F0EBF868462146042202F092FC0028ECD00449012048700870DB
:20607000F16840468847BDE8FC81C046DC0E0020BC090020FEB50C46154640F67B41A21F38
:206090008A423CBFAE1F8E4229D2A54227D3B3F5FA7F24DA0899A1F10A0640F67747BE425A
:2060B0003FBF5B1C6E005E43B6EBC10F17D290F8941041B1D0F834010A21B0FBF1F1C90056
:2060D0006B4399420BD30C990B98019100900A9B099A2946204603F027FC012801D1012090
:2060F000FEBD0020FEBD7047F8B51A4C0546A06A2860E069686002F0EFFEA669844600206A
:206110000746C4F810C003463C4612E0110809D21FB91346304601270AE001689B1889186F
:20613000016005E082F000420027A34288BF1C1CB6183268002AE9D19C4238BF1C1C6046CB
:2061500002F0E1FF2046082894BF00200838A860F8BDC046BC090020F8B5184C207801289A
:206170002BD0174E012026F00306164B2662226A207004F124050020314662629B1B2F68A4
:20619000A362F61801E041F8040B8E42FBD8991002EB810123F0030341F8040CE8213960F4
:2061B000EC3BC2F8E830E8326261FFF767FCA06128686061A06A001FE061F8BDBC0900204A
:2061D0007018002000400020B0B51A4C0546241D20680004070C27D01448006800688047C7
:2061F000134991F90720824205DD10F1800FB8BF6FF07F00C871BD422CBF01277F1B8D88FD
:20621000BD4210D80A68D4F8D40F801A801C1F2888BF1F207F1B4008C7404FF6FF70EF19BE
:20623000B84238BF071C8F80B0BDC046EC0100105018002030100940BFB50C46E00BC00336
:2062500008BF00202CD017480078FFF73FFB071C23D03B6818690090586901909869029095
:20627000D86903907D6859689A681868DB68A8473968086017F8080C01F0C0FD054601209A
:2062900002F08CFB021C08D0422035F07F07107003D000202946FFF737FE84F40044A0B257
:2062B0000090BFBD6C1800203EB50D46290411D5164A1078FFF70AFB040009D02078032842
:2062D00012BF0128E06801F005F8204602F086FC85F4004568070AD50D4A0821D2E9003429
:2062F000CDE90034684603F020FA85F0040528070AD5084A0821D2E90034CDE9003468465B
:2063100003F013FA85F0080528463EBD651800204CAA000054AA0000174810B500680168FC
:2063300004208847022821D003281FD001281AD012480068C0F38150032805D002280CBFD7
:2063500041F28832322201E04FF47A720C490D4C09684C342046B2FBF1F103F0D2F9204624
:2063700003F0D1F910BD01F0D5FB10BD01F0D2FB022001F01DFE10BDE0010010B43F005008
:2063900058180020B00800202DE9F8430024002B16460F468046254606D5002FC3F1000342
:2063B00002D57F42761E2D2599463846494601F043FA0CA0405CB7FBF9F7002F04F1010422
:2063D00008F8010DF1D1A64205DD3021301B401E08F8011DFBD10DB108F8015D4046BDE8E8
:2063F000F883C046303132333435363738396162636465660000FEE72DE9F0410D461E46C7
:2064100090460746062D26DA062F24DA02F064FD1349AC0004EBC5040246543164186068BF
:20643000B0B1104602F06FFE06F8087C06F8075C06F8068C60683146083002F06CF860682E
:2064500040684FF0005103F0DBFA0020BDE8F081104602F058FE6FF00200BDE8F081C046DB
:20647000BC09002038B54FF08055D5F8E001016801208847012822D0D5F8A401C46811480D
:20649000342101220023A047002808BF002017D0D5F8800002F0C2F9D5F88C01C06A80472F
:2064B0000A4A094C93681168D060C01AA1EB910104FB00F3180C884228BF011C1160012011
:2064D00038BDC04600A00C4040420F00F817002098B5164C94F8E100002710B91448007825
:2064F00060B103F016F994F8E310002906BF012184F8E310012703F0BFFA0FB1002098BD72
:20651000022001F005FF0E20FEF784F8094A106848B909494020C86008600127D761002027
:2065300084F8E20098BD012098BDC046A8080020D5A8000004800C402C500C40012898B5C1
:2065500027D116480068016801208847012820D002F000FA134C012104F1D800017002F05E
:20657000EFFF800917D20E4800683222B2FBF0F707B90F46083C04F1300003F0C6F804F1E1
:206590003000394603F0BDF804F1300003F0BBF801E000F0C3FF002098BDC046E0010010CA
:2065B00058180020B00800202DE9F041066890460F4602F095FE4FF0FF35012410B902F0AB
:2065D000B9FE30B184F00104E0B2002808BF002100D071680D4C204602F079FE90B9B7F136
:2065F000FF3F0CD0062001F093FE39464046FFF749F80746062001F0DBFC07B90025204607
:2066100003F099F82846BDE8F081C046D80A00202DE9F0410D461E4690460746062D25DA07
:20663000062F23DA02F058FC1249AC0004EBC504024664186068B0B1104602F064FD06F87F
:20665000087C06F8075C06F8068C60683146083001F061FF606840684FF0004103F0D0F941
:206670000020BDE8F081104602F04DFD6FF00200BDE8F081100A0020164880B507683FB39D
:2066900015498B6803EA5300C00E21D2134A106880081DD2486880081AD21068096810F03F
:2066B000050F4FEA114101F0F00101F5E0710AD1B9420DD2190F38BF40F00100D90E38BF1F
:2066D00040F0040003E0B94202D920F00500106080BDC04628500940AC3F005000000940B0
:2066F00010B503F016F81349097802291AD003F0C3F911480068006B8047104A002302F0C1
:20671000C7FC0F4C4FF090531B1820684FF07A044FEA000244EB010400215B1844EB020479
:20673000241C04E0074990390C6803F0A5F9204610BDC046180F00208C01001000093D00A4
:20675000F417002094300440F8B5184C1649154DE06F0A681540EA430A604E684F6806F014
:2067700020062E4007F460270CD058B1C4F880000022330001F01AF904F1D0004FF48041B0
:2067900002F0E1FF17EA05000AD094F8991141EA504084F89901002104F5827002F0D3FF60
