:20000000004000208999000001C9011001C9011001C9011001C9011001C9011001C901103C
:1C00200001C9011001C9011001C9011001C9011001C9011001C901103FC9011089
:20003C002DE9F04FD24C04F110012046ADF13C0D09F000FA04F128050021284600F05AFBF5
:20005C006561D34D4FF4FA62012304F15C00294609F0DCFB43F69822022304F1800029464F
:20007C0009F0D4FBCB4D05F1180005F10C0107F013FAC949A8600BF069FCC84EA8684FF48C
:20009C00E0213246521E0AF089F9A8684FF4E02132460AF083F9D14EA8684FF0C0513246A6
:2000BC00521E0AF07BF9A8684FF0C05132460AF075F9CF4905F12400C822002309F0A6FB2D
:2000DC0004270126C8238DF82C70CD48ADF820304FF4C86768600DF12B02ADF824604FF4CB
:2000FC007A73ADF822703146ADF8263000258DF82B5040F20530ADF81E5000F0FFFD40F291
:20011C00063002210DF11E0200F0F8FD04F134024FF44270132100F0F1FD04F11C0240F2F0
:20013C000730092100F0EAFD4FF444700BAA314600F0E4FD40F21130022108AA00F0DEFD64
:20015C0040F2123002210DF1220200F0D7FD40F21330022109AA00F0D1FD4FF445700221E2
:20017C000DF1260200F0CAFD04F147002A461523C2490090102004F01BFF8DF82E50B046D0
:20019C008DF82F500DF12D008DF82D80BC4E8DF830804FF48062009043463146102004F0CA
:2001BC0007FF0DF12E0040F20242009043463146102004F0FDFE0DF12F0040F20342009098
:2001DC0043463146102004F0F3FE0CA840F20642009043463146102004F0EAFEBF491020EC
:2001FC004FF0FF3204F0E4FEBD4910204FF0FF3204F0DEFEBB4E307880000BF07BFC01463D
:20021C00BB4FB9488246816069B14FF6FF700AF077F8B64910200AF10C0200900823019152
:20023C00394604F0C5FE10200090C24AC348394613230190102004F0BBFE307880000BF04F
:20025C0059FC0AF136020146BD480E928146416169B14FF6FF700AF053F8BA49102009F165
:20027C001802009006230191394604F0A1FE02208AF80000062789F8007099F80100062869
:20029C0001DA07F04BFDBE48BF4EBE4BCAF8040077783078C9F80830A7B904F118013162B5
:2002BC000AF088FB06F154070095024606F14400019006F11C030297B4490393B37810200D
:2002DC0004F076FEB24EB349102006F1080204F06FFE20780AF06EFBAF490246102004F0AD
:2002FC0067FEAE49102004F063FEB346A01D0D902069AC4A29464FF0FF3300F0FFF9061C45
:20031C00F6D0284606900DF12A0106AA07A80AF013F9002837D1BDF81C0010282FD1207898
:20033C009DF82A1088422AD106990F78913F02D01F3F1FD023E048780E2820D1888842F2CA
:20035C00030282421BD189680F78C7B9491C04A80A684968026004AF41603878904904AAB3
:20037C0000F0FD003870102004F022FE07E0C0460802002001F10800097900F0C3F90698AB
:20039C0008B10BF088FBF00FC0F025811DE1C04699B7000008110020B5A000000E00058040
:2003BC006769384600F0B2F9874208BF2F1C02D0876809F0BFFF381CB84600F0068139885B
:2003DC006078491E5ED0491E30D0891E1AD0091F06D0083900F0E880F4E0C0460E0000100D
:2003FC00B978012906D0022940F0EC80C04813E065B60000062840F0E580BD4813E0C04612
:20041C0071BA0000B978012909D0022903D0032908BF2581D6E0B5480BF082FBD2E00628BF
:20043C0040F0D080B1480BF079FBCBE0BF78390919D3062817D0AA4910200822202304F00F
:20045C00B7FDA74910200922202304F0B1FDA44910202A4647F2305304F0AAFD0AF053F873
:20047C0008B90120E0707809C0F0AC802079401CC0B2072814BF20712571A3E0497E0000F7
:20049C0011300000BF78874200F09C80062F6FD0062859D0022802D1E078042F2AD0012F76
:2004BC006BD14FF4417004A905F068F99DF814308DF814509DF813208DF813508DF81630B0
:2004DC009DF815008DF8170086498DF8152004AB1A680A60586848604FE0C04609AE000042
:2004FC0031B00000694F0020CC0E00200CCE000045A9000001281FD078491020082204F03E
:20051C0057FD202839D17649102008224FF4C86304F04EFD7249102009224FF4C86304F0DB
:20053C0047FD2B466E4910202A4604F041FD09F0EAFF22E064090020E5701EE000CE0000CF
:20055C00D40F0020E8CD000068480BF0E9FA052FD9D1634910200822202304F029FD60494F
:20057C0010200922202304F023FD47F23053D9E70D9940F20E3005F001F9677022E0C0464D
:20059C0081BA000069BA000080050020639B0000B8CD0000C9B1000051880110C5AB0010D5
:2005BC0095B40010030000C040F20E300AA905F0E5F84D482B46BDF82820474900901020BB
:2005DC0004F0F6FC404609F0B5FE606900F0A2F800283FF4E5AE700866D36078062863D1BB
:2005FC00E0881B2109222B4600F098F80028059057D021791BF8011000F8011BA27800F857
:20061C00012B22791BF80220520828BF00F8015B0A0906D3227A00F8012B2289121200F8BA
:20063C00012B49090DD3A17A00F8011B6189091200F8011B217B00F8011BA189091200F80B
:20065C00011B0599401AC0B2ADF81200DAF80810E08807460BF08AF840080DD30E981D49F1
:20067C0000883A462F4604ABADF810001020009704F09EFCC0B218B104A81B2100F042F8DB
:20069C002089A7780A302081781CC0B2502808BF49204FF47041A07091FBF0F080B2A0812A
:2006BC00608112480BF03AFAB008FFF421AE607806287FF41DAE0AF08DFC99F8011081420E
:2006DC0003DD89F8010007F029FB09480BF026FA0EE6C04645000110B9A50000F5840110DD
:2006FC00BD840110CF08002040E201006402002088020020DFF800F0A1B60110DFF800F04C
:20071C00F99B0110DFF800F089840110DFF800F019BD0110DFF800F04FBF0110DFF800F0D8
:20073C00058401102DE9F84FDFF81885DFF8181588F80000002008600821DFF810050170A0
:20075C000D2141804FF408718180DFF80405DFF8041501608A7EDFF800050270FF2ACB7ED8
:20077C00437008BFFF2B0D7F85704E7FC6708F7F0771C97F417115D1FF2D08BFFF2E11D1CD
:20079C00FF2F08BFFF290DD1DFF8D0140A7802704A7842708A788270CA78C2700A790271C1
:2007BC0049794171DFF8B81402780A70FF2542784A7082788A70C278CA7002790A71407963
:2007DC00DFF8A02448710021DFF89C04057045708570C570057145711180DFF89004DFF8BE
:2007FC009014466BDFF88C247078087031781170B078DFF884140870B1680879DFF87C1467
:20081C00421E0A70F078DFF878140870F068DFF87414086008B90AF063FD3069DFF8684449
:20083C00206008B90AF05CFD2068DFF8607401688847216851F8042F38469047DFF8500418
:20085C00DFF850143862DFF8500478627069086008B90AF045FDB069DFF84014086008B9F7
:20087C000AF03EFDDFF838B4DFF838649BF804000AF0E4FF306008B900F045B99BF80500A6
:20089C00DFF824740AF0DAFF386008B9306837E19BF80600DFF814440AF0D0FF206020B907
:2008BC0030680AF0D3FF38682AE19BF80700DFF800940AF0C3FFC9F8000038B930680AF008
:2008DC00C5FF38680AF0C2FF206819E1DFF8A4130A789BF80000DFF8DCA3921C504380B2EF
:2008FC000AF0ACFFCAF8080058B930680AF0AEFF38680AF0ABFF20680AF0A8FFD9F80000DF
:20091C00FEE0DC480078002800F00281BBF80210DFF8A4B3484380B20AF090FFCBF80400A6
:20093C0078B930680AF092FF38680AF08FFF20680AF08CFFD9F800000AF088FFDAF80800E6
:20095C00DEE0CC4800780AF079FFDC49086080B930680AF07BFF38680AF078FFD9F800000B
:20097C000AF074FFDAF808000AF070FFDBF80400C6E0C0480078182148430AF05FFFD04A78
:20099C001060B0B930680AF061FF38680AF05EFF20680AF05BFFD9F800000AF057FFDAF8AA
:2009BC0008000AF053FFDBF804000AF04FFFC348A5E0B048007840010AF040FFC1490860BC
:2009DC00D8B930680AF042FF38680AF03FFF20680AF03CFFD9F800000AF038FFDAF8080026
:2009FC000AF034FFDBF804000AF030FFB34800680AF02CFFB249086882E09E4800780001FA
:200A1C000AF01CFFB0490860F0B930680AF01EFF38680AF01BFF20680AF018FFD9F80000CE
:200A3C000AF014FFDAF808000AF010FFDBF804000AF00CFFA14800680AF008FFA049086823
:200A5C000AF004FF9F485AE08A48007800010AF0F5FE9E49086018BB30680AF0F7FE3868DB
:200A7C000AF0F4FE20680AF0F1FED9F800000AF0EDFEDAF808000AF0E9FEDBF804000AF0BB
:200A9C00E5FE8E4800680AF0E1FE8D4908680AF0DDFE8C4800680AF0D9FE8B4908682FE0C5
:200ABC0074480078302148430AF0C8FE884A106070BB30680AF0CAFE38680AF0C7FE20689C
:200ADC000AF0C4FED9F800000AF0C0FEDAF808000AF0BCFEDBF804000AF0B8FE7748006879
:200AFC000AF0B4FE764908680AF0B0FE754800680AF0ACFE744908680AF0A8FE734800689E
:200B1C000AF0A4FE00200AF0EBFB4FF4804192E03168012008713068057331684D73306873
:200B3C0085733168CD7330680574002031684D743268D072A0223168487103213068C2804F
:200B5C0001720720316848720020326890722821306841820121C1760020316848773268C1
:200B7C0082F85E00012031680877326882F85D00396808713868057339684D7338688573AC
:200B9C003968CD7338680574002039684D743A68D072396848713A6890724FF42070396867
:200BBC000022C88008818A7401213A68D17421680D732268557321688D732268D5732168E0
:200BDC000D740021226855742368D9720121226811710021236859712168C8800881002010
:200BFC0088722168887405202268D0743948016888472A490A6805461068804727490A685D
:200C1C0052F8043F0020984718481D4BC16818780A88314902430A80284630490A689047A0
:200C3C000C212F4800F05EF80F4800F05FF800F061F84FF4005198F80000BDE8F44F05F0C6
:200C5C0025BE00BF6E4F0020044F0020604E0020084F0020B63F00502C4E0020E812005018
:200C7C003C4E00200C4F0020344E0020B0CE00006D4F00207B4F00206B4F0020724F002092
:200C9C006C4F0020F04E0020F44E00207C4B002059B80000F84E002069B80000FC4E0020B4
:200CBC00D0130020104F0020144F0020184F00201C4F00209C1A0020684E0020004F0020E6
:200CDC00804E0020844E0020884E00208C4E0020904E0020380E0020544F00203C0E002097
:200CFC00F84D0020DFF800F0E5710110DFF800F01D6E0110DFF800F04D7101102DE9FC41F9
:200D1C00A0F2013714468846022F40F232819B4E9C493F1F0F2F04D9143F4CD0BF1E1CD030
:200D3C0011E0DFE817F0CF00C9000D01FA00C100B9002601AF00A700100010009D008F00F5
:200D5C007F0074006600282880F21381B8F1020F40F00F818849238807E1B8F1010F40F001
:200D7C000881F078012800F00481324620781179107189B9002800F0FC805078012800F0F6
:200D9C00B580042800F0B280062800F0AF80052800F0AC80BDE8FC812078002840F0E980A3
:200DBC005078032800F0AF80072800F0AC80052840F0DF80A7E0B8F1010F40F0DA8020789C
:200DDC00012840F0D68006F1EC000AF007FD002840F0CF803446002004F13A0107F06AF89D
:200DFC00002840F0C68004F1C8000AF099FEBDE8FC81B8F1020F40F0BC8020880A28C0F217
:200E1C00B880B0F5486F00F3B4808E1C17E0B8F1020F40F0AE802088B0F5FA7F80F2A980E1
:200E3C000E460CE0B8F1020F40F0A38020880628C0F29F80B0F5486F00F39B803E36308014
:200E5C00BDE8FC81B8F1020F40F0938020880628C0F28F80B0F5486F00F38B803C36EEE71F
:200E7C00B8F1010F40F085802078062880F28180454E0EE0B8F1010F7BD12078042878DA93
:200E9C000A3606E0B8F1010F73D12078082870DA09363070BDE8FC81B8F1010F69D1207875
:200EBC00042866DA0836F4E7B8F1010F61D1207804285EDCF61DECE7B8F1020F59D1208836
:200EDC000E36BCE7B8F1010F53D13079012850D032462078D178D07069B9002849D050787C
:200EFC00012803D0042818BF052842D101200AF09DFCBDE8FC81207800283AD15078022804
:200F1C0018BF052835D1107809F054FD1C490246102004F04DF8BDE8FC8106F18305002101
:200F3C001F22284607F00AFA21464246284606F065FA44463078B47109F03CFD002311E09C
:200F5C0006F1640500211F22284607F0F7F921464246284606F052FA44463078747109F0AF
:200F7C0029FD01230094094901950246102004F01FF8BDE8FC81C046BD84011080050020ED
:200F9C0099450110C0050020BA050020094501101349B0B5054601F135000768CFB1BA68DF
:200FBC00107B012400F00F00022818BF002012D19068C91EFA6891F86331D268192707FB88
:200FDC00032109F065FD054909682860B0FBF1F001E00020044628602046B0BDBC1A002007
:040FFC00731400204A
:20100000B41200001810000015AB0110FDB301106DC00110FDAE011099B5011000000000F7
:08102000000000002D0000009B
:20102800B01200003C100000B1C00110A9BF011067C0011069B80110000000000000000035
:041048003000000074
:20104C00B012000060100000BDC00110CDB30110D9BD01106DB3011000000000000000005B
:04106C00310000004F
:2010700000000000D813002004000000000000000000000020000000E8C90110300000003F
:2010900028100000E01300200400000000000000000000000C000000D8CA0110180000001A
:2010B0004C100000E813002004000000000000000000000024000000F0CA0110180000009E
:2010D00000000000F01300200400000000000000000000001000000018CA01102C000000AA
:2010F0000010000000140020040000000000000000000000200000006CCA0110240000000D
:20111000FFFFFFFF081400200400000000000000000000002800000090CA011024000000CC
:20113000FFFFFFFF101400200400000000000000000000001400000008CB0110180000004B
:20115000FFFFFFFF1814002004000000000000000000000058000000B4C901103400000019
:20117000FFFFFFFF201400200400000000000000000000001000000020CB011018000000E7
:20119000FFFFFFFF281400200400000000000000000000001C000000B4CA01102400000014
:2011B000FFFFFFFF301400200400000000000000000000003800000044CA0110280000003C
:2011D000FFFFFFFF381400200400000000000000000000005400000078C901103C000000B1
:0811F000010000008CCE00009C
:0411F80001000000F2
:0411FC0000000E00E1
:0412000000000F00DB
:0412040032000000B4
:0412080001000000E1
:04120C00201300208B
:0412100000020000D8
:0412140000000000D6
:0412180001C90110F7
:04121C0000000000CE
:0412200000000000CA
:0412240008000000BE
:0412280000002200A0
:04122C0098110020F5
:0412300000000000BA
:0412340000000000B6
:0412380008000000AA
:04123C00E01200209C
:0412400000000000AA
:0412440000000000A6
:04124800080000009A
:04124C00000000009E
:04125000000000009A
:041254000000000096
:041258000000000092
:04125C00010000008D
:041260003012002028
:041264000600000080
:041268000100000081
:04126C00BC10002092
:04127000000000007A
:041274000000000076
:041278000002000070
:04127C00000000006E
:02128000290043
:02128200010069
:02128400250043
:02128600300036
:02128800310033
:02128A002D0035
:02128C0001005F
:01128E00015E
:081290000300000024CE000061
:0812980000000000000000004E
:0412A0000000010049
:0412A4000000030043
:0412A80013C401105A
:0412AC0039B600004F
:0412B000B812000070
:0412B400B81200006C
:0412B8000000000032
:0412BC008813002073
:0412C00067B700000C
:0412C4002000000006
:0412C800A4CD0000B1
:0412CC0094CC0000BE
:0412D00029C101101F
:0412D4009BAD0000CE
:0412D8008FAF0000D4
:0412DC00A1C7011095
:0412E000A3C701108F
:0412E4000000000006
:0412E800E3CC000053
:0412EC0078CB0000BB
:0412F00090CB00009F
:0412F40060CB0000CB
:0212F8000200F2
:0212FA000900E9
:0212FC000100EF
:0212FE000000EE
:0113000001EB
:0413040019B7000015
:04130800ADA2000092
:04130C0005AF000029
:04131000BDA4000078
:04131400E5A200004E
:04131800B998000080
:04131C00A5850000A3
:0413200005B900000B
:0413240091900000A4
:0413280015C70110D4
:04132C0025C70110C0
:201330002DE9F04FD24C04F118012046ADF1340D08F086F8CF4D00264FF6FF700123667071
:2013500032462082294604F1A40008F065FA0223324604F1C800294608F05EFA042332464C
:2013700004F1EC00294608F057FA4FF0040A04F1440810224046314684F802A006F0E4FF10
:2013900004F1540910224846314606F0DDFF04F11C073E6004F10A052E70E6712672072074
:2013B0006072CDF80080DFF80083022210200346414603F003FE102003224146CDF8009063
:2013D000034603F0FBFD1020524641460097134603F0F4FD4FF0080B4FF0030905F12A00E9
:2013F000079005F17900089005F11E00099005F15A000A9024350B9517E06078A28FE18F3F
:20141000B4F84050B4F8423006280ED1ADF80A20ADF80C10ADF80E50BA48ADF810300AF0E1
:2014300085FB012002A906F04BFDA069B44A31464FF0FF33FFF768F9071CF6D0059606A89A
:201450000DF11A0105AA09F07DF8002840F0C081BDF818102078102940F0B6819DF81A10D9
:20147000884240F0B181059D29884FF6FF728A4200F09F812B78A23B00F082812E3B40F03F
:20149000A381A978B046002900F03E81891E00F00D81491E012940F2D980891E00F09C8035
:2014B000491E6FD0491E5CD0083900F05981891E40F05C8194F83A30A888052BADF8080021
:2014D00047D001208DF812008E480AF02FFB94F83A0001281ED004281CD003280DD002280C
:2014F0000BD00598C188ADF80A100189ADF80C104189ADF80E10818927E0A08FE58FADF82B
:201510000A00B4F84030ADF80C50B4F84210ADF80E301AE0A08FE9888842D8BF081CADF8EF
:201530000A002989E08F8842D8BF081CADF80C006989B4F840008842D8BF081CADF80E0024
:20155000A989B4F84200884200DC0846ADF8100001E08DF81260AA49102002AA03F02EFDED
:2015700004E1A8480AF0E2FA6B78002B40F0FE80E88860822889A0826889E08261480AF0D9
:2015900033F9F3E0AA88B649102003F017FD07984146062206F0D8FE6682A682E682A87921
:2015B000207358480AF0C2FA96480AF0BFFA4FF001084FF6FF702379208253B9A87908280A
:2015D00012BF84F801A00520607040460AF034F9CCE084F80190C9E06B787BBB291D07980B
:2015F0000A680260898881800623637068892082E8896082288AA082688AE082E878E07239
:2016100094F83A00012818BF02280BD19A4910201F2203F0D3FC4FF47A7180B24143394873
:2016300008F05CFD688900909249CDF804A0EA7810202D1D2B4603F0C1FC9AE068783128D4
:2016500040F08B80E67084F801A092E06B78002B40F08380A878E3896178032818D0E07849
:2016700025794BB9012814BF2671E6700BE0C0468005002049B80000054304D07F481946F6
:2016900008F02CFD61780729DDD10620607070E0062907D0E578002D08BF84F8019068D080
:2016B0000220F3E70720F1E7ABB100006B78002B53D1EB78617893B902291DD007291BD0D6
:2016D000062902D12079012816D1032914D06B480AF08AF880B901200AF0AEF80CE009F031
:2016F0006FF90246A07962490090089843460190102003F063FC68706D78002D2DD135E09D
:2017100007000080480600206B7833BB5C485749009002221020034603F050FC59484A4612
:20173000524900901020034603F048FCED1C099829680160A988012381802078637009F068
:201750003FF9024601230A9D6079494900901020019503F033FCC0B258B184F801B008E0BB
:20177000AA8841491020052303F028FCB8F1010F2AD1256A45B32D6835B36078A84723E0AC
:201790006879132820D12889012808D1607B022805D11C480AF0CAF908F01EFF14E03649F5
:2017B0001020052203F00AFC81B2164808F096FC0AE06888C00B07D3334852462B49009018
:2017D0001346102003F0FAFB059808B10AF069F92579E078790830D355EA00032DD02046B7
:2017F00000788DB9E179257A8DF808100B9A8DF8095013680DF10A052B609288AA8005E0C6
:20181000051601106C0600208DF80890617A8DF81010A17A8DF8111009F0D2F81149024637
:2018300002AB102003F0CAFB38B1256A84F801B01DB12D680DB15846A847B80803D31349BE
:20185000304606F03DFBF808FFF4EFAD607B401E3FF4D3AD401E7FF4E8AD08F0BDFEE4E577
:201870000194000059440110C1170110055E000009450110FD5E0000F5840110240600203B
:20189000C4050020D40500209C050020BA0500202DE9F04F0F46C34C0168E16241688068C0
:2018B000ADF11C0DE060CB48A1608047CA48E16A0160A168DFF838A34160E168DFF82C933D
:2018D0008160C649002FA346C16064D03D68E8788DF80C0028798DF80D0003A80AF0B8FB7A
:2018F000A86808B1BE490160E86808B1BD490160BD4C2878207068786070A878BE68A070F8
:2019100031787368E170B26863602E69A2607968E6610868E06068692062A8696062287FC7
:2019300084F828002A6AE262786886681EB9002009F0DCFC00E066617868C06818B90020E5
:2019500009F0D4FC00E0A0617868406818B9002009F0CCFC00E020612869E061F868816817
:201970000E6806B9D14ED0494FF001084E60C66881F8018036B9002009F0B8FC4D462E68E7
:20199000F86801E04D462E6000685446FB68A0615868E06107E0002009F0A8FC4D462E68A1
:2019B0004FF001085446361DC6493668621C04F114035020B04710B1286880688047DBF871
:2019D00008008047C14E002781463B46BE4877706946206104223370384608F015FE0098A3
:2019F000B0F5801F0CD020B909F0B0F803F0F0FF08E008F027F809F073FE0420708001E0FD
:201A100009F0A4F83846BA4EA0602B68B760986980477060AE4880F80080394641801420F7
:201A300009F012FFFF211422A0620AF087F8E01CFF2102220AF082F8142009F005FFA54FE2
:201A500038603868002114220AF078F80020FEF76FFE404608F018FA9F480188FF2906D1FC
:201A7000022101807822001D00210AF067F803200AF0EAFA04200AF0E3FA05200AF0DCFA90
:201A900006200AF0D5FA072007F0CCFA934E0820307006F124000AF0C7FA07F029FC06F1D1
:201AB000360A05200A21524609F077FB38B10020C0F10901401C0AF8011B0A28F8DB307898
:201AD000102104F0E9FE2B68854909200DF10E025E68087001AB10200021B047A06ADBF843
:201AF0000C10E2690A260A309DF80E30761E00F8013BF9D1921E4846E261884704F120003B
:201B10002B68626A059040461E69DFF8D88104F120034146B04710B1286880688047B846F0
:201B300009F0F8F85FEA000903D005F035FE4FF0FF3900263AE00298216910F8062CA0F1B9
:201B50000C07032A03D1002930D088472EE0A16A9DF810C00A223046491E11F8013F9C45B8
:201B700006D0521E00F10100F7D14FF0FF0A01E05FFA80FA2868BAF1FF0F00F1080013D034
:201B9000387908F037FBB979012904D0022904BF0299887001E0029908700299504609F08B
:201BB0008FFA03E0300E0020006880472868C36904A902AA0DF10F0098470028BBD0D8F898
:201BD00000007700C35BABB9761CF6B20A2EF8DB33E0C04641490010F844002068C0000080
:201BF00081AA000051B40000D01100204C140020901200200A2E20DADBF808008047D8F8BE
:201C10000010002231F807A0CA53DBF80C108847354850F826202670514630469047064606
:201C3000FF202070DBF808008047D8F800107A5A16437E52DBF80C10884709F06BF80746FF
:201C5000B9451AD0DBF8080007B9284FE169B94238BF0F1C804781462868016A206A884731
:201C7000626A28681F49059B521C6262C6683846B047DBF80C1048468847A7682968606966
:201C90001431AFB9D8F800000A270026835B33B10969606988472968D8F8000014317F1E51
:201CB00006F10206F2D107E0A0130020B3A00000096988472968143109684FF0FF30884780
:201CD0002EE7C04699AE0000B1B400004414002040140020C01A0020580F0020940A002002
:201CF000D21A00203DA2000044CC00008EC2F528901A00202DE9FF47C44C0F460646F80B92
:201D100080F05981B80880F04A81607ADFF808A3B90F80F0CC80E079390914D2B80BC0F09A
:201D30006B8104F13C0009F0F5FE061C08D0706830B17568F068B6F9241000222023A8476B
:201D500027F4005758E1012800F0AC80E068703009F0CAFE684608F087F920B1009904F155
:201D7000980009F081FD00254FF00108E570A84884F8058009F0CCFDA6492A4604F160001B
:201D900009F0BCFE50460068006B80476061A2782169A369012AA0EB010018444FEA103053
:201DB000A06105D163781BB9E169B0EBC12F3AD9DFF8689284F80280A9F1150000686570EA
:201DD000000A30D340F60900A08494F8310000F0F00040F0010084F8310094F8300000F05C
:201DF000F00084F83000A56209F082FE4B4603F6FF7211686FF0020C21F00201116004F15C
:201E10002401C3F8FBCF864AC3F8EB1F11688908FCD3C3F8FBCFD3F8FF1F41F00201C3F83D
:201E3000FF1F0AF0FDF87F4A10687F4920F0020040F400701060032341F8043C41F2300351
:201E50008B604046086050238B6008604FF4CA638B60086041F80C0C217825612B461360BC
:201E700019B9E068383009F057FE022008F0B6FA112004F071FD307C10B90E2004F06CFD25
:201E9000207A18B12572052008F0A8FA674965710878A57140B10D7004F1BC00042109F020
:201EB00041FE01E00020E07127F00807A4E020B1042008F093FA00206072B168088840F68C
:201ED00002084FF0000980450AD0B0F5C15F07D00A8B4FF61F60104040F43470088306E073
:201EF0000A8A4FF61F60104040F4347008822069F0B1DAF85400016804208847C0B1DAF8D9
:201F100000002569006B8047F168401B738AF060020BF26098188842F06002D24018400853
:201F3000F06040F6C41181422CBFB0F5FA7FF16094F8310010F00F0F0CD1718C08F1070064
:201F5000884207D1B56930466FF480714A464FF00073A847364904F160004A4609F0CEFD8E
:201F7000607860B10220ADF8040001A808F046FEBDF80C0084F801904011A4F8600101207B
:201F9000E07084F8049007F05BF97569494630464FF080630A46A84727F000572CE003F0D5
:201FB0002BFE04F1440009F0B5FD27F0020708B147F0020720E009F09BFD014604F14000DE
:201FD00009F0A8FD061C12D0356AA8080FD225EA0500306208460AF023F8706850B12A46CD
:201FF000F068B6F9241075680023A84702E008460AF016F827F4804727B104F1BC00394685
:2020100009F090FD0090BDE8FF87C04670140020C16100002DAE00008C01001015000440D2
:2020300010100440000004600C410440C91A0020C5470000BB482DE9F84F0025BA4CB8499C
:20205000056094F8E200002800F06581012800F02F81B64E02283CD0032840F05C8151F81B
:20207000250CD4F8B8100029A0F5C060C4F8D400B8BF49420028B8BF4042814226DA4FF0F8
:202090008057D7F8A4014568B4F8BC0030214FF47F42082300903046A847D7F8A40145683A
:2020B000B4F8C00004214FF4F802122300903046A847D7F8A401B4F8D070456820214FF487
:2020D00040620A2330460097A847012584F8D8501CE151F8258C09F02DFC2F4600B90127EC
:2020F0003946934F38680028FCD0B146012609F10409D9F82CA03E6009B109F021FCCAF3EE
:202110000720C4F8BC0009F015FCAA4600B9B2463B68002BFCD0D9F800B0BAF1000F3E60F2
:2021300001D009F00DFCCBF38440C4F8C00009F001FCAA4600B9B2463B68002BFCD0D9F8BC
:202150001C90BAF1000F3E6001D009F0F9FBC9F38120C4F8D000B8F5C061C4F8B81000F082
:202170009C8094F8D80068B9C4F8D410D4F8C000C4F8C800D4F8BC70C4F8C470D4F8D0304A
:20219000C4F8CC30D4F8D410D4F8BC30002954BF02206FF0010004F1C802176801EB4101E5
:2021B0004018411000EB917107EBA1001060D4F8C810C4F8C43000291CDD1E293CDDD4F8D4
:2021D000CC0030B93429B4BF15391E21C4F8C81025E02A29BABFD4F8C8000B381E20C4F8A7
:2021F000C800D4F8C4003F28B4BF401C3F20C4F8C4001FE0D4F8CC00032812D011F10B0FA2
:20221000C6BFD4F8C8000B30301CC4F8C800D4F8C4000028C4BF401E051CC4F8C4500325D8
:2022300008E011F1150FC6BFD4F8C8001530301CC4F8C800C4F8CC504FF08057D7F8A401F0
:20225000B4F8C43030214FF47F424568374800930823A847D7F8A40104214FF4003211235E
:20227000456832480096A847B4F8C860D7F8A40104214FF4F802122345682C480096A8471D
:20229000D7F8A40120214FF440620A23B4F8CC60456826480096A84701E084F8D85040F238
:2022B000FF50404502D8801C40452FD2082030E051F8251C1F4F4BF2F5204843060A386881
:2022D000C0F3814001280CD11B4800680068804707F09EFD09F03AFB3111C010484306EB2C
:2022F000E03694F8E50030B91448006820F07F408019460801E084F8E5501148310C066056
:20231000012741600F4D8760287808B90B2000E0052084F8E40002F0C1FCBDE8F88FC046CF
:202330002D400C402C500C401C0D002000A00C4000800C40B43F0050EC0100101020094052
:202350003C600C408DCD00002DE9F04FB64D686885B0019020B905B0BDE8F04F09F05CBEB8
:202370000178DFF8C882B24EDFF8C892DFF8C8A201291CBF0229042946F2A81741F64C5B0F
:2023900005D0402918BF802900F09A8043E109F013FB0028FAD00198007803F061F900905A
:2023B000446814B9002008F0A1FF9AF80100002860D001F069FA09F075F9029001680098A3
:2023D00001914F6806F012FB022827D000990A78012ADBD1994B19680A7A19F802303370BF
:2023F00018B909F015FE5844A0602069C17E01F0EF01C1762069C17E41F08001C17620693A
:20241000C17E01F0F00141F00201C1768C48B96841182069C16101210098A0E001980178DB
:20243000802913D10822874832700178012903D09AF80100012803DD38690121C17213E069
:20245000D8F828103A690878D0720DE07D49072030700A783869012A02D10123C37203E028
:20247000D8F828104A78C2720298817901988AF80210CBE00098002888D00199009A00781E
:20249000914205D101281CBF002008F02FFF15E0012840F0C080694801680A7A19F80200FA
:2024B000307009F0B5FD3918A06809F0ADFD18B909F0AEFD5844A0600120A8700098A5E05E
:2024D0009AF8010000287DD001F0DEF909F0EAF804462068029047689AF8020009F0E2F8C7
:2024F000039009F06FFA10F0070F3DD0A87803F0B7F80190416801980091029906F076FA8D
:20251000022831D001990A78012A2AD14B4B19680A7A19F80230337028B909F079FD8344A6
:202530000098C0F808B000990869C17E01F0EF01C17600980069C17E41F08001C176009861
:202550000069C17E01F0F00141F00201C176009AB9683B4841181069C16101210198A97070
:2025700054E0002008F0C2FE0398A04228D002980178802913D10822324832700178012941
:2025900003D09AF80100012803DD38690121C17213E0D8F828103A690878D0720DE0294907
:2025B000072030700A783869012A02D10123C37203E0D8F828104A78C272A0798AF802004C
:2025D000029823E009F0FEF910F0070F29D0A87803F046F804462078D4F80480012820D1B2
:2025F00016490A68107A19F80010317009F010FD3918D8F8080009F007FD20B909F008FDAB
:202610005844C8F808000120A870204605B0BDE8F04F04F075B805B0BDE8F04F002008F03C
:2026300065BE05B0BDE8F08F9C1A0020B0CE00006F4F0020289A0110684E0020104F002034
:20265000F0D8FFFF734F00202DE9F04F0C46E00789B00BD509F0D8F828B100218160A4488B
:20267000006800B1804784F001003EE1A00710D50020069000210490002302900090059104
:202690000393019101223C2009F0BAFC84F002002BE11D256007974E974F40F18A80002083
:2026B0000790834695498878FF2804BF002008F01DFE386890F8A00008F0F4FF8046386896
:2026D000C07A98F82691022818BF032808F5907A06D106F10D0009F08FFC08B906F1070B0D
:2026F0005146484609F084FC88B33868807A002818BF012804D13146504609F075FC04E0FF
:2027100052464946304609F06BFCFF2834D005FB00F906EB090506225146E81D08F0D8FEF7
:2027300016F8090040F00209E81D079006223868817E01F0010188F8261105F1010A386889
:2027500000F1140108F5907008F0C2FE14E05146484609F041FC78B152464946304609F0A0
:202770003FFCFF2808D006F10D014543481909F043FC08B149F0020908F12C004B460178BD
:202790000691418909090591B8F82220079904920122C088029140080390CDF804B0CDF8E1
:2027B00000A0002098F8061009F02AFC84F004009BE0200610D500200690002104900023F8
:2027D0000290009005910393019101223B2009F017FC84F0800088E0E0043BD5F11D06F12A
:2027F0000D0009F0F5FB38684179012923D1017A012918BF04291ED1C17A022918BF03295A
:2028100019D1817E00F11402304609F0E9FBFF2811D04543354405F10D0009F0EDFB50B96F
:20283000E91D05F10D0009F0D3FB38680622E91D143008F04DFE324932484A6800784FF401
:20285000805107F043F910B18E2005F005FC84F480504AE0A00505D509F06CF82A4901201D
:202870000860FEE7610504D504F07FFD84F480603BE0600405D5812005F0EEFB84F48040E4
:2028900033E0A00430D5214D286810B1002008F02DFD4FF0FF30286009F096FB1C4D2968F1
:2028B00051F8202F684690471A48016A426A2D68009101921849029100F128014A68097878
:2028D0001368C06903938DF81010ADF812006B462E68124A12491348B0471349086002F04C
:2028F00035FC84F4005000E0002009B0BDE8F08F204F0020AC450020104F0020684E0020FD
:20291000784E00206E4F0020FC002043044F0020F04E0020D011002009B800002C4D002059
:202930006845002088490020EC4E00202DE9F04F8246DAF800600C465FEA0208ADF11C0DB4
:2029500014BF00214FF0FF3106F14800834608F0F9FE002818BF0B2040F00D810025884830
:20297000F460B8F1010F057007D06570022007F0C3FE062007F0C0FE01E0012060702078FA
:20299000012840F2AB80801E012868D9801E012833D9801E012800F2DF8009F0A9F806907E
:2029B0004FF0805000F5EE77D0F8DC01A378466A009321782846062908BF012001900120CB
:2029D0000290A068228AE1686368B0478146069809F026FBB9F1000F40F0C080B8F1000F36
:2029F00002D008F045FD02E0504607F0BAFF002800F0A4803868806A2AE009F079F80690C3
:202A10004FF0805000F5EE77D0F8DC01012306680093A168A27860682478AC46042C08BF03
:202A30009C466346B0478146069809F0F9FAB9F1000F40F09380B8F1000F02D008F018FD20
:202A500002E0504607F08DFF002877D03868406880474A49C1F8B0510D6081467EE009F015
:202A700047F806904FF0805000F5EE76D0F8DC01E38A87690093E0680190208B0290A07846
:202A90000390207D04900121059122782846022A08BF081CE1786268A368B84781460698F9
:202AB00009F0BEFAB9F1000F58D1B8F1000F02D008F0DEFC02E0504607F053FF00283DD021
:202AD0003068006A80475FEA000947D13068C569A168E28A2369E078A847BEE709F008F807
:202AF00006904FF0805000F5EE76D0F8DC01E38AC7680093E0680190208B0290A078039033
:202B1000207D2946049001200590257805B9014608466268A368E178B8478146069809F0D4
:202B30007FFAB9F1000F19D1B8F1000F02D008F09FFC02E0504607F014FF08B914201AE0DB
:202B50003068406980475FEA000907D1306802692169E078904780E74FF0FF39B8F1010FE0
:202B700005D0022007F03AFC062007F037FC584608F0D2FF484607B0BDE8F08F504502402A
:202B9000D11A00202DE9FE4F05467F48002400680094C0090ED37D48007858B97D497C4803
:202BB00051F8112C104040F0817041F8110C202006F06AFF012D40F0E280DFF80892D9F817
:202BD000DC00012840F0D8800220C9F8DC0008F0E7F9012006F058FF5FEA000805D001200C
:202BF000C9F8DC0008F0ECF9CBE008F097FFA34602906948694DC0F800B0A86A016801202C
:202C10008847012804D1584605F026FF012000906348644FC0F800B03868112008F0A8FE39
:202C300000B10124102008F0A3FE08B144F002040F2008F09DFE08B144F004040B2008F018
:202C500097FE20B12868584E016B308888470A2008F08EFE20B12868544E016B3088884731
:202C70005348012606602868816944F0200088475048066008F076FE00F001010191400849
:202C900014D2286A81684C4888478246BAF1040FF7D0BAF1010F04D1286A42684648032195
:202CB00090474649086820F003000860584600F0BDFA2B683868986B8047019801280CD0D3
:202CD000BAF1010F04D1286A42683B48314690473A49086840F0030008603148066028684A
:202CF0004169204688470B2008F042FE20B128682D4BC16A188888470A2008F039FE20B1E5
:202D100028682A4BC16A18888847294806600322C9F8DC20274BC3F800B02868416B2046CC
:202D300088470128F9D13868042006F0ADFE0446194806603868144800688009FBD30098F8
:202D5000012802D1304605F087FE08F0F9FD082006F09AFE07460298C9F8DC6009F030F9CD
:202D70001748008805F0C0FC08F02AF957EA040018BF4FF0FF3804E06FF0040801E06FF06F
:202D900001084046BDE8FE8F14100940040E0020FFFFFCFC150009400C400940B801001011
:202DB000000222432C200940F6CA0000F2CA00002820086080010443004003402422084002
:202DD00088CD00001C0D002010B50B7884074CBF43F0020303F0FD0304064CBF43F0800371
:202DF00003F07F0304074CBF43F0080303F0F70384064CBF43F0200303F0DF0310F0AA0F94
:202E10000B7004D0107840F00C00107010BD18B9117801F0F301117010BD2DE9F8430D4611
:202E30001646287802281F464FF0000862D1686801784078089C01EB002189B220001CBF95
:202E5000B1F5285F0B205AD14FF42850091A08D0491E1ED0491E2CD0491E22D0491E2ED0B3
:202E700048E0DDF82490E86808F06AFE214680B2421A4A45ACBF4C46041BA4B26018162835
:202E900004DA3C802246E86801440EE04FF00D0834E0E8680088022139803070000A7070F7
:202EB0002CE0062038800622E968304608F010FB24E001203880E868017831701EE0E86891
:202ED000B0B108213980018831700188090A71704188B1704188090AF1708188317181881D
:202EF000090A7171C188B171C088000AF07105E0398003E0A7F800804FF001084046BDE89C
:202F1000F2832DE9F0470F4682B039780024022970D1804678680A9E0178DFF8E0A0914622
:202F3000427801EB022189B24FF42850091A1D4606D0491E29D0491E4ED0491E39D059E0D8
:202F5000F86808F0FDFD80B2B04204D3A819162803DB0D244FE007244DE0FB682A4649461D
:202F7000981908F0B5FAAD19F868ADB2C5F116020021401908F0E2FDDAF8000000281CBF70
:202F90000268002A37D0002123E08EBB022DE0D199F8000099F80110FA6800EB0120108008
:202FB000DAF8000000281CBF0268002A23D001210FE0EEB9062DCCD1F8680622494608F00E
:202FD00087FADAF8000000281CBF0268002A12D00321404690470EE056B9012DB9D199F84E
:202FF0000000002813BF0128F9680870802402E00B2400E001242046BDE8F687B81A002091
:203010007CB5894D144602460026A2F58062182A1AD8DFE812F0FE00F800F100E900E200A9
:20303000DC00D500D0001900C500BE00B700AE00A3001900190080006F00680054004C0032
:20305000420039002C002400282880F28580022940F08280218808F0AFFF0646E1E00129EB
:2030700040F0DE80002C00F0DB801135A6E0102940F0D680002C00F0D38028465030102221
:20309000214608F025FACCE0012940F0C980002C00F0C68029468D1D90E0262940F0C080A9
:2030B000002C00F0BD8005F160002622E8E7012940F0B680002C00F0B3806D1D7EE06029EA
:2030D00000D13CB9012940F0AB80002C00F0A8800D3573E005F186002146602208F0F8F96E
:2030F000012068739DE0012940F09A80207808F05FFF96E0012940F093802078022800F34D
:203110008F800C3528702078022814BF301C012008F04AFF85E0072940F08280611C684682
:20313000062208F00DF920786946324603F038FF04460A2C10DA08F033FF38B9204602F093
:20315000B5FB07F0FBFD06F0D3F86AE02A46012002F12C05285564E0022662E001295FD17B
:20317000A87B21780028A9735BD12078012858D1E9E7012954D12478072C51DB102C4FDCA8
:203190000B3537E001294BD124780A2C48DA093530E0012944D12478022C41DA083529E0D6
:2031B00000293DD108F0FCFE10B908F032FAC8E701240F351EE0012932D10A35247819E0D2
:2031D00001292DD12478022C2ADAED1D12E0102926D12B4603F1400051E7012920D1247829
:2031F000022C1DDA2D1D05E0012919D12478042C16DCED1C2C7014E0012911D12478022C2A
:203210000EDAAD1CF6E702290AD120881435288007E0012904D12478022CD8BF6D1CE9DDDB
:20323000182630467CBDC046940A00202DE9F84FDFF804B20746ABF13500DFF8F081006815
:20325000800880F0E28075480068006880477E490831D1F8009000254FEA29715FEA99522B
:2032700001F101010AD2C0F13E0210F10A0F4FEAE202D8BF08229142B8BF111C684BD3F890
:203290007C21C2F30462162AA8BF203A1B68C3F30443162BA8BF203B9A465218162A05DA79
:2032B00012F10A0FB8BF6FF0090200E015225D4B5D4E02F01F0141F4F8511980316811F0D4
:2032D000030F18BF0125C90828BF45F002050FB145F00405434693F90710411A052904DA4A
:2032F0009979A94208BF99886FD0DFF844E10F28A0F10F0829DB08EB0011A1F1F0084FEAF4
:2033100028210091072984BF07210091062988BF06215EF821600424774604EB81043C5935
:203330004FEA950CA41BEE0804F0FF0124BFC4F3072631446F08AE0824BFC4F30746314435
:203350006E0828BF01EB146104E000214FEA950C6F080091009C5EF824E05FEA5C060EF019
:20337000FF0424BFCEF3072634447E0824BFCEF3074634446E0828BF04EB1E64009E89B25B
:20339000A8EB06267143803104EB1124AAEB02010029D8BF0121342209F0FF074A4391B236
:2033B0004FF6FF727943B1FBF4F18A4238BF111C802889B2998005DA10F1800FB8BF6FF0C9
:2033D0007F0000E07F20D8719D711A4800681F2918604FF0000008D340F2FF128A4206D2FD
:2033F0004908401C8A42FBD301E01F219980134F0F39090940EAC10047EA0001CBF8FB1F86
:203410000026CBF8FF6FBDE8F88F0D490D4F434608200F609B1D1870BDE8F88FEC010010DE
:203430003C1100506E62084024220840B01A00209C130050082009403500094000E7A48056
:2034500030100940FDFDA400AC3F0050F0B57348734A0078734C744B74490D2883B03CD8AE
:20347000DFE800F0DB07070707D3D358D39292B0B0B7146041F204456D494C88AC421FBF3C
:203490004E8BAE424E8EAE4203D11D806948106072E0022C684D1C804FF4A05635D94FF49A
:2034B0008067E41B1AD0241F012C1DD94FF47F77E41B1BD04FF44067E41B0FD0A41E012CEC
:2034D0000CD9241F0AD0641E012C0DD940F2F937E41B012C19D9241F08D096E0022814BF37
:2034F0001E80564D156047E0554DFBE7554803681C7A012C05D141F20240488048834886E4
:20351000F0E74E804E834E86ECE7002007F0EEFE83207EE04C488178FF2952D018204143E7
:203530004A48146040F204450068841C645A1C80641B012C464B70D94FF47F75641B0FD07D
:203550004FF44065641B032C84BF641F012C0BD9A41E012C61D940F2FD35641B06D103E028
:20357000801C41F201444452136005E0002007F0BDFE852008F010FD03B0BDE8F0403548B8
:203590000078012103F088B940F204424888188090421CBF41F2084290423ED041F6040226
:2035B000904211D12C4C2D4A25682D4800680023CDE9002355F8086F2A4B0222B0472A492B
:2035D0000880F7BD48881880002007F08FFE85201FE04888188002280DD940F20442801A65
:2035F0001BD040F6FC72801A05D0083815D04FF47F72801AE8D1887B801CC0B2B528A8BFBC
:203610006620887300204880F7BD002007F06EFE8420BDE8FE4008F0BFBCF7BD6F4F00206E
:20363000204F0020CBBA0000504F0020CC4C0020204A002059550110615A0110B154011044
:20365000755B0110104F0020684E0020804E0020313901106E4F0020F04E002002000080FE
:20367000EC4E0020A59C0000424F00202DE9F04F044677488C4601689B46BCF1000FADF11A
:20369000440D44D0002A42D09CF800300120984001423CD01088B0F5C15F2CD1506997695A
:2036B0006C4DD669DFF8B0910E904FF0030E0DF134080F9728681096C0F3036A58F8047FF3
:2036D000B7B100213D1F05200B4655F8046FB14506D0401E01F1040103F10103F5D107E0F9
:2036F000052B05DA785820F4702040EA0A407850BEF1010EE2D1C4F804C0A26008F0F8F91F
:20371000564D8246287820B1504608F089FC00209AE001F07BFE5249086840F00200086001
:2037300007A808F059F84FF0050805F1BC0007AA4C49CDF8248006F089FB07A808F02CF88F
:2037500000264FF0FF0905F16000192107AB8DF82460454ACDF8209006F01CFB07A808F0E9
:203770003BF805F1F00007AA4049CDF8248006F06DFB07A808F010F80127CDF8209005F1DD
:203790007C001A2107AB3A4A8DF8247006F002FB3849324605F19800134605F0ADFF364821
:2037B00008F0B6F8354A3346042105F14C0007F039FA4FF6FF70A5F86001AE702E716E717C
:2037D000AE71EE712E726E722E61C5F81C802B786F70581C2870504608F022FCBBF1000FFE
:2037F00003D1684607F04AFFEB46DBF800002060DBF80400E0609BF8100067742074BBF897
:20381000120060821E4DA5616561DBF80C0000B1A061DBF8080000B160613146782204F189
:20383000200004F091FD04F13800314607F00AF90BA808F02DF913490D9404F1700032468D
:203850000BAB05F059FF204611B0BDE8F08FC046D4210840541300500200F844701400202E
:203870000020094029B500002DAE0000096F0000597F000039B80000C16100008D95000091
:203890001F8F0000D1BA00002DE9FE4FDFF8FC8198F8011011B9002007F028FD08F0B8FBD6
:2038B0000546002405F6C4150027794EDFF8E4910EE0384607F0F6FE417939B131688279EC
:2038D0000A552946641C08F063FBE4B27F1CFFB299F800008742ECDB98F80100844205D005
:2038F000002007F003FD822008F056FB98F80100012840F0A980002701E07F1CFFB299F8BE
:203910000000874280F29A80384607F0CBFE054668790028F1D03068A979027891421CBF0D
:20393000002007F0E3FCA87986E0306810F8090007F0B8FE00684268DAF8081090688142ED
:2039500004BF3D4609F1010900F08D808FE03068047801210FE0D8F80420435C02F5AD72D3
:2039700009FB03F509FB04FE555B32F80E20954238BF1C46491CFFB2B942ECDB4FF6FF7071
:2039900008F002FB8346204607F08CFE40F6C41500684168CDF800A000204FEA5B076F4380
:2039B00082460291CDF804B016E0204607F07AFE01680A78802A04BFDBF810305F610978AC
:2039D000402907D1344A8079136803EB401107F5A062CA610AF1010A0098824554DA306811
:2039F00010F80A008442F5D0D8F8043009FB00F2991803F5AD73C9899A5A4B08934203D214
:203A1000009B891A8B42E5DA07F04CFE0068D0F804B0029A0198DBF80810936800EBD07061
:203A30004010A1F6C41105FB003008F0EDFA0028BBD0306810F80A00BDE8FE8F002007F005
:203A500055FC822008F0A8FA98F80110306808F097FA3068007807F025FE00250168D1F886
:203A700004A04FF001096F1CA145FFF65EAFEDB2002D1CBFF8B20028A2464FF4C0797FF486
:203A900066AF3068047879E72046D5E7684E0020004F00207B4F0020844E00202DE9FE4FE7
:203AB0000E468246307AC10693461C464FF000090CD5584608F060FA030000F0EA800A228C
:203AD0003146504698475FEA00094DD13078DDF838800D9D0C9F02281AD1706801784078D2
:203AF00001EB002189B24FF42052891A012910D9891E3AD0491E14D0FD397BD0491E00F02F
:203B10008280491E6ED0491E74D0491E00F09780ADE0002D2AD1F068017839800278416873
:203B300089E0002D22D101203880F0680178217000217089401C80B208F01AFA398860B12B
:203B50000278921C51183980418961704189090AA17002784168E01C6EE0091D3980042210
:203B70000021601C07F0EAFF95E0002D68D1F0680588042139802570290A617028460DF115
:203B9000020108F0F5F95FEA000821D0D8F80C50BDF802204FF6FF766B46314608F0E4F930
:203BB00050B998F80030D8F804203C48022108F0D7F908B9ADF80060287802280AD169688D
:203BD0000222201D07F084FC3888801C388001E0ADF80050BDF80000A070BDF80000000A8F
:203BF000E07058E0002D2BD1F0680168504607F0C3FD02E025BBF0680088022139802070E8
:203C1000000A607047E0F06807F09AFF80B229468842B8BF4FF007093DDB814208BF0022B6
:203C300006D008EB01028242B2BF4246451BAAB23A80F0680144204607F04AFC2BE015B164
:203C50004FF00B0927E0F0680721398001782170417861704188A1704188090AE1700179AC
:203C70002171C1886171C088000AA07113E0584608F072F95FEA00090BD00F980290CDF805
:203C9000048000953B46224631465046C847814601E04FF00E094846BDE8FE8FFACB000073
:203CB000F8B57E4F04463868C16E0025002940F0F180102007F0C8FD39680028C86600F09F
:203CD000E7808E6E1022214607F002FC39680878002840F08E80CA6ED6F8980012F80CCFD9
:203CF00000F001030CF0010C634518BF0023400843EA4000C6F89800C0F34003D2F800C08A
:203D1000CCF3400C634506BF430803F00103002320F0020040EA4300C6F89800C0F38003AB
:203D3000D2F800C0CCF3800C634506BF830803F00103002320F0040040EA8300C6F8980075
:203D5000C0F3C003D2F800C0CCF3C00C634506BFC30803F00103002320F0080040EAC30071
:203D7000C6F89800C0F30023D2F800C0CCF3002C634506BF030A03F00103002320F48070FA
:203D900040EA0320C6F89800C0F34023D2F800C0CCF3402C634506BF430A03F001030023D1
:203DB00020F4007040EA4320C6F89800C0F38023D2F800C0CCF3802C634506BF830A03F054
:203DD0000103002320F4806040EA8320C6F89800C0F3C0231268C2F3C022934206BFC20A88
:203DF00002F00102002220F4006040EAC220C6F898008A6E92F89500030718D5C86E4368D7
:203E1000C3F3C00098B1C87840F00800C870D6F8981023480140C6F898103868C06EC168A4
:203E300021F48071C16049084900C16003E092F8330001282AD0607800281CBF71780029E0
:203E500008D13968CA78130708D5002804BF7078002803D03A68052111711CE06068C0F310
:203E7000800040B996F8950010F0040002D10120087110E00AD00878002819BF307821789A
:203E90003178207808F064F8054604E0182502E0132500E011252846F2BD00BF304F002066
:203EB000FEFEFFFF2DE9F0410446764DA178A869ADF1180D891F00F0DE80C91E00F0C980A1
:203ED000491E5FD0491E48D0C91E3CD0481E40F0D580287A697AB8B96878002831D0A088B8
:203EF00008F032F8071C00F0C980A07A40080FD3787968B1E168890A0AD2B91D01AA03F0BA
:203F10004FF80A2804D10321A08808F019F8B5E0287B022802D1A07A0009F4D3A0887979B5
:203F300004F1080200F082FFA869002800F0A6804368002B00F0A28000210A46A088984752
:203F50009CE00521E0E7002800F098804368002B00F0948062780221F0E707F05DFC002892
:203F700000F08C80A86950B1076847B1206900906189227B637BE01C3C46A0477EE0608992
:203F90000121C2E767784FF00008002F52D1A17949084FD3EF69002F4CD101A841460E223D
:203FB00007F0CCFDA08807F0CFFF071C66D0606940B97879B91D06228DF80A0001A807F00B
:203FD00087FA19E06669307C062206F111018DF80A0001A807F07CFA07F10C00B91D062204
:203FF00007F076FAB81D062206F1110107F070FA307C40F002007871A1799DF81120C1F388
:20401000800010438DF81100080905D39DF8110040F008008DF8110001A8214600F022F9AF
:2040300028B92878022102F037FC404627E0A8694FF0150810B3436803B3A0886278012165
:204050009847B8F1000F19D0A86943680321424674E7E078211D002202F0A2FF0A280DDAA9
:20407000410001EB800004F10C0225300421C0B201F0C0FE02E0A08805F0BAF9012006B05C
:20409000BDE8F081940A00202DE9F04F6C4CE2680746880FADF1140DC0F0CE8050684068E4
:2040B00008B18047E2685168664E886808B9CD6875B13568002DFCD00022326010B18047DB
:2040D000E0684168C86800B180475F4806F096FD4FF00008C6F800805C4846F81C0C5C48D4
:2040F00007F016FC40F60A09A4F82490A378A4F82680BD6894F83000C34604F1240A00F0B4
:20411000F00084F83000012BC4F828B094F83100A5F8028000F0F00040F0010084F8310099
:2041300001D17B7CABB1B8680088A9F10801814208D0B0F5C15F05D0298B4FF60F4008403A
:20415000288304E0298A4FF60F400840288287F811804048016883680193C368406B0091A0
:204170001022694620F0784040F0805003903A48029303F049F9494600E01D466B6813B13E
:2041900018888142F9D1C5F804A0687B00F0F000687304F1380007F0BDFC80680088CA1FAD
:2041B000824220D0891F81421DD03B8CEBB197F82C0097F82D30C7F824B000F0F00087F8E7
:2041D0002C0003F0F00040F0010087F82D0007F12002A2629AF80D00A7F8228000F0F00005
:2041F0008AF80D0001E0C4F8108030680028FCD0C6F80080B968237A0A8A4FF6FF30104013
:20421000088283B91548006801680120884701280FD0687B00F0F00040F00100687310487B
:2042300007F076FB05E005F015FD0028FBD007F06FFCB86846F81C0C05B0BDE8F08FC04660
:20425000701400201C1004400100070601010E04051D00004C13005018000021E00100101D
:20427000618E00002DE9F04F714CDFF8C0A1E56988468146ADF1140D002D4AD1B9F1000F52
:2042900000F09280B8F1000F00F08E8006F074FC06460A2E23DAD8F814702674002F39D049
:2042B000700010216A4600EB86002330C0B206F074FF90B950460778FF211022684607F0A9
:2042D00076F850B93FB999F80600494600F0010007F032FE01E00120A074E56919E004F1CF
:2042F000E60B0A2700265846FF21062207F05FF868B97F1E0BF10E0B06F10106F3D1607CC1
:20431000002804BF0A2020744ED094F83660267400E0267C0A2E47DA002D35D170000E215D
:204330004A4600EB86002030C0B201F063FD207C05F096F96846FF21102207F0FFFB207CAC
:2043500010216A467030C0B201F054FD217C0E220801A0EB410000194946E63007F0B8F811
:20437000D8F814206AB15046007840B9107C02F11101002300F0010007F0DAFD01E0012092
:20439000A074C4F81C804CE0AA68002A3ED12A69002A2FD16A690ABBEA683AB9A07B08B1BC
:2043B00006F00AFA06F0EAFE01203BE07000102100EB86002430C0B201F01CFDE769217C0A
:2043D000FA68480000EB8100103225300421C0B201F010FDE1690020C86022E07000102156
:2043F00000EB86002330C0B201F004FDE1690020486116E070001C2100EB86002230C0B29A
:2044100001F0F8FCE169002008610AE070001C2100EB86002130C0B201F0ECFCE1690020C6
:204430008860002005B0BDE8F08FC0465A4F0020940A002066480178002900D170472DE910
:20445000F043491E032985B004D9891F012940F2BC80B4E05F4CDFF880912168DFF87C81B0
:2044700008685F4E00F10805062205F1080102A807F02EF80622A91C684607F029F82878D0
:20449000C1091D2700F00F02032AC0F3801537D16079C0F3800081421ED12169062202A866
:2044B00006F0EEFD00280AD06946284607F0A0FD002804D03146684607F096FDFF2879D03D
:2044D0004743D8F80000807AF519002818BF02280AD0012818BF03286CD1F25D691C48469D
:2044F00007F022FD102865D06B46EA1D2946484607F016FD06226946E81D06F0E9FF59E077
:2045100000F00F00052860D16079C0F38000814250D12169062202A806F0B2FD002849D0FC
:204530006946284607F064FD002843D03146684607F05AFDFF283DD04743D8F80000807AC0
:20455000F519002818BF01280AD0022818BF032830D1F25D691C484607F0E6FC102829D0A2
:2045700040F2024007F0D8FC6B46EA1D2946484607F0D6FC06226946E81D06F0A9FFD8F824
:204590000010F05D88760622D8F80000691C143006F09EFF1348144A41F2044141804183A6
:2045B0004186124801801249124808600121107802F072F921680A680020107105E0002084
:2045D00006F094FE862007F0E7FC05B0BDE8F0836F4F0020F44B0020CC470020104F002007
:2045F000AC450020204A00206E4F0020504F0020204F0020595501102DE9F04FADF1240D02
:20461000079000F003FF6148007806F0D1FB604D0024012808D90A380FD0801E04D0401E52
:204630000ED0401E09D006E006F0CEFE022804BF01210C1C06D0696805E005211F2401E0A0
:20465000032107246960534A1068C0F38150012806D152F80C0C0127020E07FA02F00443C5
:2046700007F0B2F8524AFF230818401E471C28607F1E02F8013BFBD1079A1268002702F08F
:20469000FF03FE2B20D0DDF81CC096463B4601260EF0FF02FF2A10D0904205D3914203D85A
:2046B00006FA02F2144201D002206CE017430EF0FF02DFF8FCE00EF802305CF804EF5B1C5F
:2046D0000EF0FF02FE2AE5D1092002F0FFF907980121A86005F1280006F0B4F905F19806BC
:2046F000A8464FF0010A4FF0040B0025A9460AFA05F0044216D1074204BF05F0FF0141F4B4
:20471000C04104D02A480799405D51F82010224801F01EFFE8B24FF0FF3106F093FDC6F8C7
:20473000009001E0C6F800B0D8F800006D1C361D8542DCD904A807F02FF8184C184A20783A
:20475000102104AB059008F10C0005F023FB684607F042F8CDF80C906A4660681149029018
:2047700008F1640005F072FB0F4951F80D0C20F4F85040F4005041F80D0C0C4FC1F8FFAFBC
:204790004846C7F800A009B0BDE8F08FD01A0020080C0020B43F0050007FC76738CE00000B
:2047B00071B20000259C00000D300940080009404C0C00202DE9FE4F664CE76B06F010FE4B
:2047D000664D002F4AD081081BD207F110020CCA002102400B4008BF002A3FD03A693E6A7E
:2047F00010403043386207F1180696E80C002764194307F11806104386E803004FF48041E7
:2048100028E039693E6A07F1180341F0020108403043386293E800030022002607F11803C1
:2048300040EA080046EA090183E803003E69E2632B46A3F1100000F108031968B1431960A3
:204850007B69016899430160394604F1440004F0BFFF022104F1BC0007F064F9AB4604F146
:204870003800002601254FF002094FF0110A0190A846F0B206F038FE071C30D0B87C012833
:204890002DD1ABF11400797C0368113105FA01F223EA02010160797C4268113105FA01F183
:2048B00011434160787C08FA00F0C0B206F056FDF868002106F034F9812808BF87F812901D
:2048D00081280CD0787C94F862110AFA00F0084384F86201002104F1F00007F023F9761C87
:2048F000032EC6D3019807F015F90746E06B70BB47B36846FCF752FB30B1009820B1082023
:2049100003F0E0FCBDE8FE8F082006F027FD12493869A1F10802136818431060786951F83C
:20493000102C104341F8100C00260E60B86841F81C0C0F68002FFCD0019806F069FDE063C4
:20495000BDE8FE8F04F1BC00494607F0EBF8BDE8FE8FC046701400201C1004401C1004403F
:2049700060480178042900D870472DE9F84F891F2FD0491E012900F2AA805B4CA078FF28B3
:2049900027D006F08FFE82460AF16C06706807F0BFFA0746387903281BD1B868017811F021
:2049B000030904D17068BDE8F24F07F0ADBA457800F102080AF20F10B9F1030F00900DD0EE
:2049D00045B1307830B900983D21417001210098017084E0454801780129FAD09AF89400EA
:2049F0000AF59A7B58B32D1F4346EAB24946504607F086FA50B900993D204870012000990A
:204A10000870BDE8F24F3A4807F076BA39480168884700904FF4C0709AF8062061684243BD
:204A30008818002180F83911DBF800109BF80600490804F0E5F8304900980A6890470020CB
:204A5000B9F1030FB8602ED02C4840690078810708D5C0074CBF03200020EDB2401918F85D
:204A7000000000E0812030722549BBF83E000A78904211D3317A802918BF81290FBF7F2129
:204A9000204A1078091A49B200914B46A078EAB2414607F02DFA11E0A0784B46EAB24146BE
:204AB00007F022FA0AE00F480178082903D04146504607F015FA404604F0F8FD706807F0B4
:204AD00023FA39465046BDE8F44F07F005BA002006F00CFCBDE8F24F862007F05DBABDE899
:204AF000F18F00BF6F4F0020684E0020794F0020AC450020380E00203C0E0020B0CE00006C
:204B10006B4F0020704F00202DE9F04F8346ADF1140D0393BBF1000F02920E9801910F9C27
:204B3000049000F0AC80081C00F0A980101C00F0A680181C00F0A3800498002800F09F801C
:204B5000002C00F0A180206A002800F09880524D676A281D0068002F00F09180A16A07F0FF
:204B7000B7F940B2002808BF6FF0020700F0838084F82C002078618800EB8000091814313F
:204B900088B2216A88474349086030B92846406807F09AF94FF0FF376DE08A4662882378DD
:204BB0006088DAF8001026789F1800EB0109781800F1040806EB460002EB430786187F18A1
:204BD000C01876188018401800F11005204604F0B7FD2078C01C8010C9F800002078C01C22
:204BF0008010C8F8000020780837C01C8010386020780C36C01C801030602078C01C8010A0
:204C100028602278594609F1040002F0FDFB2278019908F1040002F0F7FB22780299381D3C
:204C300002F0F2FB0095484641463A46334607F047F947B222780398331D194602F0E4FBFD
:204C500022780498291D02F0DFFB21786288DAF8000001EB81015218002103F075FB616A80
:204C7000DAF8000088470C48406807F02DF9F8B2992808BF002784F82C70384606E01CB1C8
:204C90006FF0010084F82C006FF0010005B0BDE8F08FC046884F0020B81300202DE9F8438A
:204CB000614C5A4D5A4EDFF870815E4F94F8E4100846401E0B2864D8DFE800F07B2C430631
:204CD0002343062343067664042907D001220A2945F8212C14BF0220032004E0202045F8B5
:204CF000210C0120024684F8E200002045F8390C0827C5F8FF7FC5F8F37F45F8392CBDE82E
:204D1000F883052914BF09200620002784F8E400376075E094F8E170383D0120002FC5F8E6
:204D30001B0004BF0620002102D00021F160032084F8E400032045F8010C31603068800859
:204D50005ED294F8E4103348012703290ED00068456800216022052300914046A84794F874
:204D7000E400062814BF0A200720CFE700684568002160220523022000904046A84704200C
:204D9000C4E7FEE72548264F0026012506600E203D6001F0E1FD022005F020FB84F8E45063
:204DB00084F8E360BDE8F883002038600C25786024E04FF08059D9F8A0010168202088473D
:204DD0002C3D0F2045F8010C41F61D56C5F80360D9F8A401466800214FF4C072072302250C
:204DF00040460095B047D9F8A401C66800214FF4C07207234046B0470120386084F8E45047
:204E100004F1780006F06EFEBDE8F88339400C4038600C40A401001000A00C402C500C4081
:204E300004800C4034600C401C0D00202DE9F04F88468246ADF1AC0D299207F085F85C4C50
:204E5000E67894F80BB0A57A94F80C90071C00F0AB8068460021A42206F070FE2801279A35
:204E700055498DF8046005F0030300F4807605F00405ADF800A0B9F1020F01EA020143EA9D
:204E900001024C4B8DF8A0B046EA020100F4C06603EA010246EA020045EA00054FF00000B1
:204EB000279508BF01208DF8370007F005F8412809DB207B00280CBF002008209DF899102D
:204ED00008438DF89900607B002804BF00208DF8380017D001208DF8380004F18601202233
:204EF0000DF1390006F0F4FA0DF1590004F1A601202206F0EDFA0DF1790004F1C601202200
:204F100006F0E6FAA07940B18DF8260004F1500110220DF1270006F0DBFA66793EB104F1CB
:204F30006000B91D0622054606F0AAF868B92079002804BF00208DF8050015D08DF8050062
:204F500004F140010DF106000BE08DF805600DF1060005F11601102206F0BAFA0DF1160031
:204F7000A91D102206F0B4FAE07930B1B8F1000F03D0279941F002012791002100B1012120
:204F9000A7789DF89900002F41EA00018DF899100CBF002004209DF89910084329998DF84C
:204FB0009900684606F084FF2BB0BDE8F08FC046940A0020FBF9FFFFFCFEFFFF0FB42DE99B
:204FD000F04106AF8046ADF1280D06F02BFD3E1D26F00306361D30F0010001D106F0CCFAA8
:204FF000CDF81A601420ADF816000025CDF80E50FF248DF818407B68CDF81E3006F054FFEC
:20501000064606F00FFD30F0010015D006F0C2F94D492A468446062031F80C7F4FB14B681E
:205030001B689E4204D0401E02F10102F4D100E0D4B2604606F0ABFA404605F09BF9014613
:20505000FF2905D0204603220DF11A0303F00CFE06F02AFF05F038FBA8460746CDF80080D9
:2050700006F0E0FC30F0010063D0002F61D041F2883001A905F0F8FA009C002853D106F040
:205090000FFF0199012645187868019B41464FF00052FBF739FB00282BD00DF122000DF1D9
:2050B000230102AA03F004FFB0B99DF8220003A905F0F2FA38B9029A06F096FC00281CBF55
:2050D000029C464615D10299684605F08FFC78684FF0005106F0E0FE0198B0F1FF3FD3D088
:2050F0000028D1D006F0DCFE281A02D00199814217D206F07DF807F10805009F06F04AF965
:2051100001463FB13A4652F80C0C40B9286842F80C0C2F60084606F03AFA304603E00246E3
:20513000F1E70190B0E720B92CB1204606F0B9FC01E006F021FADDF81A0000680AB0BDE8F0
:20515000F04104B07047C046780E002070B5414C414B2568186855F8183F00224FF0FF3177
:2051700098473E483E4A416B3E4C88683E4D41791170002606F08CFE3C4806F085FE06F0AD
:205190007FFE3B48026800215171A02301680722CB804A72032102681172002103685977E9
:2051B0000268D176036883F85C10012102681177036883F85D100021006880F85E100EE018
:2051D0006068F6B24FF4C071714308444279012A04D1304606F066FA06F04EFE761C2978DF
:2051F000F0B28842ECD306F043FE2248224A0178117004F067FE06F037FE2049204A0020F6
:2052100008700021117001201E4A10701E4A11701E4A10704FF4A4701D4A11701D4A117063
:205230001D4A11701D4A11801B211D4A1180FB211C4A108040F648001B4A11801B4A1080CF
:205250001B4A11801B4A108006F00AFE1A490020087070BDF04E0020EC4E0020B0CE0000F7
:20527000714F0020684E00207B4F0020CC470020104F00206D4F00207A4F0020734F002025
:20529000744F0020754F0020764F0020774F0020784F0020794F0020CF1A0020524F0020D3
:2052B000444F0020464F0020484F00204A4F00204C4F00204E4F00206F4F0020F0B5514C6E
:2052D00020780D46E90BADF11C0DC90372D1A80860D2E069216A6A080ED2E80828BF85F0B5
:2052F000040580F08C80680904D303F067F885F0100584E0002083E0868861B904F11600DB
:20531000414A00904FF6FF710223012006F0A4FD0146216221B304A8009000270197022312
:205330000293FF220392E28A30460DF11203FEF7B5FB58B99DF813009DF81220216A12EB70
:20535000002204D04989304604F0E2FB216AE28A08463B464FF6FF7106F006FE01462162EF
:20537000A069002918BF85F001051AD168B143685BB1E0698088012100229847A069E76911
:205390004368B88803210022984705F0A1FF85F0010534E000200146FEF764FF18B185F0CC
:2053B0000205012102E0022185F00205207801F073FA24E002F05AFB071C1ED0387801260A
:2053D000B03811D0401E02D01F3808D011E0387978B97888F9883A8904F09AFB0AE038468D
:2053F000FEF760FD064604E0397907F10800FBF78FF916B1384605F053FE85F40045A8B24C
:2054100007B0F0BD940A0020F0CB00002DE9FF47484C94F8E700002876D13D4801273D4D96
:20543000006884F8E770EE7C84F8E6606B68C4F81031C0F3801084F8E800684606F028FBB7
:20545000002604F10C0001966B468DF8006032490296324604F050F9304904F130006B46D1
:20547000324604F049F92E4904F154006B468146324604F041F9A96838468847DFF8B0802B
:2054900028482A7D08F104030078284D1868C0F3815A22B1BAF1030F04D184F8E170BAF10D
:2054B000030F17D0BAF1020F14D0BAF1010F0ED0022005F021F91C48006801680420884751
:2054D000012804D028683221B1FBF0F10DE004F053FD12E0022005F00FF9BAF1030F0CBF85
:2054F0004FF47A7142F210712868B1FBF0F1484606F0F6FA484606F0F5FA40460068C008FF
:2055100002D2304605F0F8F800200090BDE8FF871410094078CD00009F910000F970000026
:20553000D9870000D01A0020E0010010BC1A0020B03F00501C0D00202DE9F84F5FEA0009D3
:205550001C46924600917DD0081C7BD0BAF1000F78D0002C7BD0206A002873D03F4D616AEF
:20557000281D006800296DD0A16A06F0B1FC40B2002808BF6FF002055FD084F82C002078A4
:20559000618800EB400009180C3188B2216A88473149AB46086030B9DBF8040006F094FCDC
:2055B0004FF0FF3549E08846668865882178D8F800008F192D183F1806EB410636182046FD
:2055D00004F0BEF82078C01C8010286020783F1DC01C8010386020780836C01C80103060BB
:2055F00022784946281D01F00FFF28463A463346014606F02DFC45B2227800983B1D194681
:2056100001F002FF22785046311D01F0FDFE21786288D8F8000001EB41015218002102F020
:2056300093FE616AD8F800008847DBF8040006F04BFCE8B2992808BF002584F82C5028469E
:20565000BDE8F88F1CB16FF0010084F82C006FF00100BDE8F88FC046884F0020B8130020C5
:205670002DE9F0410746FF2F1ED106F0ABF910F0070F16D0042004F04DFD08B104200AE0AA
:20569000012004F047FD08B1012004E0022004F041FD20B10220BDE8F04104F057BD05F0C9
:2056B00025FE0020BDE8F08104F050FD8046012FD8F80450334E04D0022F29D0042F3DD067
:2056D000EFE7022004F026FD80B1022004F03EFD074601207C6804F01DFD28B1A06831189F
:2056F000A86806F091FC88B13846DBE7042004F011FD28B1042004F029FD0746012026E0DD
:20571000012004F007FD08B94FF000084046C9E7042004F0FFFC28B1042004F017FD0746BD
:20573000022014E0012004F0F5FC28B1012004F00DFD074602200AE00220E2E7012004F0EC
:20575000E9FC88B1012004F001FD074604207C6804F0E0FC0028C7D0A0683118A86806F0CD
:2057700053FC0028C0D1D1E7022004F0D3FC30B1022004F0EBFC074604207C68E8E704204E
:20579000BFE700BF589EFFFF2DE9F04F0C4645498A7AADF12C0D84460592087B0990CD78CE
:2057B00000954A7AC88ACB89CE7A91F804A091F801800492B1F842E008900A7A888A039237
:2057D0008D780790CA79488A0292CF6906908A79088A01924A79E146A9F54079B9F11D0F67
:2057F00010D8DFE809F05B5553514F4D4B494643413F3C3A380F3432302D2B2522201E0F25
:205810001B1A1918BCF1280F49DA274962461020FFF7D4FB1FE0099EB246D046CDF81480F1
:205830001BE00898079007980690DDF818E005E03431086820608888A08030E0704608E00C
:20585000B1F8400007E0C88F03E0888F01E091F83A00034612E0208021E0059804900498CA
:20587000039001E02E31E4E7039802900298009006E0019A83310DE064310BE01846EAE752
:20589000009D0BE02831D4E7276008E0543100E044311022204601F0B7FD00E025700BB0A6
:2058B000BDE8F08F80050020F58401102DE9F043454E0546307CADF14C0DA84209D130784F
:2058D000012104F0BFFD3078022104F0BBFD05F0FFFC6C0004EB85040E210FAA04F120009E
:2058F00004F120075FFA80F9F8B205F056FC002865D10FA8FF21062205F059FD00285ED1BA
:2059100068461C2206F01AF907A8FF21102206F015F904F1230010210BAAC0B2804605F052
:205930003CFC90B929480778FF2110220BA805F03EFD50B93FB99DF842000FA900F0010030
:2059500006F0FAFA01E00120B0740FA8FF210E2206F0F4F848460E210FAA00F04BFA064647
:205970001C216A4604F12100C0B200F043FA1C216A46064304F12200C0B200F03BFA102160
:205990006A460643404600F035FA10216A46064304F12400C0B200F02DFA04F12507042147
:2059B0006A460643F8B200F025FA7035102107AA40EA0604E8B200F01DFA204300E0002066
:2059D00013B0BDE8F083C046940A00205A4F00202DE9FE4304F0F2FBDFF80481814608F1FB
:2059F000020000880027001F84B2042C5ADBFF254FF6FF7620466946042204F005FEBDF867
:205A100000309E4237D0002B35D0D80BC2032FD19D422DD0381FDDB280B2042815DBB0F5D2
:205A3000805F12DA00F18852126801A90A60BDF804108D4207D0BDF80610401A001F80B24D
:205A50000428ECDA01E0012300E00023BDF802001BBB211A001D8BB282B207F188511846B7
:205A700004F0D2FDBDF80200C119091D8FB214E0BDF8020011E0BDF8020003466FF30E034C
:205A900063B9011D8C4208DA002005F02FFC484605F010FC0020BDE8FE83241A241FA4B220
:205AB000042CA7DA03F0CEFF3FB10C484FF088513A4605F0C3FF05F013FE484605F0FAFB54
:205AD0004246507800281CBF0020011C03D1C7F58054391DA0B25180BDE8FE8304E001003E
:205AF000441400202DE9FE430E46814630887188814201D3010001D1012074E00021ADF856
:205B10000410029100244FF6FF7827E00294287802283AD1BDF8007001218DF80610BF08D3
:205B30002878022861D1698904F8011B02226889000A04F8010B2046696805F0C9FCA41C77
:205B5000BDF80400401CADF80400B9B2BDF8040088424AD26889404547D0401C00210091D2
:205B700000237188002280B206F076F905003CD0BDF8040010BB6B46424605214846FAF7CD
:205B9000D3FD0400C2D111202DE002208DF806001221BDF8000090FBF1F72978102924D179
:205BB000688904F8010B10226889000A04F8010B2046696805F08CFC1034C1E79DF806006C
:205BD0000128EAD1ACE701A9484606F03DF948B101AB05221621484606F032F910B10298CD
:205BF00003F064FD0020BDE8FE83BDF804000028E9D10A20F7E770472DE9F0413C4C243C72
:205C100004F14408404605F085FF071C6DD0B86840F603022026531C02E04068761EF6B2FE
:205C300060B15EB101888A4218BF8B42F5D1F9682CC820312CC149C881E849003A6A002556
:205C50003D627868D0B197F8270042F00202002300F00700401E09D0401E04D0801E08D14E
:205C70004FF0805304E04FF0804301E04FF000532A467E68F868B7F92410B04705F038FFEC
:205C90000646B4F94A00401C6FF31F30A4F84A00606C80F82750404605F0BAFB304606F067
:205CB000BFF9F868B0F99410B4F94A2091421CD190F89670A7B9076897B1E2680D491268D9
:205CD0000968B2F1FF3F10D0B7FBF1F2012A8CBFB7FBF1F10121703005F0C6FDBDE8F08153
:205CF00080F89650082002F0EDFABDE8F081C04694140020BC1A00202DE9FE4F8A460646DC
:205D10000CAF97E80300984691460746019105F0EFFE374D8346082005F5B47494F8273046
:205D300033F07F0357D106F1700005F0DDFEB5F94800401C6FF31F30A5F84800C4F808A003
:205D5000019A84F82690294BC4F80480B5F848002021114004F11002A08403EA07000027E5
:205D7000E660B84604F1180382E8030021466A4684F8277005F1380083E8800103F028FDF6
:205D900000282CD096F89630A08C012BA6F8940004BF86F896706F709DF8006094F8270023
:205DB00040F0800084F827003EB1A87928B1E87818B10120E871AF716F70584606F030F938
:205DD0009DF8000018B1E86B08B903F039FAB4F92400BDE8FE8F401E04F128049ED158468C
:205DF00006F01EF96FF00100BDE8FE8FF1EFFF9F701400202DE9FE4F3B4D4FF0000A9346C5
:205E10000290884685F801A003F046FA071C1BD0B8F1000F08BF544614D0ABF10109464684
:205E30005446384601A9012204F0EEFB9DF8041019F8010F884205D17F1C761E04F10104FD
:205E5000BFB2EED1A0454CD06F8808F103004FF6FC7440F6FC7104EA0006B819814204DA50
:205E700005F00AFDFFF7B4FD6F88E41C46F40040ADF80040BB19ADF80200694601229CB27E
:205E9000204602F0D9FCBDF80200694601226FF3DF30ADF80200204602F0CEFCB0105946A3
:205EB000C2B2384602F0C8FC02986946012240F40040ADF80000204602F0BEFCBDF80000DE
:205ED000694601226FF3DF30ADF80000204602F0B3FC687820B968888019001D688000E09C
:205EF00082465046BDE8FE8F441400202DE9F0410C4616460546984600210622ADF1300D48
:205F100009A802F021FA2846214609AA01F048F805460A2D43DA04F025FF074643462946FE
:205F300030463A4602F0FCFA68460021142205F005FE6C0004EB850404F1240010216A4698
:205F5000C0B205F02AF988B96846FF21102205F02EFA58B9253404AA0421E0B205F01DF96F
:205F7000304607F001016A4605F066FF05F17000102105AAC0B205F010F968B905A805F01F
:205F9000EEF8042404AF37F8041F19B1BA78304604F0E4FF641EF6D1284603F061FBB8F1E6
:205FB000040F12D10B4A507802280ED1D079002100B10121907808B141F00401107B08B13D
:205FD00041F00801304605F033FF0CB00020BDE8F081C046940A00202DE9F84304469946AA
:205FF00090460E1C44BF0020011C67D405F096FD05468021304604F0F7FB071C04D097F8C0
:20601000271031F07F0103D1284605F0D9FF53E097F8270010F0070F46D10020022107F138
:20603000180640EA090941EA080896E8030008EA000019EA010608BF002820D0284605F0FC
:20605000BFFF07F1180003C804F1680604F1680508EA000809EA010986E8000395E80C00E1
:2060700007F1180696E8030007F118059943904385E80300683494E80300BDE8F8831048B2
:206090007968884202D079682166786004F1580080E80003284605F093FF04F138004FF01A
:2060B000FF3105F04FFBE5E7284605F089FF97F8270010F0070FFAD102200021BDE8F883B0
:2060D000ED9000002DE9F04F054685B068888946904605F0A9FE871EBFB2DFF8C8A0DFF801
:2060F000C8B0324E3189B81E88424CDB5FEA090049D104A800902B7B6989288905F10D0221
:2061100005F0AAFE04003ED060892881BDF81020217A688805F084FE5FEA000933D1287950
:20613000DAF80030BDF8102003900021B81E80B202900191CDF800B021466888FDF7AEFC1E
:206150005FEA00091FD16389BBF80020DAF80010688805F061FE5FEA000914D128894FF6DB
:20617000FF7188421CBF401C2881BBD10BE05FEA09002889A8F8000008BF4FF00A09484634
:2061900005B0BDE8F08F30890028F0D0718890FBF1F030803146688805F03AFE0028EFD0E5
:2061B0001620EDE7E04E00203E4F0020FC4C0020B0B5324C0D46A80842D2E8085DD3012522
:2061D0000420657204F098FA2D480068006B8047206104F1380005F09DFC00280EBFE068A6
:2061F000C068E0604068274900780860022004F083FA112000F06AFCE1682571087C10B1F1
:20621000A078012803D00E2000F060FCE16849681D488F680FB9CF681FB10021C1611B4F0E
:2062300007601B4A40F2FF7111600027876119494161194805F06CFB192005F05BFCB0BDAD
:20625000FFF7DAFC04F1440005F064FC25F0020504F1380158B9E80803D2084605F05AFC1B
:2062700058B104F1980005F03FFC042101E045F0020104F1BC0005F055FCB0BD7014002002
:206290008C010010D02108400010044051000706000004600200004099400000F8B505F045
:2062B00049FB02F045FC05F05DFB054605F00C000C2854D0E80826D204F074FC2A4E376803
:2062D00004460120014604F03BFF31686143884219D22649F020B0FBF7F0241A887C18B1C0
:2062F000C868A04238BF041C214D2146284605F08BFD284605F084FD0120FCF743FC284600
:2063100005F07AFD2DE0280929D21A4CA4F1200620688168184888470746042FF8D0174860
:20633000690905D227B101460A6822F0010203E001460A6842F001020A6098310A6842F0B6
:2063500003020A6030688169202088470C4C37682068B86B804701202060206801E005F0C5
:20637000BBFB05F0EDFAF8BD88CE000078CD0000280D0020D8010010004003408C21084075
:206390002C2009402DE9F84F364E0446B0688047354D05F10802116809191160F168884798
:2063B000286800285BD0A9464FF0000807463546C246A868804756461FFAA4F3834683B9BC
:2063D0005FFA94F36BB93979E0B2884204DD79682046884209D20AE03879E1B2401A38719D
:2063F00008E079682046884201D3314601E07968091A7960B88878B9FB8853B9FB6843B134
:206410003B8933B1B87A194600F046FAF8687860B88808B9FB880BB13B896BB9B8F1000FEB
:2064300004BF3868C9F8000003D03868C8F8000038683E46074601E0B8463F68E96858460F
:20645000884756B1B08828B9F08818B9B07A318900F022FA304605F0FFF9002FA9D1BDE853
:20647000F88FC046300E0020901A00202DE9F04F364D8DB0804628688946924608B9122052
:2064900061E0C08805F060FD040008BF14205AD009A805F0ADFC29680878F8B109AA019299
:2064B000C86E009005F0A0FC070018BF0127002005F096FC8346607981070AD50622002176
:2064D00004F10C0004F073FF18B9012504F10C0624E0657905F00105A61D1FE0C86E0190E1
:2064F00009A8009005F080FC050018BF0125002005F076FC0646607981070AD5062200217C
:2065100004F10C0004F053FF18B9012704F10C0B04E0677907F0010704F1060B009807A90E
:2065300005F05AFC019805A905F052FCCDF810A003960295CDF804B0009705AB07AA4946D1
:20655000404605F041FC0DB0BDE8F08F304F00202DE9F0470D4606465FFA85FA280824BF1C
:206570002E4845402E494FEA8A03C85885EA00023240C2F300672B4A06EA0504B0432240F1
:2065900006F4E0240243B4F5E02F01D1500E14D306F4E020074310D002F4E027B7F5A02745
:2065B00007D0B7F5803704BF22F4003242F4A02203E022F4803242F4C022DFF86C80CA50EE
:2065D00008F1D00739680122002002FA0AF40C4218BF101C5FEA000906D1F00D04D3414628
:2065F000C5F3805001F80A00300E0BD305F080FA290E34BF0021211C3A68A2431143396079
:2066100005F00EFDB9F1000F06D0F00D04D34046C5F3805100F80A10BDE8F087006000A0CA
:2066300000100840007F077F002002402DE9F043DFF8BC808946054617464FF0FF31ADF1AB
:20665000140D404605F07EF82A4C04EBC5046668256805F04DFA2168096800290BD42968C0
:20667000002905DCB9F1000F09D04FF0FF3108E0B9F1000F03D005F0D3FC002430E0296802
:20669000491C296005F0CCFC2868022828DA1FB903A805F0DDF903AF38686860B76868464E
:2066B00005F07AF8307B144A00946B463946019005F12C0003F06EFB05F16400002104F018
:2066D000C1F905F14800012104F0BCF9706800F0FDF90A4A05F118002346042104F0A2FAA9
:2066F000404605F019FA204605B0BDE8F083C046601A002030CE00009DAD000099BA00008E
:206710007CB5040004BF002004F0F0FD28494C60606900B180476068017B01F00F010229A2
:206730000CBF806805F074FCA0602078802818BF402811D11F480021017041708170C17004
:20675000017141718171C171017241728172C17201734173C173016117490878174900286F
:20677000087814BF4FF48022002228B12378012B08BF4FF4002000D0002002431048024313
:206790000021CDE900210F4861680F4C2568006855F8086F0D4B0222B0470D4910F1020FE2
